{"abi":[{"inputs":[],"stateMutability":"nonpayable","type":"constructor"},{"inputs":[{"internalType":"uint256","name":"index","type":"uint256"},{"internalType":"string","name":"firstName","type":"string"},{"internalType":"string","name":"lastName","type":"string"},{"internalType":"string","name":"opinion","type":"string"},{"internalType":"uint8","name":"stars","type":"uint8"}],"name":"addReview","outputs":[],"stateMutability":"nonpayable","type":"function"},{"inputs":[{"internalType":"uint256","name":"","type":"uint256"}],"name":"allPurchases","outputs":[{"internalType":"uint256","name":"productID","type":"uint256"},{"internalType":"address payable","name":"buyer","type":"address"},{"internalType":"bool","name":"isCompleted","type":"bool"},{"internalType":"bool","name":"hasReturned","type":"bool"},{"internalType":"uint256","name":"timeArrived","type":"uint256"}],"stateMutability":"view","type":"function"},{"inputs":[{"internalType":"uint256","name":"productID","type":"uint256"}],"name":"buyProduct","outputs":[],"stateMutability":"payable","type":"function"},{"inputs":[{"internalType":"uint256","name":"purchaseID","type":"uint256"}],"name":"confirmOwnerShip","outputs":[],"stateMutability":"payable","type":"function"},{"inputs":[{"internalType":"string","name":"name","type":"string"},{"internalType":"string","name":"descripion","type":"string"},{"internalType":"string","name":"category","type":"string"},{"internalType":"uint256","name":"price","type":"uint256"},{"internalType":"uint256","name":"quantity","type":"uint256"},{"internalType":"string","name":"photoHash","type":"string"}],"name":"createProduct","outputs":[],"stateMutability":"nonpayable","type":"function"},{"inputs":[{"internalType":"uint256","name":"index","type":"uint256"}],"name":"getAvgReview","outputs":[{"internalType":"uint256","name":"","type":"uint256"}],"stateMutability":"view","type":"function"},{"inputs":[{"internalType":"uint256","name":"index","type":"uint256"},{"internalType":"uint256","name":"review","type":"uint256"}],"name":"getReview","outputs":[{"internalType":"string","name":"","type":"string"},{"internalType":"string","name":"","type":"string"},{"internalType":"uint8","name":"","type":"uint8"},{"internalType":"string","name":"","type":"string"}],"stateMutability":"view","type":"function"},{"inputs":[{"internalType":"uint256","name":"purchaseID","type":"uint256"}],"name":"productHasArrived","outputs":[],"stateMutability":"nonpayable","type":"function"},{"inputs":[{"internalType":"uint256","name":"purchaseID","type":"uint256"}],"name":"returnProduct","outputs":[],"stateMutability":"nonpayable","type":"function"},{"inputs":[{"internalType":"uint256","name":"","type":"uint256"}],"name":"storeProducts","outputs":[{"internalType":"uint256","name":"productID","type":"uint256"},{"internalType":"address payable","name":"publisher","type":"address"},{"internalType":"string","name":"name","type":"string"},{"internalType":"string","name":"descripion","type":"string"},{"internalType":"string","name":"category","type":"string"},{"internalType":"uint256","name":"price","type":"uint256"},{"internalType":"string","name":"photo","type":"string"},{"internalType":"uint256","name":"starCount","type":"uint256"},{"internalType":"bool","name":"isSold","type":"bool"},{"internalType":"uint256","name":"quantity","type":"uint256"},{"internalType":"uint256","name":"buyerCount","type":"uint256"},{"internalType":"uint256","name":"reviewCount","type":"uint256"}],"stateMutability":"view","type":"function"},{"inputs":[],"name":"storeProductsLength","outputs":[{"internalType":"uint256","name":"","type":"uint256"}],"stateMutability":"view","type":"function"}],"devdoc":{"kind":"dev","methods":{},"version":1},"evm":{"assembly":"    /* \"Product.sol\":26:5522  contract OnlineStore{... */\n  mstore(0x40, 0x80)\n    /* \"Product.sol\":1103:1161  constructor() {... */\n  callvalue\n  dup1\n  iszero\n  tag_1\n  jumpi\n  0x00\n  dup1\n  revert\ntag_1:\n  pop\n    /* \"Product.sol\":1144:1154  msg.sender */\n  caller\n    /* \"Product.sol\":1126:1133  manager */\n  0x02\n  0x00\n    /* \"Product.sol\":1126:1155  manager = payable(msg.sender) */\n  0x0100\n  exp\n  dup2\n  sload\n  dup2\n  0xffffffffffffffffffffffffffffffffffffffff\n  mul\n  not\n  and\n  swap1\n  dup4\n  0xffffffffffffffffffffffffffffffffffffffff\n  and\n  mul\n  or\n  swap1\n  sstore\n  pop\n    /* \"Product.sol\":26:5522  contract OnlineStore{... */\n  dataSize(sub_0)\n  dup1\n  dataOffset(sub_0)\n  0x00\n  codecopy\n  0x00\n  return\nstop\n\nsub_0: assembly {\n        /* \"Product.sol\":26:5522  contract OnlineStore{... */\n      mstore(0x40, 0x80)\n      jumpi(tag_1, lt(calldatasize, 0x04))\n      shr(0xe0, calldataload(0x00))\n      dup1\n      0xbb914c6a\n      gt\n      tag_13\n      jumpi\n      dup1\n      0xbb914c6a\n      eq\n      tag_7\n      jumpi\n      dup1\n      0xbe90c752\n      eq\n      tag_8\n      jumpi\n      dup1\n      0xca5fc72d\n      eq\n      tag_9\n      jumpi\n      dup1\n      0xdfa505ed\n      eq\n      tag_10\n      jumpi\n      dup1\n      0xe36fe830\n      eq\n      tag_11\n      jumpi\n      dup1\n      0xf5aa0231\n      eq\n      tag_12\n      jumpi\n      jump(tag_1)\n    tag_13:\n      dup1\n      0x085c8ac3\n      eq\n      tag_2\n      jumpi\n      dup1\n      0x131e407d\n      eq\n      tag_3\n      jumpi\n      dup1\n      0x4f27bda6\n      eq\n      tag_4\n      jumpi\n      dup1\n      0x8642269e\n      eq\n      tag_5\n      jumpi\n      dup1\n      0xac6c93d7\n      eq\n      tag_6\n      jumpi\n    tag_1:\n      0x00\n      dup1\n      revert\n        /* \"Product.sol\":3475:3773  function getAvgReview(uint index) public view  returns(uint) {... */\n    tag_2:\n      callvalue\n      dup1\n      iszero\n      tag_14\n      jumpi\n      0x00\n      dup1\n      revert\n    tag_14:\n      pop\n      tag_15\n      0x04\n      dup1\n      calldatasize\n      sub\n      dup2\n      add\n      swap1\n      tag_16\n      swap2\n      swap1\n      tag_17\n      jump\t// in\n    tag_16:\n      tag_18\n      jump\t// in\n    tag_15:\n      mload(0x40)\n      tag_19\n      swap2\n      swap1\n      tag_20\n      jump\t// in\n    tag_19:\n      mload(0x40)\n      dup1\n      swap2\n      sub\n      swap1\n      return\n        /* \"Product.sol\":4841:5298  function returnProduct(uint purchaseID) public checkIfBuyer(purchaseID){... */\n    tag_3:\n      callvalue\n      dup1\n      iszero\n      tag_21\n      jumpi\n      0x00\n      dup1\n      revert\n    tag_21:\n      pop\n      tag_22\n      0x04\n      dup1\n      calldatasize\n      sub\n      dup2\n      add\n      swap1\n      tag_23\n      swap2\n      swap1\n      tag_17\n      jump\t// in\n    tag_23:\n      tag_24\n      jump\t// in\n    tag_22:\n      stop\n        /* \"Product.sol\":2400:3001  function addReview(uint index, string memory firstName, string memory lastName, string memory opinion, uint8 stars) public  checkIfBuyer(index){... */\n    tag_4:\n      callvalue\n      dup1\n      iszero\n      tag_25\n      jumpi\n      0x00\n      dup1\n      revert\n    tag_25:\n      pop\n      tag_26\n      0x04\n      dup1\n      calldatasize\n      sub\n      dup2\n      add\n      swap1\n      tag_27\n      swap2\n      swap1\n      tag_28\n      jump\t// in\n    tag_27:\n      tag_29\n      jump\t// in\n    tag_26:\n      stop\n        /* \"Product.sol\":3783:4341  function buyProduct(uint productID) public payable{... */\n    tag_5:\n      tag_30\n      0x04\n      dup1\n      calldatasize\n      sub\n      dup2\n      add\n      swap1\n      tag_31\n      swap2\n      swap1\n      tag_17\n      jump\t// in\n    tag_31:\n      tag_32\n      jump\t// in\n    tag_30:\n      stop\n        /* \"Product.sol\":1032:1066  Purchasement[] public allPurchases */\n    tag_6:\n      callvalue\n      dup1\n      iszero\n      tag_33\n      jumpi\n      0x00\n      dup1\n      revert\n    tag_33:\n      pop\n      tag_34\n      0x04\n      dup1\n      calldatasize\n      sub\n      dup2\n      add\n      swap1\n      tag_35\n      swap2\n      swap1\n      tag_17\n      jump\t// in\n    tag_35:\n      tag_36\n      jump\t// in\n    tag_34:\n      mload(0x40)\n      tag_37\n      swap6\n      swap5\n      swap4\n      swap3\n      swap2\n      swap1\n      tag_38\n      jump\t// in\n    tag_37:\n      mload(0x40)\n      dup1\n      swap2\n      sub\n      swap1\n      return\n        /* \"Product.sol\":1174:1770  function createProduct(string memory name, string memory descripion, string memory category, uint price, uint quantity,string memory photoHash)  public{... */\n    tag_7:\n      callvalue\n      dup1\n      iszero\n      tag_39\n      jumpi\n      0x00\n      dup1\n      revert\n    tag_39:\n      pop\n      tag_40\n      0x04\n      dup1\n      calldatasize\n      sub\n      dup2\n      add\n      swap1\n      tag_41\n      swap2\n      swap1\n      tag_42\n      jump\t// in\n    tag_41:\n      tag_43\n      jump\t// in\n    tag_40:\n      stop\n        /* \"Product.sol\":4361:4650  function confirmOwnerShip(uint purchaseID) public payable checkIfBuyer(purchaseID) {... */\n    tag_8:\n      tag_44\n      0x04\n      dup1\n      calldatasize\n      sub\n      dup2\n      add\n      swap1\n      tag_45\n      swap2\n      swap1\n      tag_17\n      jump\t// in\n    tag_45:\n      tag_46\n      jump\t// in\n    tag_44:\n      stop\n        /* \"Product.sol\":1780:1881  function storeProductsLength() public view returns(uint) {... */\n    tag_9:\n      callvalue\n      dup1\n      iszero\n      tag_47\n      jumpi\n      0x00\n      dup1\n      revert\n    tag_47:\n      pop\n      tag_48\n      tag_49\n      jump\t// in\n    tag_48:\n      mload(0x40)\n      tag_50\n      swap2\n      swap1\n      tag_20\n      jump\t// in\n    tag_50:\n      mload(0x40)\n      dup1\n      swap2\n      sub\n      swap1\n      return\n        /* \"Product.sol\":3011:3465  function getReview(uint  index, uint review) public view  returns (string memory, string memory,  uint8 , string memory) {... */\n    tag_10:\n      callvalue\n      dup1\n      iszero\n      tag_51\n      jumpi\n      0x00\n      dup1\n      revert\n    tag_51:\n      pop\n      tag_52\n      0x04\n      dup1\n      calldatasize\n      sub\n      dup2\n      add\n      swap1\n      tag_53\n      swap2\n      swap1\n      tag_54\n      jump\t// in\n    tag_53:\n      tag_55\n      jump\t// in\n    tag_52:\n      mload(0x40)\n      tag_56\n      swap5\n      swap4\n      swap3\n      swap2\n      swap1\n      tag_57\n      jump\t// in\n    tag_56:\n      mload(0x40)\n      dup1\n      swap2\n      sub\n      swap1\n      return\n        /* \"Product.sol\":997:1027  Product[] public storeProducts */\n    tag_11:\n      callvalue\n      dup1\n      iszero\n      tag_58\n      jumpi\n      0x00\n      dup1\n      revert\n    tag_58:\n      pop\n      tag_59\n      0x04\n      dup1\n      calldatasize\n      sub\n      dup2\n      add\n      swap1\n      tag_60\n      swap2\n      swap1\n      tag_17\n      jump\t// in\n    tag_60:\n      tag_61\n      jump\t// in\n    tag_59:\n      mload(0x40)\n      tag_62\n      swap13\n      swap12\n      swap11\n      swap10\n      swap9\n      swap8\n      swap7\n      swap6\n      swap5\n      swap4\n      swap3\n      swap2\n      swap1\n      tag_63\n      jump\t// in\n    tag_62:\n      mload(0x40)\n      dup1\n      swap2\n      sub\n      swap1\n      return\n        /* \"Product.sol\":5306:5512  function productHasArrived(uint purchaseID) public{... */\n    tag_12:\n      callvalue\n      dup1\n      iszero\n      tag_64\n      jumpi\n      0x00\n      dup1\n      revert\n    tag_64:\n      pop\n      tag_65\n      0x04\n      dup1\n      calldatasize\n      sub\n      dup2\n      add\n      swap1\n      tag_66\n      swap2\n      swap1\n      tag_17\n      jump\t// in\n    tag_66:\n      tag_67\n      jump\t// in\n    tag_65:\n      stop\n        /* \"Product.sol\":3475:3773  function getAvgReview(uint index) public view  returns(uint) {... */\n    tag_18:\n        /* \"Product.sol\":3530:3534  uint */\n      0x00\n        /* \"Product.sol\":3546:3569  Product storage product */\n      dup1\n        /* \"Product.sol\":3572:3585  storeProducts */\n      0x00\n        /* \"Product.sol\":3586:3591  index */\n      dup4\n        /* \"Product.sol\":3572:3592  storeProducts[index] */\n      dup2\n      sload\n      dup2\n      lt\n      tag_69\n      jumpi\n      tag_70\n      tag_71\n      jump\t// in\n    tag_70:\n    tag_69:\n      swap1\n      0x00\n      mstore\n      keccak256(0x00, 0x20)\n      swap1\n      0x0f\n      mul\n      add\n        /* \"Product.sol\":3546:3592  Product storage product = storeProducts[index] */\n      swap1\n      pop\n        /* \"Product.sol\":3602:3616  uint starCount */\n      0x00\n        /* \"Product.sol\":3619:3626  product */\n      dup2\n        /* \"Product.sol\":3619:3636  product.starCount */\n      0x07\n      add\n      sload\n        /* \"Product.sol\":3602:3636  uint starCount = product.starCount */\n      swap1\n      pop\n        /* \"Product.sol\":3646:3662  uint reviewCount */\n      0x00\n        /* \"Product.sol\":3665:3672  product */\n      dup3\n        /* \"Product.sol\":3665:3684  product.reviewCount */\n      0x0e\n      add\n      sload\n        /* \"Product.sol\":3646:3684  uint reviewCount = product.reviewCount */\n      swap1\n      pop\n        /* \"Product.sol\":3711:3712  0 */\n      0x00\n        /* \"Product.sol\":3697:3708  reviewCount */\n      dup2\n        /* \"Product.sol\":3697:3712  reviewCount > 0 */\n      gt\n        /* \"Product.sol\":3694:3766  if(reviewCount > 0 ) return starCount/reviewCount;... */\n      iszero\n      tag_73\n      jumpi\n        /* \"Product.sol\":3732:3743  reviewCount */\n      dup1\n        /* \"Product.sol\":3722:3731  starCount */\n      dup3\n        /* \"Product.sol\":3722:3743  starCount/reviewCount */\n      tag_74\n      swap2\n      swap1\n      tag_75\n      jump\t// in\n    tag_74:\n        /* \"Product.sol\":3715:3743  return starCount/reviewCount */\n      swap4\n      pop\n      pop\n      pop\n      pop\n      jump(tag_68)\n        /* \"Product.sol\":3694:3766  if(reviewCount > 0 ) return starCount/reviewCount;... */\n    tag_73:\n        /* \"Product.sol\":3765:3766  0 */\n      0x00\n        /* \"Product.sol\":3758:3766  return 0 */\n      swap4\n      pop\n      pop\n      pop\n      pop\n        /* \"Product.sol\":3475:3773  function getAvgReview(uint index) public view  returns(uint) {... */\n    tag_68:\n      swap2\n      swap1\n      pop\n      jump\t// out\n        /* \"Product.sol\":4841:5298  function returnProduct(uint purchaseID) public checkIfBuyer(purchaseID){... */\n    tag_24:\n        /* \"Product.sol\":4901:4911  purchaseID */\n      dup1\n        /* \"Product.sol\":2226:2240  uint productID */\n      0x00\n        /* \"Product.sol\":2243:2255  allPurchases */\n      0x01\n        /* \"Product.sol\":2256:2266  purchaseID */\n      dup3\n        /* \"Product.sol\":2243:2267  allPurchases[purchaseID] */\n      dup2\n      sload\n      dup2\n      lt\n      tag_78\n      jumpi\n      tag_79\n      tag_71\n      jump\t// in\n    tag_79:\n    tag_78:\n      swap1\n      0x00\n      mstore\n      keccak256(0x00, 0x20)\n      swap1\n      0x03\n      mul\n      add\n        /* \"Product.sol\":2243:2277  allPurchases[purchaseID].productID */\n      0x00\n      add\n      sload\n        /* \"Product.sol\":2226:2277  uint productID = allPurchases[purchaseID].productID */\n      swap1\n      pop\n        /* \"Product.sol\":2295:2308  storeProducts */\n      0x00\n        /* \"Product.sol\":2309:2318  productID */\n      dup2\n        /* \"Product.sol\":2295:2319  storeProducts[productID] */\n      dup2\n      sload\n      dup2\n      lt\n      tag_81\n      jumpi\n      tag_82\n      tag_71\n      jump\t// in\n    tag_82:\n    tag_81:\n      swap1\n      0x00\n      mstore\n      keccak256(0x00, 0x20)\n      swap1\n      0x0f\n      mul\n      add\n        /* \"Product.sol\":2295:2327  storeProducts[productID].isBuyer */\n      0x0c\n      add\n        /* \"Product.sol\":2295:2339  storeProducts[productID].isBuyer[msg.sender] */\n      0x00\n        /* \"Product.sol\":2328:2338  msg.sender */\n      caller\n        /* \"Product.sol\":2295:2339  storeProducts[productID].isBuyer[msg.sender] */\n      0xffffffffffffffffffffffffffffffffffffffff\n      and\n      0xffffffffffffffffffffffffffffffffffffffff\n      and\n      dup2\n      mstore\n      0x20\n      add\n      swap1\n      dup2\n      mstore\n      0x20\n      add\n      0x00\n      keccak256\n      0x00\n      swap1\n      sload\n      swap1\n      0x0100\n      exp\n      swap1\n      div\n      0xff\n      and\n        /* \"Product.sol\":2287:2372  require(storeProducts[productID].isBuyer[msg.sender], 'You did not buy this product') */\n      tag_84\n      jumpi\n      mload(0x40)\n      0x08c379a000000000000000000000000000000000000000000000000000000000\n      dup2\n      mstore\n      0x04\n      add\n      tag_85\n      swap1\n      tag_86\n      jump\t// in\n    tag_85:\n      mload(0x40)\n      dup1\n      swap2\n      sub\n      swap1\n      revert\n    tag_84:\n        /* \"Product.sol\":4921:4935  uint productID */\n      0x00\n        /* \"Product.sol\":4938:4950  allPurchases */\n      0x01\n        /* \"Product.sol\":4951:4961  purchaseID */\n      dup5\n        /* \"Product.sol\":4938:4962  allPurchases[purchaseID] */\n      dup2\n      sload\n      dup2\n      lt\n      tag_88\n      jumpi\n      tag_89\n      tag_71\n      jump\t// in\n    tag_89:\n    tag_88:\n      swap1\n      0x00\n      mstore\n      keccak256(0x00, 0x20)\n      swap1\n      0x03\n      mul\n      add\n        /* \"Product.sol\":4938:4972  allPurchases[purchaseID].productID */\n      0x00\n      add\n      sload\n        /* \"Product.sol\":4921:4972  uint productID = allPurchases[purchaseID].productID */\n      swap1\n      pop\n        /* \"Product.sol\":5046:5052  1 days */\n      0x015180\n        /* \"Product.sol\":5007:5019  allPurchases */\n      0x01\n        /* \"Product.sol\":5020:5030  purchaseID */\n      dup6\n        /* \"Product.sol\":5007:5031  allPurchases[purchaseID] */\n      dup2\n      sload\n      dup2\n      lt\n      tag_91\n      jumpi\n      tag_92\n      tag_71\n      jump\t// in\n    tag_92:\n    tag_91:\n      swap1\n      0x00\n      mstore\n      keccak256(0x00, 0x20)\n      swap1\n      0x03\n      mul\n      add\n        /* \"Product.sol\":5007:5043  allPurchases[purchaseID].timeArrived */\n      0x02\n      add\n      sload\n        /* \"Product.sol\":5007:5052  allPurchases[purchaseID].timeArrived + 1 days */\n      tag_94\n      swap2\n      swap1\n      tag_95\n      jump\t// in\n    tag_94:\n        /* \"Product.sol\":4989:5004  block.timestamp */\n      timestamp\n        /* \"Product.sol\":4989:5052  block.timestamp < allPurchases[purchaseID].timeArrived + 1 days */\n      lt\n        /* \"Product.sol\":4981:5095  require(block.timestamp < allPurchases[purchaseID].timeArrived + 1 days, 'You can\\'t return this product anymore') */\n      tag_96\n      jumpi\n      mload(0x40)\n      0x08c379a000000000000000000000000000000000000000000000000000000000\n      dup2\n      mstore\n      0x04\n      add\n      tag_97\n      swap1\n      tag_98\n      jump\t// in\n    tag_97:\n      mload(0x40)\n      dup1\n      swap2\n      sub\n      swap1\n      revert\n    tag_96:\n        /* \"Product.sol\":5151:5156  false */\n      0x00\n        /* \"Product.sol\":5104:5117  storeProducts */\n      dup1\n        /* \"Product.sol\":5118:5127  productID */\n      dup3\n        /* \"Product.sol\":5104:5128  storeProducts[productID] */\n      dup2\n      sload\n      dup2\n      lt\n      tag_99\n      jumpi\n      tag_100\n      tag_71\n      jump\t// in\n    tag_100:\n    tag_99:\n      swap1\n      0x00\n      mstore\n      keccak256(0x00, 0x20)\n      swap1\n      0x0f\n      mul\n      add\n        /* \"Product.sol\":5104:5136  storeProducts[productID].isBuyer */\n      0x0c\n      add\n        /* \"Product.sol\":5104:5148  storeProducts[productID].isBuyer[msg.sender] */\n      0x00\n        /* \"Product.sol\":5137:5147  msg.sender */\n      caller\n        /* \"Product.sol\":5104:5148  storeProducts[productID].isBuyer[msg.sender] */\n      0xffffffffffffffffffffffffffffffffffffffff\n      and\n      0xffffffffffffffffffffffffffffffffffffffff\n      and\n      dup2\n      mstore\n      0x20\n      add\n      swap1\n      dup2\n      mstore\n      0x20\n      add\n      0x00\n      keccak256\n      0x00\n        /* \"Product.sol\":5104:5156  storeProducts[productID].isBuyer[msg.sender] = false */\n      0x0100\n      exp\n      dup2\n      sload\n      dup2\n      0xff\n      mul\n      not\n      and\n      swap1\n      dup4\n      iszero\n      iszero\n      mul\n      or\n      swap1\n      sstore\n      pop\n        /* \"Product.sol\":5168:5181  storeProducts */\n      0x00\n        /* \"Product.sol\":5182:5191  productID */\n      dup2\n        /* \"Product.sol\":5168:5192  storeProducts[productID] */\n      dup2\n      sload\n      dup2\n      lt\n      tag_102\n      jumpi\n      tag_103\n      tag_71\n      jump\t// in\n    tag_103:\n    tag_102:\n      swap1\n      0x00\n      mstore\n      keccak256(0x00, 0x20)\n      swap1\n      0x0f\n      mul\n      add\n        /* \"Product.sol\":5168:5199  storeProducts[productID].isSold */\n      0x08\n      add\n      0x00\n      swap1\n      sload\n      swap1\n      0x0100\n      exp\n      swap1\n      div\n      0xff\n      and\n        /* \"Product.sol\":5165:5240  if(storeProducts[productID].isSold) storeProducts[productID].isSold = false */\n      iszero\n      tag_105\n      jumpi\n        /* \"Product.sol\":5235:5240  false */\n      0x00\n        /* \"Product.sol\":5201:5214  storeProducts */\n      dup1\n        /* \"Product.sol\":5215:5224  productID */\n      dup3\n        /* \"Product.sol\":5201:5225  storeProducts[productID] */\n      dup2\n      sload\n      dup2\n      lt\n      tag_106\n      jumpi\n      tag_107\n      tag_71\n      jump\t// in\n    tag_107:\n    tag_106:\n      swap1\n      0x00\n      mstore\n      keccak256(0x00, 0x20)\n      swap1\n      0x0f\n      mul\n      add\n        /* \"Product.sol\":5201:5232  storeProducts[productID].isSold */\n      0x08\n      add\n      0x00\n        /* \"Product.sol\":5201:5240  storeProducts[productID].isSold = false */\n      0x0100\n      exp\n      dup2\n      sload\n      dup2\n      0xff\n      mul\n      not\n      and\n      swap1\n      dup4\n      iszero\n      iszero\n      mul\n      or\n      swap1\n      sstore\n      pop\n        /* \"Product.sol\":5165:5240  if(storeProducts[productID].isSold) storeProducts[productID].isSold = false */\n    tag_105:\n        /* \"Product.sol\":5288:5292  true */\n      0x01\n        /* \"Product.sol\":5249:5261  allPurchases */\n      dup1\n        /* \"Product.sol\":5262:5272  purchaseID */\n      dup6\n        /* \"Product.sol\":5249:5273  allPurchases[purchaseID] */\n      dup2\n      sload\n      dup2\n      lt\n      tag_109\n      jumpi\n      tag_110\n      tag_71\n      jump\t// in\n    tag_110:\n    tag_109:\n      swap1\n      0x00\n      mstore\n      keccak256(0x00, 0x20)\n      swap1\n      0x03\n      mul\n      add\n        /* \"Product.sol\":5249:5285  allPurchases[purchaseID].hasReturned */\n      0x01\n      add\n      0x15\n        /* \"Product.sol\":5249:5292  allPurchases[purchaseID].hasReturned = true */\n      0x0100\n      exp\n      dup2\n      sload\n      dup2\n      0xff\n      mul\n      not\n      and\n      swap1\n      dup4\n      iszero\n      iszero\n      mul\n      or\n      swap1\n      sstore\n      pop\n        /* \"Product.sol\":4912:5298  {... */\n      pop\n        /* \"Product.sol\":2216:2390  {... */\n      pop\n        /* \"Product.sol\":4841:5298  function returnProduct(uint purchaseID) public checkIfBuyer(purchaseID){... */\n      pop\n      pop\n      jump\t// out\n        /* \"Product.sol\":2400:3001  function addReview(uint index, string memory firstName, string memory lastName, string memory opinion, uint8 stars) public  checkIfBuyer(index){... */\n    tag_29:\n        /* \"Product.sol\":2537:2542  index */\n      dup5\n        /* \"Product.sol\":2226:2240  uint productID */\n      0x00\n        /* \"Product.sol\":2243:2255  allPurchases */\n      0x01\n        /* \"Product.sol\":2256:2266  purchaseID */\n      dup3\n        /* \"Product.sol\":2243:2267  allPurchases[purchaseID] */\n      dup2\n      sload\n      dup2\n      lt\n      tag_113\n      jumpi\n      tag_114\n      tag_71\n      jump\t// in\n    tag_114:\n    tag_113:\n      swap1\n      0x00\n      mstore\n      keccak256(0x00, 0x20)\n      swap1\n      0x03\n      mul\n      add\n        /* \"Product.sol\":2243:2277  allPurchases[purchaseID].productID */\n      0x00\n      add\n      sload\n        /* \"Product.sol\":2226:2277  uint productID = allPurchases[purchaseID].productID */\n      swap1\n      pop\n        /* \"Product.sol\":2295:2308  storeProducts */\n      0x00\n        /* \"Product.sol\":2309:2318  productID */\n      dup2\n        /* \"Product.sol\":2295:2319  storeProducts[productID] */\n      dup2\n      sload\n      dup2\n      lt\n      tag_116\n      jumpi\n      tag_117\n      tag_71\n      jump\t// in\n    tag_117:\n    tag_116:\n      swap1\n      0x00\n      mstore\n      keccak256(0x00, 0x20)\n      swap1\n      0x0f\n      mul\n      add\n        /* \"Product.sol\":2295:2327  storeProducts[productID].isBuyer */\n      0x0c\n      add\n        /* \"Product.sol\":2295:2339  storeProducts[productID].isBuyer[msg.sender] */\n      0x00\n        /* \"Product.sol\":2328:2338  msg.sender */\n      caller\n        /* \"Product.sol\":2295:2339  storeProducts[productID].isBuyer[msg.sender] */\n      0xffffffffffffffffffffffffffffffffffffffff\n      and\n      0xffffffffffffffffffffffffffffffffffffffff\n      and\n      dup2\n      mstore\n      0x20\n      add\n      swap1\n      dup2\n      mstore\n      0x20\n      add\n      0x00\n      keccak256\n      0x00\n      swap1\n      sload\n      swap1\n      0x0100\n      exp\n      swap1\n      div\n      0xff\n      and\n        /* \"Product.sol\":2287:2372  require(storeProducts[productID].isBuyer[msg.sender], 'You did not buy this product') */\n      tag_119\n      jumpi\n      mload(0x40)\n      0x08c379a000000000000000000000000000000000000000000000000000000000\n      dup2\n      mstore\n      0x04\n      add\n      tag_120\n      swap1\n      tag_86\n      jump\t// in\n    tag_120:\n      mload(0x40)\n      dup1\n      swap2\n      sub\n      swap1\n      revert\n    tag_119:\n        /* \"Product.sol\":2562:2588  Product storage newProduct */\n      0x00\n        /* \"Product.sol\":2591:2604  storeProducts */\n      dup1\n        /* \"Product.sol\":2605:2610  index */\n      dup9\n        /* \"Product.sol\":2591:2611  storeProducts[index] */\n      dup2\n      sload\n      dup2\n      lt\n      tag_122\n      jumpi\n      tag_123\n      tag_71\n      jump\t// in\n    tag_123:\n    tag_122:\n      swap1\n      0x00\n      mstore\n      keccak256(0x00, 0x20)\n      swap1\n      0x0f\n      mul\n      add\n        /* \"Product.sol\":2562:2611  Product storage newProduct = storeProducts[index] */\n      swap1\n      pop\n        /* \"Product.sol\":2687:2696  firstName */\n      dup7\n        /* \"Product.sol\":2621:2631  newProduct */\n      dup2\n        /* \"Product.sol\":2621:2642  newProduct.allReviews */\n      0x0d\n      add\n        /* \"Product.sol\":2621:2666  newProduct.allReviews[newProduct.reviewCount] */\n      0x00\n        /* \"Product.sol\":2643:2653  newProduct */\n      dup4\n        /* \"Product.sol\":2643:2665  newProduct.reviewCount */\n      0x0e\n      add\n      sload\n        /* \"Product.sol\":2621:2666  newProduct.allReviews[newProduct.reviewCount] */\n      dup2\n      mstore\n      0x20\n      add\n      swap1\n      dup2\n      mstore\n      0x20\n      add\n      0x00\n      keccak256\n        /* \"Product.sol\":2621:2684  newProduct.allReviews[newProduct.reviewCount].reviewerFirstName */\n      0x00\n      add\n        /* \"Product.sol\":2621:2696  newProduct.allReviews[newProduct.reviewCount].reviewerFirstName = firstName */\n      swap1\n      dup1\n      mload\n      swap1\n      0x20\n      add\n      swap1\n      tag_125\n      swap3\n      swap2\n      swap1\n      tag_126\n      jump\t// in\n    tag_125:\n      pop\n        /* \"Product.sol\":2771:2779  lastName */\n      dup6\n        /* \"Product.sol\":2706:2716  newProduct */\n      dup2\n        /* \"Product.sol\":2706:2727  newProduct.allReviews */\n      0x0d\n      add\n        /* \"Product.sol\":2706:2751  newProduct.allReviews[newProduct.reviewCount] */\n      0x00\n        /* \"Product.sol\":2728:2738  newProduct */\n      dup4\n        /* \"Product.sol\":2728:2750  newProduct.reviewCount */\n      0x0e\n      add\n      sload\n        /* \"Product.sol\":2706:2751  newProduct.allReviews[newProduct.reviewCount] */\n      dup2\n      mstore\n      0x20\n      add\n      swap1\n      dup2\n      mstore\n      0x20\n      add\n      0x00\n      keccak256\n        /* \"Product.sol\":2706:2768  newProduct.allReviews[newProduct.reviewCount].reviewerLastName */\n      0x01\n      add\n        /* \"Product.sol\":2706:2779  newProduct.allReviews[newProduct.reviewCount].reviewerLastName = lastName */\n      swap1\n      dup1\n      mload\n      swap1\n      0x20\n      add\n      swap1\n      tag_127\n      swap3\n      swap2\n      swap1\n      tag_126\n      jump\t// in\n    tag_127:\n      pop\n        /* \"Product.sol\":2843:2848  stars */\n      dup4\n        /* \"Product.sol\":2789:2799  newProduct */\n      dup2\n        /* \"Product.sol\":2789:2810  newProduct.allReviews */\n      0x0d\n      add\n        /* \"Product.sol\":2789:2834  newProduct.allReviews[newProduct.reviewCount] */\n      0x00\n        /* \"Product.sol\":2811:2821  newProduct */\n      dup4\n        /* \"Product.sol\":2811:2833  newProduct.reviewCount */\n      0x0e\n      add\n      sload\n        /* \"Product.sol\":2789:2834  newProduct.allReviews[newProduct.reviewCount] */\n      dup2\n      mstore\n      0x20\n      add\n      swap1\n      dup2\n      mstore\n      0x20\n      add\n      0x00\n      keccak256\n        /* \"Product.sol\":2789:2840  newProduct.allReviews[newProduct.reviewCount].stars */\n      0x02\n      add\n      0x00\n        /* \"Product.sol\":2789:2848  newProduct.allReviews[newProduct.reviewCount].stars = stars */\n      0x0100\n      exp\n      dup2\n      sload\n      dup2\n      0xff\n      mul\n      not\n      and\n      swap1\n      dup4\n      0xff\n      and\n      mul\n      or\n      swap1\n      sstore\n      pop\n        /* \"Product.sol\":2914:2921  opinion */\n      dup5\n        /* \"Product.sol\":2858:2868  newProduct */\n      dup2\n        /* \"Product.sol\":2858:2879  newProduct.allReviews */\n      0x0d\n      add\n        /* \"Product.sol\":2858:2903  newProduct.allReviews[newProduct.reviewCount] */\n      0x00\n        /* \"Product.sol\":2880:2890  newProduct */\n      dup4\n        /* \"Product.sol\":2880:2902  newProduct.reviewCount */\n      0x0e\n      add\n      sload\n        /* \"Product.sol\":2858:2903  newProduct.allReviews[newProduct.reviewCount] */\n      dup2\n      mstore\n      0x20\n      add\n      swap1\n      dup2\n      mstore\n      0x20\n      add\n      0x00\n      keccak256\n        /* \"Product.sol\":2858:2911  newProduct.allReviews[newProduct.reviewCount].opinion */\n      0x03\n      add\n        /* \"Product.sol\":2858:2921  newProduct.allReviews[newProduct.reviewCount].opinion = opinion */\n      swap1\n      dup1\n      mload\n      swap1\n      0x20\n      add\n      swap1\n      tag_128\n      swap3\n      swap2\n      swap1\n      tag_126\n      jump\t// in\n    tag_128:\n      pop\n        /* \"Product.sol\":2931:2941  newProduct */\n      dup1\n        /* \"Product.sol\":2931:2953  newProduct.reviewCount */\n      0x0e\n      add\n      0x00\n        /* \"Product.sol\":2931:2955  newProduct.reviewCount++ */\n      dup2\n      sload\n      dup1\n      swap3\n      swap2\n      swap1\n      tag_129\n      swap1\n      tag_130\n      jump\t// in\n    tag_129:\n      swap2\n      swap1\n      pop\n      sstore\n      pop\n        /* \"Product.sol\":2989:2994  stars */\n      dup4\n        /* \"Product.sol\":2965:2994  newProduct.starCount += stars */\n      0xff\n      and\n        /* \"Product.sol\":2965:2975  newProduct */\n      dup2\n        /* \"Product.sol\":2965:2985  newProduct.starCount */\n      0x07\n      add\n      0x00\n        /* \"Product.sol\":2965:2994  newProduct.starCount += stars */\n      dup3\n      dup3\n      sload\n      tag_131\n      swap2\n      swap1\n      tag_95\n      jump\t// in\n    tag_131:\n      swap3\n      pop\n      pop\n      dup2\n      swap1\n      sstore\n      pop\n        /* \"Product.sol\":2543:3001  {... */\n      pop\n        /* \"Product.sol\":2216:2390  {... */\n      pop\n        /* \"Product.sol\":2400:3001  function addReview(uint index, string memory firstName, string memory lastName, string memory opinion, uint8 stars) public  checkIfBuyer(index){... */\n      pop\n      pop\n      pop\n      pop\n      pop\n      pop\n      jump\t// out\n        /* \"Product.sol\":3783:4341  function buyProduct(uint productID) public payable{... */\n    tag_32:\n        /* \"Product.sol\":3864:3877  storeProducts */\n      0x00\n        /* \"Product.sol\":3878:3887  productID */\n      dup2\n        /* \"Product.sol\":3864:3888  storeProducts[productID] */\n      dup2\n      sload\n      dup2\n      lt\n      tag_133\n      jumpi\n      tag_134\n      tag_71\n      jump\t// in\n    tag_134:\n    tag_133:\n      swap1\n      0x00\n      mstore\n      keccak256(0x00, 0x20)\n      swap1\n      0x0f\n      mul\n      add\n        /* \"Product.sol\":3864:3894  storeProducts[productID].price */\n      0x05\n      add\n      sload\n        /* \"Product.sol\":3851:3860  msg.value */\n      callvalue\n        /* \"Product.sol\":3851:3894  msg.value == storeProducts[productID].price */\n      eq\n        /* \"Product.sol\":3843:3950  require(msg.value == storeProducts[productID].price, 'The money you sent is not equal to the price listed') */\n      tag_136\n      jumpi\n      mload(0x40)\n      0x08c379a000000000000000000000000000000000000000000000000000000000\n      dup2\n      mstore\n      0x04\n      add\n      tag_137\n      swap1\n      tag_138\n      jump\t// in\n    tag_137:\n      mload(0x40)\n      dup1\n      swap2\n      sub\n      swap1\n      revert\n    tag_136:\n        /* \"Product.sol\":3969:3982  storeProducts */\n      0x00\n        /* \"Product.sol\":3983:3992  productID */\n      dup2\n        /* \"Product.sol\":3969:3993  storeProducts[productID] */\n      dup2\n      sload\n      dup2\n      lt\n      tag_139\n      jumpi\n      tag_140\n      tag_71\n      jump\t// in\n    tag_140:\n    tag_139:\n      swap1\n      0x00\n      mstore\n      keccak256(0x00, 0x20)\n      swap1\n      0x0f\n      mul\n      add\n        /* \"Product.sol\":3969:4000  storeProducts[productID].isSold */\n      0x08\n      add\n      0x00\n      swap1\n      sload\n      swap1\n      0x0100\n      exp\n      swap1\n      div\n      0xff\n      and\n        /* \"Product.sol\":3968:4000  !storeProducts[productID].isSold */\n      iszero\n        /* \"Product.sol\":3960:4022  require(!storeProducts[productID].isSold,'It\\'s out of stock') */\n      tag_142\n      jumpi\n      mload(0x40)\n      0x08c379a000000000000000000000000000000000000000000000000000000000\n      dup2\n      mstore\n      0x04\n      add\n      tag_143\n      swap1\n      tag_144\n      jump\t// in\n    tag_143:\n      mload(0x40)\n      dup1\n      swap2\n      sub\n      swap1\n      revert\n    tag_142:\n        /* \"Product.sol\":4103:4113  msg.sender */\n      caller\n        /* \"Product.sol\":4032:4045  storeProducts */\n      0x00\n        /* \"Product.sol\":4046:4055  productID */\n      dup3\n        /* \"Product.sol\":4032:4056  storeProducts[productID] */\n      dup2\n      sload\n      dup2\n      lt\n      tag_145\n      jumpi\n      tag_146\n      tag_71\n      jump\t// in\n    tag_146:\n    tag_145:\n      swap1\n      0x00\n      mstore\n      keccak256(0x00, 0x20)\n      swap1\n      0x0f\n      mul\n      add\n        /* \"Product.sol\":4032:4063  storeProducts[productID].Buyers */\n      0x0a\n      add\n        /* \"Product.sol\":4032:4100  storeProducts[productID].Buyers[storeProducts[productID].buyerCount] */\n      0x00\n        /* \"Product.sol\":4064:4077  storeProducts */\n      dup1\n        /* \"Product.sol\":4078:4087  productID */\n      dup5\n        /* \"Product.sol\":4064:4088  storeProducts[productID] */\n      dup2\n      sload\n      dup2\n      lt\n      tag_148\n      jumpi\n      tag_149\n      tag_71\n      jump\t// in\n    tag_149:\n    tag_148:\n      swap1\n      0x00\n      mstore\n      keccak256(0x00, 0x20)\n      swap1\n      0x0f\n      mul\n      add\n        /* \"Product.sol\":4064:4099  storeProducts[productID].buyerCount */\n      0x0b\n      add\n      sload\n        /* \"Product.sol\":4032:4100  storeProducts[productID].Buyers[storeProducts[productID].buyerCount] */\n      dup2\n      mstore\n      0x20\n      add\n      swap1\n      dup2\n      mstore\n      0x20\n      add\n      0x00\n      keccak256\n      0x00\n        /* \"Product.sol\":4032:4113  storeProducts[productID].Buyers[storeProducts[productID].buyerCount] = msg.sender */\n      0x0100\n      exp\n      dup2\n      sload\n      dup2\n      0xffffffffffffffffffffffffffffffffffffffff\n      mul\n      not\n      and\n      swap1\n      dup4\n      0xffffffffffffffffffffffffffffffffffffffff\n      and\n      mul\n      or\n      swap1\n      sstore\n      pop\n        /* \"Product.sol\":4123:4136  storeProducts */\n      0x00\n        /* \"Product.sol\":4137:4146  productID */\n      dup2\n        /* \"Product.sol\":4123:4147  storeProducts[productID] */\n      dup2\n      sload\n      dup2\n      lt\n      tag_151\n      jumpi\n      tag_152\n      tag_71\n      jump\t// in\n    tag_152:\n    tag_151:\n      swap1\n      0x00\n      mstore\n      keccak256(0x00, 0x20)\n      swap1\n      0x0f\n      mul\n      add\n        /* \"Product.sol\":4123:4156  storeProducts[productID].quantity */\n      0x09\n      add\n      0x00\n        /* \"Product.sol\":4123:4158  storeProducts[productID].quantity-- */\n      dup2\n      sload\n      dup1\n      swap3\n      swap2\n      swap1\n      tag_154\n      swap1\n      tag_155\n      jump\t// in\n    tag_154:\n      swap2\n      swap1\n      pop\n      sstore\n      pop\n        /* \"Product.sol\":4215:4219  true */\n      0x01\n        /* \"Product.sol\":4168:4181  storeProducts */\n      0x00\n        /* \"Product.sol\":4182:4191  productID */\n      dup3\n        /* \"Product.sol\":4168:4192  storeProducts[productID] */\n      dup2\n      sload\n      dup2\n      lt\n      tag_156\n      jumpi\n      tag_157\n      tag_71\n      jump\t// in\n    tag_157:\n    tag_156:\n      swap1\n      0x00\n      mstore\n      keccak256(0x00, 0x20)\n      swap1\n      0x0f\n      mul\n      add\n        /* \"Product.sol\":4168:4200  storeProducts[productID].isBuyer */\n      0x0c\n      add\n        /* \"Product.sol\":4168:4212  storeProducts[productID].isBuyer[msg.sender] */\n      0x00\n        /* \"Product.sol\":4201:4211  msg.sender */\n      caller\n        /* \"Product.sol\":4168:4212  storeProducts[productID].isBuyer[msg.sender] */\n      0xffffffffffffffffffffffffffffffffffffffff\n      and\n      0xffffffffffffffffffffffffffffffffffffffff\n      and\n      dup2\n      mstore\n      0x20\n      add\n      swap1\n      dup2\n      mstore\n      0x20\n      add\n      0x00\n      keccak256\n      0x00\n        /* \"Product.sol\":4168:4219  storeProducts[productID].isBuyer[msg.sender] = true */\n      0x0100\n      exp\n      dup2\n      sload\n      dup2\n      0xff\n      mul\n      not\n      and\n      swap1\n      dup4\n      iszero\n      iszero\n      mul\n      or\n      swap1\n      sstore\n      pop\n        /* \"Product.sol\":4230:4243  storeProducts */\n      0x00\n        /* \"Product.sol\":4244:4253  productID */\n      dup2\n        /* \"Product.sol\":4230:4254  storeProducts[productID] */\n      dup2\n      sload\n      dup2\n      lt\n      tag_159\n      jumpi\n      tag_160\n      tag_71\n      jump\t// in\n    tag_160:\n    tag_159:\n      swap1\n      0x00\n      mstore\n      keccak256(0x00, 0x20)\n      swap1\n      0x0f\n      mul\n      add\n        /* \"Product.sol\":4230:4265  storeProducts[productID].buyerCount */\n      0x0b\n      add\n      0x00\n        /* \"Product.sol\":4230:4267  storeProducts[productID].buyerCount++ */\n      dup2\n      sload\n      dup1\n      swap3\n      swap2\n      swap1\n      tag_162\n      swap1\n      tag_130\n      jump\t// in\n    tag_162:\n      swap2\n      swap1\n      pop\n      sstore\n      pop\n        /* \"Product.sol\":4277:4302  checkIfSoldOut(productID) */\n      tag_163\n        /* \"Product.sol\":4292:4301  productID */\n      dup2\n        /* \"Product.sol\":4277:4291  checkIfSoldOut */\n      tag_164\n        /* \"Product.sol\":4277:4302  checkIfSoldOut(productID) */\n      jump\t// in\n    tag_163:\n        /* \"Product.sol\":4312:4334  addPurchase(productID) */\n      tag_165\n        /* \"Product.sol\":4324:4333  productID */\n      dup2\n        /* \"Product.sol\":4312:4323  addPurchase */\n      tag_166\n        /* \"Product.sol\":4312:4334  addPurchase(productID) */\n      jump\t// in\n    tag_165:\n        /* \"Product.sol\":3783:4341  function buyProduct(uint productID) public payable{... */\n      pop\n      jump\t// out\n        /* \"Product.sol\":1032:1066  Purchasement[] public allPurchases */\n    tag_36:\n      0x01\n      dup2\n      dup2\n      sload\n      dup2\n      lt\n      tag_167\n      jumpi\n      0x00\n      dup1\n      revert\n    tag_167:\n      swap1\n      0x00\n      mstore\n      keccak256(0x00, 0x20)\n      swap1\n      0x03\n      mul\n      add\n      0x00\n      swap2\n      pop\n      swap1\n      pop\n      dup1\n      0x00\n      add\n      sload\n      swap1\n      dup1\n      0x01\n      add\n      0x00\n      swap1\n      sload\n      swap1\n      0x0100\n      exp\n      swap1\n      div\n      0xffffffffffffffffffffffffffffffffffffffff\n      and\n      swap1\n      dup1\n      0x01\n      add\n      0x14\n      swap1\n      sload\n      swap1\n      0x0100\n      exp\n      swap1\n      div\n      0xff\n      and\n      swap1\n      dup1\n      0x01\n      add\n      0x15\n      swap1\n      sload\n      swap1\n      0x0100\n      exp\n      swap1\n      div\n      0xff\n      and\n      swap1\n      dup1\n      0x02\n      add\n      sload\n      swap1\n      pop\n      dup6\n      jump\t// out\n        /* \"Product.sol\":1174:1770  function createProduct(string memory name, string memory descripion, string memory category, uint price, uint quantity,string memory photoHash)  public{... */\n    tag_43:\n        /* \"Product.sol\":1335:1361  Product storage newProduct */\n      0x00\n        /* \"Product.sol\":1363:1376  storeProducts */\n      dup1\n        /* \"Product.sol\":1363:1383  storeProducts.push() */\n      0x01\n      dup2\n      0x01\n      dup2\n      sload\n      add\n      dup1\n      dup3\n      sstore\n      dup1\n      swap2\n      pop\n      pop\n      sub\n      swap1\n      0x00\n      mstore\n      keccak256(0x00, 0x20)\n      swap1\n      0x0f\n      mul\n      add\n        /* \"Product.sol\":1335:1383  Product storage newProduct= storeProducts.push() */\n      swap1\n      pop\n        /* \"Product.sol\":1424:1434  msg.sender */\n      caller\n        /* \"Product.sol\":1393:1403  newProduct */\n      dup2\n        /* \"Product.sol\":1393:1413  newProduct.publisher */\n      0x01\n      add\n      0x00\n        /* \"Product.sol\":1393:1435  newProduct.publisher = payable(msg.sender) */\n      0x0100\n      exp\n      dup2\n      sload\n      dup2\n      0xffffffffffffffffffffffffffffffffffffffff\n      mul\n      not\n      and\n      swap1\n      dup4\n      0xffffffffffffffffffffffffffffffffffffffff\n      and\n      mul\n      or\n      swap1\n      sstore\n      pop\n        /* \"Product.sol\":1463:1467  name */\n      dup7\n        /* \"Product.sol\":1445:1455  newProduct */\n      dup2\n        /* \"Product.sol\":1445:1460  newProduct.name */\n      0x02\n      add\n        /* \"Product.sol\":1445:1467  newProduct.name = name */\n      swap1\n      dup1\n      mload\n      swap1\n      0x20\n      add\n      swap1\n      tag_171\n      swap3\n      swap2\n      swap1\n      tag_126\n      jump\t// in\n    tag_171:\n      pop\n        /* \"Product.sol\":1501:1511  descripion */\n      dup6\n        /* \"Product.sol\":1477:1487  newProduct */\n      dup2\n        /* \"Product.sol\":1477:1498  newProduct.descripion */\n      0x03\n      add\n        /* \"Product.sol\":1477:1511  newProduct.descripion = descripion */\n      swap1\n      dup1\n      mload\n      swap1\n      0x20\n      add\n      swap1\n      tag_172\n      swap3\n      swap2\n      swap1\n      tag_126\n      jump\t// in\n    tag_172:\n      pop\n        /* \"Product.sol\":1543:1551  category */\n      dup5\n        /* \"Product.sol\":1521:1531  newProduct */\n      dup2\n        /* \"Product.sol\":1521:1540  newProduct.category */\n      0x04\n      add\n        /* \"Product.sol\":1521:1551  newProduct.category = category */\n      swap1\n      dup1\n      mload\n      swap1\n      0x20\n      add\n      swap1\n      tag_173\n      swap3\n      swap2\n      swap1\n      tag_126\n      jump\t// in\n    tag_173:\n      pop\n        /* \"Product.sol\":1580:1585  price */\n      dup4\n        /* \"Product.sol\":1561:1571  newProduct */\n      dup2\n        /* \"Product.sol\":1561:1577  newProduct.price */\n      0x05\n      add\n        /* \"Product.sol\":1561:1585  newProduct.price = price */\n      dup2\n      swap1\n      sstore\n      pop\n        /* \"Product.sol\":1641:1642  1 */\n      0x01\n        /* \"Product.sol\":1618:1631  storeProducts */\n      0x00\n        /* \"Product.sol\":1618:1638  storeProducts.length */\n      dup1\n      sload\n      swap1\n      pop\n        /* \"Product.sol\":1618:1642  storeProducts.length - 1 */\n      tag_174\n      swap2\n      swap1\n      tag_175\n      jump\t// in\n    tag_174:\n        /* \"Product.sol\":1595:1605  newProduct */\n      dup2\n        /* \"Product.sol\":1595:1615  newProduct.productID */\n      0x00\n      add\n        /* \"Product.sol\":1595:1642  newProduct.productID = storeProducts.length - 1 */\n      dup2\n      swap1\n      sstore\n      pop\n        /* \"Product.sol\":1674:1682  quantity */\n      dup3\n        /* \"Product.sol\":1652:1662  newProduct */\n      dup2\n        /* \"Product.sol\":1652:1671  newProduct.quantity */\n      0x09\n      add\n        /* \"Product.sol\":1652:1682  newProduct.quantity = quantity */\n      dup2\n      swap1\n      sstore\n      pop\n        /* \"Product.sol\":1711:1720  photoHash */\n      dup2\n        /* \"Product.sol\":1692:1702  newProduct */\n      dup2\n        /* \"Product.sol\":1692:1708  newProduct.photo */\n      0x06\n      add\n        /* \"Product.sol\":1692:1720  newProduct.photo = photoHash */\n      swap1\n      dup1\n      mload\n      swap1\n      0x20\n      add\n      swap1\n      tag_176\n      swap3\n      swap2\n      swap1\n      tag_126\n      jump\t// in\n    tag_176:\n      pop\n        /* \"Product.sol\":1753:1754  0 */\n      0x00\n        /* \"Product.sol\":1730:1740  newProduct */\n      dup2\n        /* \"Product.sol\":1730:1750  newProduct.starCount */\n      0x07\n      add\n        /* \"Product.sol\":1730:1754  newProduct.starCount = 0 */\n      dup2\n      swap1\n      sstore\n      pop\n        /* \"Product.sol\":1325:1770  {... */\n      pop\n        /* \"Product.sol\":1174:1770  function createProduct(string memory name, string memory descripion, string memory category, uint price, uint quantity,string memory photoHash)  public{... */\n      pop\n      pop\n      pop\n      pop\n      pop\n      pop\n      jump\t// out\n        /* \"Product.sol\":4361:4650  function confirmOwnerShip(uint purchaseID) public payable checkIfBuyer(purchaseID) {... */\n    tag_46:\n        /* \"Product.sol\":4432:4442  purchaseID */\n      dup1\n        /* \"Product.sol\":2226:2240  uint productID */\n      0x00\n        /* \"Product.sol\":2243:2255  allPurchases */\n      0x01\n        /* \"Product.sol\":2256:2266  purchaseID */\n      dup3\n        /* \"Product.sol\":2243:2267  allPurchases[purchaseID] */\n      dup2\n      sload\n      dup2\n      lt\n      tag_178\n      jumpi\n      tag_179\n      tag_71\n      jump\t// in\n    tag_179:\n    tag_178:\n      swap1\n      0x00\n      mstore\n      keccak256(0x00, 0x20)\n      swap1\n      0x03\n      mul\n      add\n        /* \"Product.sol\":2243:2277  allPurchases[purchaseID].productID */\n      0x00\n      add\n      sload\n        /* \"Product.sol\":2226:2277  uint productID = allPurchases[purchaseID].productID */\n      swap1\n      pop\n        /* \"Product.sol\":2295:2308  storeProducts */\n      0x00\n        /* \"Product.sol\":2309:2318  productID */\n      dup2\n        /* \"Product.sol\":2295:2319  storeProducts[productID] */\n      dup2\n      sload\n      dup2\n      lt\n      tag_181\n      jumpi\n      tag_182\n      tag_71\n      jump\t// in\n    tag_182:\n    tag_181:\n      swap1\n      0x00\n      mstore\n      keccak256(0x00, 0x20)\n      swap1\n      0x0f\n      mul\n      add\n        /* \"Product.sol\":2295:2327  storeProducts[productID].isBuyer */\n      0x0c\n      add\n        /* \"Product.sol\":2295:2339  storeProducts[productID].isBuyer[msg.sender] */\n      0x00\n        /* \"Product.sol\":2328:2338  msg.sender */\n      caller\n        /* \"Product.sol\":2295:2339  storeProducts[productID].isBuyer[msg.sender] */\n      0xffffffffffffffffffffffffffffffffffffffff\n      and\n      0xffffffffffffffffffffffffffffffffffffffff\n      and\n      dup2\n      mstore\n      0x20\n      add\n      swap1\n      dup2\n      mstore\n      0x20\n      add\n      0x00\n      keccak256\n      0x00\n      swap1\n      sload\n      swap1\n      0x0100\n      exp\n      swap1\n      div\n      0xff\n      and\n        /* \"Product.sol\":2287:2372  require(storeProducts[productID].isBuyer[msg.sender], 'You did not buy this product') */\n      tag_184\n      jumpi\n      mload(0x40)\n      0x08c379a000000000000000000000000000000000000000000000000000000000\n      dup2\n      mstore\n      0x04\n      add\n      tag_185\n      swap1\n      tag_86\n      jump\t// in\n    tag_185:\n      mload(0x40)\n      dup1\n      swap2\n      sub\n      swap1\n      revert\n    tag_184:\n        /* \"Product.sol\":4454:4468  uint productID */\n      0x00\n        /* \"Product.sol\":4471:4483  allPurchases */\n      0x01\n        /* \"Product.sol\":4484:4494  purchaseID */\n      dup5\n        /* \"Product.sol\":4471:4495  allPurchases[purchaseID] */\n      dup2\n      sload\n      dup2\n      lt\n      tag_187\n      jumpi\n      tag_188\n      tag_71\n      jump\t// in\n    tag_188:\n    tag_187:\n      swap1\n      0x00\n      mstore\n      keccak256(0x00, 0x20)\n      swap1\n      0x03\n      mul\n      add\n        /* \"Product.sol\":4471:4505  allPurchases[purchaseID].productID */\n      0x00\n      add\n      sload\n        /* \"Product.sol\":4454:4505  uint productID = allPurchases[purchaseID].productID */\n      swap1\n      pop\n        /* \"Product.sol\":4515:4528  storeProducts */\n      0x00\n        /* \"Product.sol\":4529:4538  productID */\n      dup2\n        /* \"Product.sol\":4515:4539  storeProducts[productID] */\n      dup2\n      sload\n      dup2\n      lt\n      tag_190\n      jumpi\n      tag_191\n      tag_71\n      jump\t// in\n    tag_191:\n    tag_190:\n      swap1\n      0x00\n      mstore\n      keccak256(0x00, 0x20)\n      swap1\n      0x0f\n      mul\n      add\n        /* \"Product.sol\":4515:4549  storeProducts[productID].publisher */\n      0x01\n      add\n      0x00\n      swap1\n      sload\n      swap1\n      0x0100\n      exp\n      swap1\n      div\n      0xffffffffffffffffffffffffffffffffffffffff\n      and\n        /* \"Product.sol\":4515:4558  storeProducts[productID].publisher.transfer */\n      0xffffffffffffffffffffffffffffffffffffffff\n      and\n        /* \"Product.sol\":4515:4590  storeProducts[productID].publisher.transfer(storeProducts[productID].price) */\n      0x08fc\n        /* \"Product.sol\":4559:4572  storeProducts */\n      0x00\n        /* \"Product.sol\":4573:4582  productID */\n      dup4\n        /* \"Product.sol\":4559:4583  storeProducts[productID] */\n      dup2\n      sload\n      dup2\n      lt\n      tag_193\n      jumpi\n      tag_194\n      tag_71\n      jump\t// in\n    tag_194:\n    tag_193:\n      swap1\n      0x00\n      mstore\n      keccak256(0x00, 0x20)\n      swap1\n      0x0f\n      mul\n      add\n        /* \"Product.sol\":4559:4589  storeProducts[productID].price */\n      0x05\n      add\n      sload\n        /* \"Product.sol\":4515:4590  storeProducts[productID].publisher.transfer(storeProducts[productID].price) */\n      swap1\n      dup2\n      iszero\n      mul\n      swap1\n      mload(0x40)\n      0x00\n      mload(0x40)\n      dup1\n      dup4\n      sub\n      dup2\n      dup6\n      dup9\n      dup9\n      call\n      swap4\n      pop\n      pop\n      pop\n      pop\n      iszero\n      dup1\n      iszero\n      tag_197\n      jumpi\n      returndatasize\n      0x00\n      dup1\n      returndatacopy\n      revert(0x00, returndatasize)\n    tag_197:\n      pop\n        /* \"Product.sol\":4639:4643  true */\n      0x01\n        /* \"Product.sol\":4600:4612  allPurchases */\n      dup1\n        /* \"Product.sol\":4613:4623  purchaseID */\n      dup6\n        /* \"Product.sol\":4600:4624  allPurchases[purchaseID] */\n      dup2\n      sload\n      dup2\n      lt\n      tag_198\n      jumpi\n      tag_199\n      tag_71\n      jump\t// in\n    tag_199:\n    tag_198:\n      swap1\n      0x00\n      mstore\n      keccak256(0x00, 0x20)\n      swap1\n      0x03\n      mul\n      add\n        /* \"Product.sol\":4600:4636  allPurchases[purchaseID].isCompleted */\n      0x01\n      add\n      0x14\n        /* \"Product.sol\":4600:4643  allPurchases[purchaseID].isCompleted = true */\n      0x0100\n      exp\n      dup2\n      sload\n      dup2\n      0xff\n      mul\n      not\n      and\n      swap1\n      dup4\n      iszero\n      iszero\n      mul\n      or\n      swap1\n      sstore\n      pop\n        /* \"Product.sol\":4444:4650  {... */\n      pop\n        /* \"Product.sol\":2216:2390  {... */\n      pop\n        /* \"Product.sol\":4361:4650  function confirmOwnerShip(uint purchaseID) public payable checkIfBuyer(purchaseID) {... */\n      pop\n      pop\n      jump\t// out\n        /* \"Product.sol\":1780:1881  function storeProductsLength() public view returns(uint) {... */\n    tag_49:\n        /* \"Product.sol\":1831:1835  uint */\n      0x00\n        /* \"Product.sol\":1854:1867  storeProducts */\n      dup1\n        /* \"Product.sol\":1854:1874  storeProducts.length */\n      dup1\n      sload\n      swap1\n      pop\n        /* \"Product.sol\":1847:1874  return storeProducts.length */\n      swap1\n      pop\n        /* \"Product.sol\":1780:1881  function storeProductsLength() public view returns(uint) {... */\n      swap1\n      jump\t// out\n        /* \"Product.sol\":3011:3465  function getReview(uint  index, uint review) public view  returns (string memory, string memory,  uint8 , string memory) {... */\n    tag_55:\n        /* \"Product.sol\":3078:3091  string memory */\n      0x60\n        /* \"Product.sol\":3093:3106  string memory */\n      dup1\n        /* \"Product.sol\":3109:3114  uint8 */\n      0x00\n        /* \"Product.sol\":3117:3130  string memory */\n      0x60\n        /* \"Product.sol\":3142:3168  Product storage newProduct */\n      0x00\n        /* \"Product.sol\":3171:3184  storeProducts */\n      dup1\n        /* \"Product.sol\":3185:3190  index */\n      dup8\n        /* \"Product.sol\":3171:3191  storeProducts[index] */\n      dup2\n      sload\n      dup2\n      lt\n      tag_203\n      jumpi\n      tag_204\n      tag_71\n      jump\t// in\n    tag_204:\n    tag_203:\n      swap1\n      0x00\n      mstore\n      keccak256(0x00, 0x20)\n      swap1\n      0x0f\n      mul\n      add\n        /* \"Product.sol\":3142:3191  Product storage newProduct = storeProducts[index] */\n      swap1\n      pop\n        /* \"Product.sol\":3225:3235  newProduct */\n      dup1\n        /* \"Product.sol\":3225:3246  newProduct.allReviews */\n      0x0d\n      add\n        /* \"Product.sol\":3225:3254  newProduct.allReviews[review] */\n      0x00\n        /* \"Product.sol\":3247:3253  review */\n      dup8\n        /* \"Product.sol\":3225:3254  newProduct.allReviews[review] */\n      dup2\n      mstore\n      0x20\n      add\n      swap1\n      dup2\n      mstore\n      0x20\n      add\n      0x00\n      keccak256\n        /* \"Product.sol\":3225:3272  newProduct.allReviews[review].reviewerFirstName */\n      0x00\n      add\n        /* \"Product.sol\":3290:3300  newProduct */\n      dup2\n        /* \"Product.sol\":3290:3311  newProduct.allReviews */\n      0x0d\n      add\n        /* \"Product.sol\":3290:3319  newProduct.allReviews[review] */\n      0x00\n        /* \"Product.sol\":3312:3318  review */\n      dup9\n        /* \"Product.sol\":3290:3319  newProduct.allReviews[review] */\n      dup2\n      mstore\n      0x20\n      add\n      swap1\n      dup2\n      mstore\n      0x20\n      add\n      0x00\n      keccak256\n        /* \"Product.sol\":3290:3336  newProduct.allReviews[review].reviewerLastName */\n      0x01\n      add\n        /* \"Product.sol\":3354:3364  newProduct */\n      dup3\n        /* \"Product.sol\":3354:3375  newProduct.allReviews */\n      0x0d\n      add\n        /* \"Product.sol\":3354:3383  newProduct.allReviews[review] */\n      0x00\n        /* \"Product.sol\":3376:3382  review */\n      dup10\n        /* \"Product.sol\":3354:3383  newProduct.allReviews[review] */\n      dup2\n      mstore\n      0x20\n      add\n      swap1\n      dup2\n      mstore\n      0x20\n      add\n      0x00\n      keccak256\n        /* \"Product.sol\":3354:3389  newProduct.allReviews[review].stars */\n      0x02\n      add\n      0x00\n      swap1\n      sload\n      swap1\n      0x0100\n      exp\n      swap1\n      div\n      0xff\n      and\n        /* \"Product.sol\":3407:3417  newProduct */\n      dup4\n        /* \"Product.sol\":3407:3428  newProduct.allReviews */\n      0x0d\n      add\n        /* \"Product.sol\":3407:3436  newProduct.allReviews[review] */\n      0x00\n        /* \"Product.sol\":3429:3435  review */\n      dup11\n        /* \"Product.sol\":3407:3436  newProduct.allReviews[review] */\n      dup2\n      mstore\n      0x20\n      add\n      swap1\n      dup2\n      mstore\n      0x20\n      add\n      0x00\n      keccak256\n        /* \"Product.sol\":3407:3444  newProduct.allReviews[review].opinion */\n      0x03\n      add\n        /* \"Product.sol\":3201:3458  return(... */\n      dup4\n      dup1\n      sload\n      tag_206\n      swap1\n      tag_207\n      jump\t// in\n    tag_206:\n      dup1\n      0x1f\n      add\n      0x20\n      dup1\n      swap2\n      div\n      mul\n      0x20\n      add\n      mload(0x40)\n      swap1\n      dup2\n      add\n      0x40\n      mstore\n      dup1\n      swap3\n      swap2\n      swap1\n      dup2\n      dup2\n      mstore\n      0x20\n      add\n      dup3\n      dup1\n      sload\n      tag_208\n      swap1\n      tag_207\n      jump\t// in\n    tag_208:\n      dup1\n      iszero\n      tag_209\n      jumpi\n      dup1\n      0x1f\n      lt\n      tag_210\n      jumpi\n      0x0100\n      dup1\n      dup4\n      sload\n      div\n      mul\n      dup4\n      mstore\n      swap2\n      0x20\n      add\n      swap2\n      jump(tag_209)\n    tag_210:\n      dup3\n      add\n      swap2\n      swap1\n      0x00\n      mstore\n      keccak256(0x00, 0x20)\n      swap1\n    tag_211:\n      dup2\n      sload\n      dup2\n      mstore\n      swap1\n      0x01\n      add\n      swap1\n      0x20\n      add\n      dup1\n      dup4\n      gt\n      tag_211\n      jumpi\n      dup3\n      swap1\n      sub\n      0x1f\n      and\n      dup3\n      add\n      swap2\n    tag_209:\n      pop\n      pop\n      pop\n      pop\n      pop\n      swap4\n      pop\n      dup3\n      dup1\n      sload\n      tag_212\n      swap1\n      tag_207\n      jump\t// in\n    tag_212:\n      dup1\n      0x1f\n      add\n      0x20\n      dup1\n      swap2\n      div\n      mul\n      0x20\n      add\n      mload(0x40)\n      swap1\n      dup2\n      add\n      0x40\n      mstore\n      dup1\n      swap3\n      swap2\n      swap1\n      dup2\n      dup2\n      mstore\n      0x20\n      add\n      dup3\n      dup1\n      sload\n      tag_213\n      swap1\n      tag_207\n      jump\t// in\n    tag_213:\n      dup1\n      iszero\n      tag_214\n      jumpi\n      dup1\n      0x1f\n      lt\n      tag_215\n      jumpi\n      0x0100\n      dup1\n      dup4\n      sload\n      div\n      mul\n      dup4\n      mstore\n      swap2\n      0x20\n      add\n      swap2\n      jump(tag_214)\n    tag_215:\n      dup3\n      add\n      swap2\n      swap1\n      0x00\n      mstore\n      keccak256(0x00, 0x20)\n      swap1\n    tag_216:\n      dup2\n      sload\n      dup2\n      mstore\n      swap1\n      0x01\n      add\n      swap1\n      0x20\n      add\n      dup1\n      dup4\n      gt\n      tag_216\n      jumpi\n      dup3\n      swap1\n      sub\n      0x1f\n      and\n      dup3\n      add\n      swap2\n    tag_214:\n      pop\n      pop\n      pop\n      pop\n      pop\n      swap3\n      pop\n      dup1\n      dup1\n      sload\n      tag_217\n      swap1\n      tag_207\n      jump\t// in\n    tag_217:\n      dup1\n      0x1f\n      add\n      0x20\n      dup1\n      swap2\n      div\n      mul\n      0x20\n      add\n      mload(0x40)\n      swap1\n      dup2\n      add\n      0x40\n      mstore\n      dup1\n      swap3\n      swap2\n      swap1\n      dup2\n      dup2\n      mstore\n      0x20\n      add\n      dup3\n      dup1\n      sload\n      tag_218\n      swap1\n      tag_207\n      jump\t// in\n    tag_218:\n      dup1\n      iszero\n      tag_219\n      jumpi\n      dup1\n      0x1f\n      lt\n      tag_220\n      jumpi\n      0x0100\n      dup1\n      dup4\n      sload\n      div\n      mul\n      dup4\n      mstore\n      swap2\n      0x20\n      add\n      swap2\n      jump(tag_219)\n    tag_220:\n      dup3\n      add\n      swap2\n      swap1\n      0x00\n      mstore\n      keccak256(0x00, 0x20)\n      swap1\n    tag_221:\n      dup2\n      sload\n      dup2\n      mstore\n      swap1\n      0x01\n      add\n      swap1\n      0x20\n      add\n      dup1\n      dup4\n      gt\n      tag_221\n      jumpi\n      dup3\n      swap1\n      sub\n      0x1f\n      and\n      dup3\n      add\n      swap2\n    tag_219:\n      pop\n      pop\n      pop\n      pop\n      pop\n      swap1\n      pop\n      swap5\n      pop\n      swap5\n      pop\n      swap5\n      pop\n      swap5\n      pop\n      pop\n        /* \"Product.sol\":3011:3465  function getReview(uint  index, uint review) public view  returns (string memory, string memory,  uint8 , string memory) {... */\n      swap3\n      swap6\n      swap2\n      swap5\n      pop\n      swap3\n      pop\n      jump\t// out\n        /* \"Product.sol\":997:1027  Product[] public storeProducts */\n    tag_61:\n      0x00\n      dup2\n      dup2\n      sload\n      dup2\n      lt\n      tag_222\n      jumpi\n      0x00\n      dup1\n      revert\n    tag_222:\n      swap1\n      0x00\n      mstore\n      keccak256(0x00, 0x20)\n      swap1\n      0x0f\n      mul\n      add\n      0x00\n      swap2\n      pop\n      swap1\n      pop\n      dup1\n      0x00\n      add\n      sload\n      swap1\n      dup1\n      0x01\n      add\n      0x00\n      swap1\n      sload\n      swap1\n      0x0100\n      exp\n      swap1\n      div\n      0xffffffffffffffffffffffffffffffffffffffff\n      and\n      swap1\n      dup1\n      0x02\n      add\n      dup1\n      sload\n      tag_224\n      swap1\n      tag_207\n      jump\t// in\n    tag_224:\n      dup1\n      0x1f\n      add\n      0x20\n      dup1\n      swap2\n      div\n      mul\n      0x20\n      add\n      mload(0x40)\n      swap1\n      dup2\n      add\n      0x40\n      mstore\n      dup1\n      swap3\n      swap2\n      swap1\n      dup2\n      dup2\n      mstore\n      0x20\n      add\n      dup3\n      dup1\n      sload\n      tag_225\n      swap1\n      tag_207\n      jump\t// in\n    tag_225:\n      dup1\n      iszero\n      tag_226\n      jumpi\n      dup1\n      0x1f\n      lt\n      tag_227\n      jumpi\n      0x0100\n      dup1\n      dup4\n      sload\n      div\n      mul\n      dup4\n      mstore\n      swap2\n      0x20\n      add\n      swap2\n      jump(tag_226)\n    tag_227:\n      dup3\n      add\n      swap2\n      swap1\n      0x00\n      mstore\n      keccak256(0x00, 0x20)\n      swap1\n    tag_228:\n      dup2\n      sload\n      dup2\n      mstore\n      swap1\n      0x01\n      add\n      swap1\n      0x20\n      add\n      dup1\n      dup4\n      gt\n      tag_228\n      jumpi\n      dup3\n      swap1\n      sub\n      0x1f\n      and\n      dup3\n      add\n      swap2\n    tag_226:\n      pop\n      pop\n      pop\n      pop\n      pop\n      swap1\n      dup1\n      0x03\n      add\n      dup1\n      sload\n      tag_229\n      swap1\n      tag_207\n      jump\t// in\n    tag_229:\n      dup1\n      0x1f\n      add\n      0x20\n      dup1\n      swap2\n      div\n      mul\n      0x20\n      add\n      mload(0x40)\n      swap1\n      dup2\n      add\n      0x40\n      mstore\n      dup1\n      swap3\n      swap2\n      swap1\n      dup2\n      dup2\n      mstore\n      0x20\n      add\n      dup3\n      dup1\n      sload\n      tag_230\n      swap1\n      tag_207\n      jump\t// in\n    tag_230:\n      dup1\n      iszero\n      tag_231\n      jumpi\n      dup1\n      0x1f\n      lt\n      tag_232\n      jumpi\n      0x0100\n      dup1\n      dup4\n      sload\n      div\n      mul\n      dup4\n      mstore\n      swap2\n      0x20\n      add\n      swap2\n      jump(tag_231)\n    tag_232:\n      dup3\n      add\n      swap2\n      swap1\n      0x00\n      mstore\n      keccak256(0x00, 0x20)\n      swap1\n    tag_233:\n      dup2\n      sload\n      dup2\n      mstore\n      swap1\n      0x01\n      add\n      swap1\n      0x20\n      add\n      dup1\n      dup4\n      gt\n      tag_233\n      jumpi\n      dup3\n      swap1\n      sub\n      0x1f\n      and\n      dup3\n      add\n      swap2\n    tag_231:\n      pop\n      pop\n      pop\n      pop\n      pop\n      swap1\n      dup1\n      0x04\n      add\n      dup1\n      sload\n      tag_234\n      swap1\n      tag_207\n      jump\t// in\n    tag_234:\n      dup1\n      0x1f\n      add\n      0x20\n      dup1\n      swap2\n      div\n      mul\n      0x20\n      add\n      mload(0x40)\n      swap1\n      dup2\n      add\n      0x40\n      mstore\n      dup1\n      swap3\n      swap2\n      swap1\n      dup2\n      dup2\n      mstore\n      0x20\n      add\n      dup3\n      dup1\n      sload\n      tag_235\n      swap1\n      tag_207\n      jump\t// in\n    tag_235:\n      dup1\n      iszero\n      tag_236\n      jumpi\n      dup1\n      0x1f\n      lt\n      tag_237\n      jumpi\n      0x0100\n      dup1\n      dup4\n      sload\n      div\n      mul\n      dup4\n      mstore\n      swap2\n      0x20\n      add\n      swap2\n      jump(tag_236)\n    tag_237:\n      dup3\n      add\n      swap2\n      swap1\n      0x00\n      mstore\n      keccak256(0x00, 0x20)\n      swap1\n    tag_238:\n      dup2\n      sload\n      dup2\n      mstore\n      swap1\n      0x01\n      add\n      swap1\n      0x20\n      add\n      dup1\n      dup4\n      gt\n      tag_238\n      jumpi\n      dup3\n      swap1\n      sub\n      0x1f\n      and\n      dup3\n      add\n      swap2\n    tag_236:\n      pop\n      pop\n      pop\n      pop\n      pop\n      swap1\n      dup1\n      0x05\n      add\n      sload\n      swap1\n      dup1\n      0x06\n      add\n      dup1\n      sload\n      tag_239\n      swap1\n      tag_207\n      jump\t// in\n    tag_239:\n      dup1\n      0x1f\n      add\n      0x20\n      dup1\n      swap2\n      div\n      mul\n      0x20\n      add\n      mload(0x40)\n      swap1\n      dup2\n      add\n      0x40\n      mstore\n      dup1\n      swap3\n      swap2\n      swap1\n      dup2\n      dup2\n      mstore\n      0x20\n      add\n      dup3\n      dup1\n      sload\n      tag_240\n      swap1\n      tag_207\n      jump\t// in\n    tag_240:\n      dup1\n      iszero\n      tag_241\n      jumpi\n      dup1\n      0x1f\n      lt\n      tag_242\n      jumpi\n      0x0100\n      dup1\n      dup4\n      sload\n      div\n      mul\n      dup4\n      mstore\n      swap2\n      0x20\n      add\n      swap2\n      jump(tag_241)\n    tag_242:\n      dup3\n      add\n      swap2\n      swap1\n      0x00\n      mstore\n      keccak256(0x00, 0x20)\n      swap1\n    tag_243:\n      dup2\n      sload\n      dup2\n      mstore\n      swap1\n      0x01\n      add\n      swap1\n      0x20\n      add\n      dup1\n      dup4\n      gt\n      tag_243\n      jumpi\n      dup3\n      swap1\n      sub\n      0x1f\n      and\n      dup3\n      add\n      swap2\n    tag_241:\n      pop\n      pop\n      pop\n      pop\n      pop\n      swap1\n      dup1\n      0x07\n      add\n      sload\n      swap1\n      dup1\n      0x08\n      add\n      0x00\n      swap1\n      sload\n      swap1\n      0x0100\n      exp\n      swap1\n      div\n      0xff\n      and\n      swap1\n      dup1\n      0x09\n      add\n      sload\n      swap1\n      dup1\n      0x0b\n      add\n      sload\n      swap1\n      dup1\n      0x0e\n      add\n      sload\n      swap1\n      pop\n      dup13\n      jump\t// out\n        /* \"Product.sol\":5306:5512  function productHasArrived(uint purchaseID) public{... */\n    tag_67:\n        /* \"Product.sol\":5395:5402  manager */\n      0x02\n      0x00\n      swap1\n      sload\n      swap1\n      0x0100\n      exp\n      swap1\n      div\n      0xffffffffffffffffffffffffffffffffffffffff\n      and\n        /* \"Product.sol\":5372:5402  payable(msg.sender) == manager */\n      0xffffffffffffffffffffffffffffffffffffffff\n      and\n        /* \"Product.sol\":5380:5390  msg.sender */\n      caller\n        /* \"Product.sol\":5372:5402  payable(msg.sender) == manager */\n      0xffffffffffffffffffffffffffffffffffffffff\n      and\n      eq\n        /* \"Product.sol\":5364:5444  require(payable(msg.sender) == manager,'Only the manager can confirm delivires') */\n      tag_245\n      jumpi\n      mload(0x40)\n      0x08c379a000000000000000000000000000000000000000000000000000000000\n      dup2\n      mstore\n      0x04\n      add\n      tag_246\n      swap1\n      tag_247\n      jump\t// in\n    tag_246:\n      mload(0x40)\n      dup1\n      swap2\n      sub\n      swap1\n      revert\n    tag_245:\n        /* \"Product.sol\":5491:5506  block.timestamp */\n      timestamp\n        /* \"Product.sol\":5452:5464  allPurchases */\n      0x01\n        /* \"Product.sol\":5465:5475  purchaseID */\n      dup3\n        /* \"Product.sol\":5452:5476  allPurchases[purchaseID] */\n      dup2\n      sload\n      dup2\n      lt\n      tag_248\n      jumpi\n      tag_249\n      tag_71\n      jump\t// in\n    tag_249:\n    tag_248:\n      swap1\n      0x00\n      mstore\n      keccak256(0x00, 0x20)\n      swap1\n      0x03\n      mul\n      add\n        /* \"Product.sol\":5452:5488  allPurchases[purchaseID].timeArrived */\n      0x02\n      add\n        /* \"Product.sol\":5452:5506  allPurchases[purchaseID].timeArrived = block.timestamp */\n      dup2\n      swap1\n      sstore\n      pop\n        /* \"Product.sol\":5306:5512  function productHasArrived(uint purchaseID) public{... */\n      pop\n      jump\t// out\n        /* \"Product.sol\":4658:4826  function checkIfSoldOut(uint productID) internal {... */\n    tag_164:\n        /* \"Product.sol\":4756:4757  0 */\n      0x00\n        /* \"Product.sol\":4719:4732  storeProducts */\n      dup1\n        /* \"Product.sol\":4733:4742  productID */\n      dup3\n        /* \"Product.sol\":4719:4743  storeProducts[productID] */\n      dup2\n      sload\n      dup2\n      lt\n      tag_252\n      jumpi\n      tag_253\n      tag_71\n      jump\t// in\n    tag_253:\n    tag_252:\n      swap1\n      0x00\n      mstore\n      keccak256(0x00, 0x20)\n      swap1\n      0x0f\n      mul\n      add\n        /* \"Product.sol\":4719:4752  storeProducts[productID].quantity */\n      0x09\n      add\n      sload\n        /* \"Product.sol\":4719:4757  storeProducts[productID].quantity == 0 */\n      eq\n        /* \"Product.sol\":4716:4820  if(storeProducts[productID].quantity == 0) {... */\n      iszero\n      tag_255\n      jumpi\n        /* \"Product.sol\":4806:4810  true */\n      0x01\n        /* \"Product.sol\":4772:4785  storeProducts */\n      0x00\n        /* \"Product.sol\":4786:4795  productID */\n      dup3\n        /* \"Product.sol\":4772:4796  storeProducts[productID] */\n      dup2\n      sload\n      dup2\n      lt\n      tag_256\n      jumpi\n      tag_257\n      tag_71\n      jump\t// in\n    tag_257:\n    tag_256:\n      swap1\n      0x00\n      mstore\n      keccak256(0x00, 0x20)\n      swap1\n      0x0f\n      mul\n      add\n        /* \"Product.sol\":4772:4803  storeProducts[productID].isSold */\n      0x08\n      add\n      0x00\n        /* \"Product.sol\":4772:4810  storeProducts[productID].isSold = true */\n      0x0100\n      exp\n      dup2\n      sload\n      dup2\n      0xff\n      mul\n      not\n      and\n      swap1\n      dup4\n      iszero\n      iszero\n      mul\n      or\n      swap1\n      sstore\n      pop\n        /* \"Product.sol\":4716:4820  if(storeProducts[productID].quantity == 0) {... */\n    tag_255:\n        /* \"Product.sol\":4658:4826  function checkIfSoldOut(uint productID) internal {... */\n      pop\n      jump\t// out\n        /* \"Product.sol\":1895:2166  function addPurchase(uint productID) private {... */\n    tag_166:\n        /* \"Product.sol\":1950:1962  allPurchases */\n      0x01\n        /* \"Product.sol\":1968:2158  Purchasement({... */\n      mload(0x40)\n      dup1\n      0xa0\n      add\n      0x40\n      mstore\n      dup1\n        /* \"Product.sol\":2006:2015  productID */\n      dup4\n        /* \"Product.sol\":1968:2158  Purchasement({... */\n      dup2\n      mstore\n      0x20\n      add\n        /* \"Product.sol\":2044:2054  msg.sender */\n      caller\n        /* \"Product.sol\":1968:2158  Purchasement({... */\n      0xffffffffffffffffffffffffffffffffffffffff\n      and\n      dup2\n      mstore\n      0x20\n      add\n        /* \"Product.sol\":2082:2087  false */\n      0x00\n        /* \"Product.sol\":1968:2158  Purchasement({... */\n      iszero\n      iszero\n      dup2\n      mstore\n      0x20\n      add\n        /* \"Product.sol\":2114:2119  false */\n      0x00\n        /* \"Product.sol\":1968:2158  Purchasement({... */\n      iszero\n      iszero\n      dup2\n      mstore\n      0x20\n      add\n        /* \"Product.sol\":2146:2147  0 */\n      0x00\n        /* \"Product.sol\":1968:2158  Purchasement({... */\n      dup2\n      mstore\n      pop\n        /* \"Product.sol\":1950:2159  allPurchases.push(Purchasement({... */\n      swap1\n      dup1\n      0x01\n      dup2\n      sload\n      add\n      dup1\n      dup3\n      sstore\n      dup1\n      swap2\n      pop\n      pop\n      0x01\n      swap1\n      sub\n      swap1\n      0x00\n      mstore\n      keccak256(0x00, 0x20)\n      swap1\n      0x03\n      mul\n      add\n      0x00\n      swap1\n      swap2\n      swap1\n      swap2\n      swap1\n      swap2\n      pop\n      0x00\n      dup3\n      add\n      mload\n      dup2\n      0x00\n      add\n      sstore\n      0x20\n      dup3\n      add\n      mload\n      dup2\n      0x01\n      add\n      exp(0x0100, 0x00)\n      dup2\n      sload\n      dup2\n      0xffffffffffffffffffffffffffffffffffffffff\n      mul\n      not\n      and\n      swap1\n      dup4\n      0xffffffffffffffffffffffffffffffffffffffff\n      and\n      mul\n      or\n      swap1\n      sstore\n      pop\n      0x40\n      dup3\n      add\n      mload\n      dup2\n      0x01\n      add\n      exp(0x0100, 0x14)\n      dup2\n      sload\n      dup2\n      0xff\n      mul\n      not\n      and\n      swap1\n      dup4\n      iszero\n      iszero\n      mul\n      or\n      swap1\n      sstore\n      pop\n      0x60\n      dup3\n      add\n      mload\n      dup2\n      0x01\n      add\n      exp(0x0100, 0x15)\n      dup2\n      sload\n      dup2\n      0xff\n      mul\n      not\n      and\n      swap1\n      dup4\n      iszero\n      iszero\n      mul\n      or\n      swap1\n      sstore\n      pop\n      0x80\n      dup3\n      add\n      mload\n      dup2\n      0x02\n      add\n      sstore\n      pop\n      pop\n        /* \"Product.sol\":1895:2166  function addPurchase(uint productID) private {... */\n      pop\n      jump\t// out\n    tag_126:\n      dup3\n      dup1\n      sload\n      tag_261\n      swap1\n      tag_207\n      jump\t// in\n    tag_261:\n      swap1\n      0x00\n      mstore\n      keccak256(0x00, 0x20)\n      swap1\n      0x1f\n      add\n      0x20\n      swap1\n      div\n      dup2\n      add\n      swap3\n      dup3\n      tag_263\n      jumpi\n      0x00\n      dup6\n      sstore\n      jump(tag_262)\n    tag_263:\n      dup3\n      0x1f\n      lt\n      tag_264\n      jumpi\n      dup1\n      mload\n      not(0xff)\n      and\n      dup4\n      dup1\n      add\n      or\n      dup6\n      sstore\n      jump(tag_262)\n    tag_264:\n      dup3\n      dup1\n      add\n      0x01\n      add\n      dup6\n      sstore\n      dup3\n      iszero\n      tag_262\n      jumpi\n      swap2\n      dup3\n      add\n    tag_265:\n      dup3\n      dup2\n      gt\n      iszero\n      tag_266\n      jumpi\n      dup3\n      mload\n      dup3\n      sstore\n      swap2\n      0x20\n      add\n      swap2\n      swap1\n      0x01\n      add\n      swap1\n      jump(tag_265)\n    tag_266:\n    tag_262:\n      pop\n      swap1\n      pop\n      tag_267\n      swap2\n      swap1\n      tag_268\n      jump\t// in\n    tag_267:\n      pop\n      swap1\n      jump\t// out\n    tag_268:\n    tag_269:\n      dup1\n      dup3\n      gt\n      iszero\n      tag_270\n      jumpi\n      0x00\n      dup2\n      0x00\n      swap1\n      sstore\n      pop\n      0x01\n      add\n      jump(tag_269)\n    tag_270:\n      pop\n      swap1\n      jump\t// out\n        /* \"#utility.yul\":7:419   */\n    tag_272:\n        /* \"#utility.yul\":85:90   */\n      0x00\n        /* \"#utility.yul\":110:176   */\n      tag_274\n        /* \"#utility.yul\":126:175   */\n      tag_275\n        /* \"#utility.yul\":168:174   */\n      dup5\n        /* \"#utility.yul\":126:175   */\n      tag_276\n      jump\t// in\n    tag_275:\n        /* \"#utility.yul\":110:176   */\n      tag_277\n      jump\t// in\n    tag_274:\n        /* \"#utility.yul\":101:176   */\n      swap1\n      pop\n        /* \"#utility.yul\":199:205   */\n      dup3\n        /* \"#utility.yul\":192:197   */\n      dup2\n        /* \"#utility.yul\":185:206   */\n      mstore\n        /* \"#utility.yul\":237:241   */\n      0x20\n        /* \"#utility.yul\":230:235   */\n      dup2\n        /* \"#utility.yul\":226:242   */\n      add\n        /* \"#utility.yul\":275:278   */\n      dup5\n        /* \"#utility.yul\":266:272   */\n      dup5\n        /* \"#utility.yul\":261:264   */\n      dup5\n        /* \"#utility.yul\":257:273   */\n      add\n        /* \"#utility.yul\":254:279   */\n      gt\n        /* \"#utility.yul\":251:253   */\n      iszero\n      tag_278\n      jumpi\n        /* \"#utility.yul\":282:361   */\n      tag_279\n      tag_280\n      jump\t// in\n    tag_279:\n        /* \"#utility.yul\":251:253   */\n    tag_278:\n        /* \"#utility.yul\":372:413   */\n      tag_281\n        /* \"#utility.yul\":406:412   */\n      dup5\n        /* \"#utility.yul\":401:404   */\n      dup3\n        /* \"#utility.yul\":396:399   */\n      dup6\n        /* \"#utility.yul\":372:413   */\n      tag_282\n      jump\t// in\n    tag_281:\n        /* \"#utility.yul\":91:419   */\n      pop\n      swap4\n      swap3\n      pop\n      pop\n      pop\n      jump\t// out\n        /* \"#utility.yul\":439:779   */\n    tag_283:\n        /* \"#utility.yul\":495:500   */\n      0x00\n        /* \"#utility.yul\":544:547   */\n      dup3\n        /* \"#utility.yul\":537:541   */\n      0x1f\n        /* \"#utility.yul\":529:535   */\n      dup4\n        /* \"#utility.yul\":525:542   */\n      add\n        /* \"#utility.yul\":521:548   */\n      slt\n        /* \"#utility.yul\":511:513   */\n      tag_285\n      jumpi\n        /* \"#utility.yul\":552:631   */\n      tag_286\n      tag_287\n      jump\t// in\n    tag_286:\n        /* \"#utility.yul\":511:513   */\n    tag_285:\n        /* \"#utility.yul\":669:675   */\n      dup2\n        /* \"#utility.yul\":656:676   */\n      calldataload\n        /* \"#utility.yul\":694:773   */\n      tag_288\n        /* \"#utility.yul\":769:772   */\n      dup5\n        /* \"#utility.yul\":761:767   */\n      dup3\n        /* \"#utility.yul\":754:758   */\n      0x20\n        /* \"#utility.yul\":746:752   */\n      dup7\n        /* \"#utility.yul\":742:759   */\n      add\n        /* \"#utility.yul\":694:773   */\n      tag_272\n      jump\t// in\n    tag_288:\n        /* \"#utility.yul\":685:773   */\n      swap2\n      pop\n        /* \"#utility.yul\":501:779   */\n      pop\n      swap3\n      swap2\n      pop\n      pop\n      jump\t// out\n        /* \"#utility.yul\":785:924   */\n    tag_289:\n        /* \"#utility.yul\":831:836   */\n      0x00\n        /* \"#utility.yul\":869:875   */\n      dup2\n        /* \"#utility.yul\":856:876   */\n      calldataload\n        /* \"#utility.yul\":847:876   */\n      swap1\n      pop\n        /* \"#utility.yul\":885:918   */\n      tag_291\n        /* \"#utility.yul\":912:917   */\n      dup2\n        /* \"#utility.yul\":885:918   */\n      tag_292\n      jump\t// in\n    tag_291:\n        /* \"#utility.yul\":837:924   */\n      swap3\n      swap2\n      pop\n      pop\n      jump\t// out\n        /* \"#utility.yul\":930:1065   */\n    tag_293:\n        /* \"#utility.yul\":974:979   */\n      0x00\n        /* \"#utility.yul\":1012:1018   */\n      dup2\n        /* \"#utility.yul\":999:1019   */\n      calldataload\n        /* \"#utility.yul\":990:1019   */\n      swap1\n      pop\n        /* \"#utility.yul\":1028:1059   */\n      tag_295\n        /* \"#utility.yul\":1053:1058   */\n      dup2\n        /* \"#utility.yul\":1028:1059   */\n      tag_296\n      jump\t// in\n    tag_295:\n        /* \"#utility.yul\":980:1065   */\n      swap3\n      swap2\n      pop\n      pop\n      jump\t// out\n        /* \"#utility.yul\":1071:2848   */\n    tag_42:\n        /* \"#utility.yul\":1215:1221   */\n      0x00\n        /* \"#utility.yul\":1223:1229   */\n      dup1\n        /* \"#utility.yul\":1231:1237   */\n      0x00\n        /* \"#utility.yul\":1239:1245   */\n      dup1\n        /* \"#utility.yul\":1247:1253   */\n      0x00\n        /* \"#utility.yul\":1255:1261   */\n      dup1\n        /* \"#utility.yul\":1304:1307   */\n      0xc0\n        /* \"#utility.yul\":1292:1301   */\n      dup8\n        /* \"#utility.yul\":1283:1290   */\n      dup10\n        /* \"#utility.yul\":1279:1302   */\n      sub\n        /* \"#utility.yul\":1275:1308   */\n      slt\n        /* \"#utility.yul\":1272:1274   */\n      iszero\n      tag_298\n      jumpi\n        /* \"#utility.yul\":1311:1390   */\n      tag_299\n      tag_300\n      jump\t// in\n    tag_299:\n        /* \"#utility.yul\":1272:1274   */\n    tag_298:\n        /* \"#utility.yul\":1459:1460   */\n      0x00\n        /* \"#utility.yul\":1448:1457   */\n      dup8\n        /* \"#utility.yul\":1444:1461   */\n      add\n        /* \"#utility.yul\":1431:1462   */\n      calldataload\n        /* \"#utility.yul\":1489:1507   */\n      0xffffffffffffffff\n        /* \"#utility.yul\":1481:1487   */\n      dup2\n        /* \"#utility.yul\":1478:1508   */\n      gt\n        /* \"#utility.yul\":1475:1477   */\n      iszero\n      tag_301\n      jumpi\n        /* \"#utility.yul\":1511:1590   */\n      tag_302\n      tag_303\n      jump\t// in\n    tag_302:\n        /* \"#utility.yul\":1475:1477   */\n    tag_301:\n        /* \"#utility.yul\":1616:1679   */\n      tag_304\n        /* \"#utility.yul\":1671:1678   */\n      dup10\n        /* \"#utility.yul\":1662:1668   */\n      dup3\n        /* \"#utility.yul\":1651:1660   */\n      dup11\n        /* \"#utility.yul\":1647:1669   */\n      add\n        /* \"#utility.yul\":1616:1679   */\n      tag_283\n      jump\t// in\n    tag_304:\n        /* \"#utility.yul\":1606:1679   */\n      swap7\n      pop\n        /* \"#utility.yul\":1402:1689   */\n      pop\n        /* \"#utility.yul\":1756:1758   */\n      0x20\n        /* \"#utility.yul\":1745:1754   */\n      dup8\n        /* \"#utility.yul\":1741:1759   */\n      add\n        /* \"#utility.yul\":1728:1760   */\n      calldataload\n        /* \"#utility.yul\":1787:1805   */\n      0xffffffffffffffff\n        /* \"#utility.yul\":1779:1785   */\n      dup2\n        /* \"#utility.yul\":1776:1806   */\n      gt\n        /* \"#utility.yul\":1773:1775   */\n      iszero\n      tag_305\n      jumpi\n        /* \"#utility.yul\":1809:1888   */\n      tag_306\n      tag_303\n      jump\t// in\n    tag_306:\n        /* \"#utility.yul\":1773:1775   */\n    tag_305:\n        /* \"#utility.yul\":1914:1977   */\n      tag_307\n        /* \"#utility.yul\":1969:1976   */\n      dup10\n        /* \"#utility.yul\":1960:1966   */\n      dup3\n        /* \"#utility.yul\":1949:1958   */\n      dup11\n        /* \"#utility.yul\":1945:1967   */\n      add\n        /* \"#utility.yul\":1914:1977   */\n      tag_283\n      jump\t// in\n    tag_307:\n        /* \"#utility.yul\":1904:1977   */\n      swap6\n      pop\n        /* \"#utility.yul\":1699:1987   */\n      pop\n        /* \"#utility.yul\":2054:2056   */\n      0x40\n        /* \"#utility.yul\":2043:2052   */\n      dup8\n        /* \"#utility.yul\":2039:2057   */\n      add\n        /* \"#utility.yul\":2026:2058   */\n      calldataload\n        /* \"#utility.yul\":2085:2103   */\n      0xffffffffffffffff\n        /* \"#utility.yul\":2077:2083   */\n      dup2\n        /* \"#utility.yul\":2074:2104   */\n      gt\n        /* \"#utility.yul\":2071:2073   */\n      iszero\n      tag_308\n      jumpi\n        /* \"#utility.yul\":2107:2186   */\n      tag_309\n      tag_303\n      jump\t// in\n    tag_309:\n        /* \"#utility.yul\":2071:2073   */\n    tag_308:\n        /* \"#utility.yul\":2212:2275   */\n      tag_310\n        /* \"#utility.yul\":2267:2274   */\n      dup10\n        /* \"#utility.yul\":2258:2264   */\n      dup3\n        /* \"#utility.yul\":2247:2256   */\n      dup11\n        /* \"#utility.yul\":2243:2265   */\n      add\n        /* \"#utility.yul\":2212:2275   */\n      tag_283\n      jump\t// in\n    tag_310:\n        /* \"#utility.yul\":2202:2275   */\n      swap5\n      pop\n        /* \"#utility.yul\":1997:2285   */\n      pop\n        /* \"#utility.yul\":2324:2326   */\n      0x60\n        /* \"#utility.yul\":2350:2403   */\n      tag_311\n        /* \"#utility.yul\":2395:2402   */\n      dup10\n        /* \"#utility.yul\":2386:2392   */\n      dup3\n        /* \"#utility.yul\":2375:2384   */\n      dup11\n        /* \"#utility.yul\":2371:2393   */\n      add\n        /* \"#utility.yul\":2350:2403   */\n      tag_289\n      jump\t// in\n    tag_311:\n        /* \"#utility.yul\":2340:2403   */\n      swap4\n      pop\n        /* \"#utility.yul\":2295:2413   */\n      pop\n        /* \"#utility.yul\":2452:2455   */\n      0x80\n        /* \"#utility.yul\":2479:2532   */\n      tag_312\n        /* \"#utility.yul\":2524:2531   */\n      dup10\n        /* \"#utility.yul\":2515:2521   */\n      dup3\n        /* \"#utility.yul\":2504:2513   */\n      dup11\n        /* \"#utility.yul\":2500:2522   */\n      add\n        /* \"#utility.yul\":2479:2532   */\n      tag_289\n      jump\t// in\n    tag_312:\n        /* \"#utility.yul\":2469:2532   */\n      swap3\n      pop\n        /* \"#utility.yul\":2423:2542   */\n      pop\n        /* \"#utility.yul\":2609:2612   */\n      0xa0\n        /* \"#utility.yul\":2598:2607   */\n      dup8\n        /* \"#utility.yul\":2594:2613   */\n      add\n        /* \"#utility.yul\":2581:2614   */\n      calldataload\n        /* \"#utility.yul\":2641:2659   */\n      0xffffffffffffffff\n        /* \"#utility.yul\":2633:2639   */\n      dup2\n        /* \"#utility.yul\":2630:2660   */\n      gt\n        /* \"#utility.yul\":2627:2629   */\n      iszero\n      tag_313\n      jumpi\n        /* \"#utility.yul\":2663:2742   */\n      tag_314\n      tag_303\n      jump\t// in\n    tag_314:\n        /* \"#utility.yul\":2627:2629   */\n    tag_313:\n        /* \"#utility.yul\":2768:2831   */\n      tag_315\n        /* \"#utility.yul\":2823:2830   */\n      dup10\n        /* \"#utility.yul\":2814:2820   */\n      dup3\n        /* \"#utility.yul\":2803:2812   */\n      dup11\n        /* \"#utility.yul\":2799:2821   */\n      add\n        /* \"#utility.yul\":2768:2831   */\n      tag_283\n      jump\t// in\n    tag_315:\n        /* \"#utility.yul\":2758:2831   */\n      swap2\n      pop\n        /* \"#utility.yul\":2552:2841   */\n      pop\n        /* \"#utility.yul\":1262:2848   */\n      swap3\n      swap6\n      pop\n      swap3\n      swap6\n      pop\n      swap3\n      swap6\n      jump\t// out\n        /* \"#utility.yul\":2854:3183   */\n    tag_17:\n        /* \"#utility.yul\":2913:2919   */\n      0x00\n        /* \"#utility.yul\":2962:2964   */\n      0x20\n        /* \"#utility.yul\":2950:2959   */\n      dup3\n        /* \"#utility.yul\":2941:2948   */\n      dup5\n        /* \"#utility.yul\":2937:2960   */\n      sub\n        /* \"#utility.yul\":2933:2965   */\n      slt\n        /* \"#utility.yul\":2930:2932   */\n      iszero\n      tag_317\n      jumpi\n        /* \"#utility.yul\":2968:3047   */\n      tag_318\n      tag_300\n      jump\t// in\n    tag_318:\n        /* \"#utility.yul\":2930:2932   */\n    tag_317:\n        /* \"#utility.yul\":3088:3089   */\n      0x00\n        /* \"#utility.yul\":3113:3166   */\n      tag_319\n        /* \"#utility.yul\":3158:3165   */\n      dup5\n        /* \"#utility.yul\":3149:3155   */\n      dup3\n        /* \"#utility.yul\":3138:3147   */\n      dup6\n        /* \"#utility.yul\":3134:3156   */\n      add\n        /* \"#utility.yul\":3113:3166   */\n      tag_289\n      jump\t// in\n    tag_319:\n        /* \"#utility.yul\":3103:3166   */\n      swap2\n      pop\n        /* \"#utility.yul\":3059:3176   */\n      pop\n        /* \"#utility.yul\":2920:3183   */\n      swap3\n      swap2\n      pop\n      pop\n      jump\t// out\n        /* \"#utility.yul\":3189:4636   */\n    tag_28:\n        /* \"#utility.yul\":3312:3318   */\n      0x00\n        /* \"#utility.yul\":3320:3326   */\n      dup1\n        /* \"#utility.yul\":3328:3334   */\n      0x00\n        /* \"#utility.yul\":3336:3342   */\n      dup1\n        /* \"#utility.yul\":3344:3350   */\n      0x00\n        /* \"#utility.yul\":3393:3396   */\n      0xa0\n        /* \"#utility.yul\":3381:3390   */\n      dup7\n        /* \"#utility.yul\":3372:3379   */\n      dup9\n        /* \"#utility.yul\":3368:3391   */\n      sub\n        /* \"#utility.yul\":3364:3397   */\n      slt\n        /* \"#utility.yul\":3361:3363   */\n      iszero\n      tag_321\n      jumpi\n        /* \"#utility.yul\":3400:3479   */\n      tag_322\n      tag_300\n      jump\t// in\n    tag_322:\n        /* \"#utility.yul\":3361:3363   */\n    tag_321:\n        /* \"#utility.yul\":3520:3521   */\n      0x00\n        /* \"#utility.yul\":3545:3598   */\n      tag_323\n        /* \"#utility.yul\":3590:3597   */\n      dup9\n        /* \"#utility.yul\":3581:3587   */\n      dup3\n        /* \"#utility.yul\":3570:3579   */\n      dup10\n        /* \"#utility.yul\":3566:3588   */\n      add\n        /* \"#utility.yul\":3545:3598   */\n      tag_289\n      jump\t// in\n    tag_323:\n        /* \"#utility.yul\":3535:3598   */\n      swap6\n      pop\n        /* \"#utility.yul\":3491:3608   */\n      pop\n        /* \"#utility.yul\":3675:3677   */\n      0x20\n        /* \"#utility.yul\":3664:3673   */\n      dup7\n        /* \"#utility.yul\":3660:3678   */\n      add\n        /* \"#utility.yul\":3647:3679   */\n      calldataload\n        /* \"#utility.yul\":3706:3724   */\n      0xffffffffffffffff\n        /* \"#utility.yul\":3698:3704   */\n      dup2\n        /* \"#utility.yul\":3695:3725   */\n      gt\n        /* \"#utility.yul\":3692:3694   */\n      iszero\n      tag_324\n      jumpi\n        /* \"#utility.yul\":3728:3807   */\n      tag_325\n      tag_303\n      jump\t// in\n    tag_325:\n        /* \"#utility.yul\":3692:3694   */\n    tag_324:\n        /* \"#utility.yul\":3833:3896   */\n      tag_326\n        /* \"#utility.yul\":3888:3895   */\n      dup9\n        /* \"#utility.yul\":3879:3885   */\n      dup3\n        /* \"#utility.yul\":3868:3877   */\n      dup10\n        /* \"#utility.yul\":3864:3886   */\n      add\n        /* \"#utility.yul\":3833:3896   */\n      tag_283\n      jump\t// in\n    tag_326:\n        /* \"#utility.yul\":3823:3896   */\n      swap5\n      pop\n        /* \"#utility.yul\":3618:3906   */\n      pop\n        /* \"#utility.yul\":3973:3975   */\n      0x40\n        /* \"#utility.yul\":3962:3971   */\n      dup7\n        /* \"#utility.yul\":3958:3976   */\n      add\n        /* \"#utility.yul\":3945:3977   */\n      calldataload\n        /* \"#utility.yul\":4004:4022   */\n      0xffffffffffffffff\n        /* \"#utility.yul\":3996:4002   */\n      dup2\n        /* \"#utility.yul\":3993:4023   */\n      gt\n        /* \"#utility.yul\":3990:3992   */\n      iszero\n      tag_327\n      jumpi\n        /* \"#utility.yul\":4026:4105   */\n      tag_328\n      tag_303\n      jump\t// in\n    tag_328:\n        /* \"#utility.yul\":3990:3992   */\n    tag_327:\n        /* \"#utility.yul\":4131:4194   */\n      tag_329\n        /* \"#utility.yul\":4186:4193   */\n      dup9\n        /* \"#utility.yul\":4177:4183   */\n      dup3\n        /* \"#utility.yul\":4166:4175   */\n      dup10\n        /* \"#utility.yul\":4162:4184   */\n      add\n        /* \"#utility.yul\":4131:4194   */\n      tag_283\n      jump\t// in\n    tag_329:\n        /* \"#utility.yul\":4121:4194   */\n      swap4\n      pop\n        /* \"#utility.yul\":3916:4204   */\n      pop\n        /* \"#utility.yul\":4271:4273   */\n      0x60\n        /* \"#utility.yul\":4260:4269   */\n      dup7\n        /* \"#utility.yul\":4256:4274   */\n      add\n        /* \"#utility.yul\":4243:4275   */\n      calldataload\n        /* \"#utility.yul\":4302:4320   */\n      0xffffffffffffffff\n        /* \"#utility.yul\":4294:4300   */\n      dup2\n        /* \"#utility.yul\":4291:4321   */\n      gt\n        /* \"#utility.yul\":4288:4290   */\n      iszero\n      tag_330\n      jumpi\n        /* \"#utility.yul\":4324:4403   */\n      tag_331\n      tag_303\n      jump\t// in\n    tag_331:\n        /* \"#utility.yul\":4288:4290   */\n    tag_330:\n        /* \"#utility.yul\":4429:4492   */\n      tag_332\n        /* \"#utility.yul\":4484:4491   */\n      dup9\n        /* \"#utility.yul\":4475:4481   */\n      dup3\n        /* \"#utility.yul\":4464:4473   */\n      dup10\n        /* \"#utility.yul\":4460:4482   */\n      add\n        /* \"#utility.yul\":4429:4492   */\n      tag_283\n      jump\t// in\n    tag_332:\n        /* \"#utility.yul\":4419:4492   */\n      swap3\n      pop\n        /* \"#utility.yul\":4214:4502   */\n      pop\n        /* \"#utility.yul\":4541:4544   */\n      0x80\n        /* \"#utility.yul\":4568:4619   */\n      tag_333\n        /* \"#utility.yul\":4611:4618   */\n      dup9\n        /* \"#utility.yul\":4602:4608   */\n      dup3\n        /* \"#utility.yul\":4591:4600   */\n      dup10\n        /* \"#utility.yul\":4587:4609   */\n      add\n        /* \"#utility.yul\":4568:4619   */\n      tag_293\n      jump\t// in\n    tag_333:\n        /* \"#utility.yul\":4558:4619   */\n      swap2\n      pop\n        /* \"#utility.yul\":4512:4629   */\n      pop\n        /* \"#utility.yul\":3351:4636   */\n      swap3\n      swap6\n      pop\n      swap3\n      swap6\n      swap1\n      swap4\n      pop\n      jump\t// out\n        /* \"#utility.yul\":4642:5116   */\n    tag_54:\n        /* \"#utility.yul\":4710:4716   */\n      0x00\n        /* \"#utility.yul\":4718:4724   */\n      dup1\n        /* \"#utility.yul\":4767:4769   */\n      0x40\n        /* \"#utility.yul\":4755:4764   */\n      dup4\n        /* \"#utility.yul\":4746:4753   */\n      dup6\n        /* \"#utility.yul\":4742:4765   */\n      sub\n        /* \"#utility.yul\":4738:4770   */\n      slt\n        /* \"#utility.yul\":4735:4737   */\n      iszero\n      tag_335\n      jumpi\n        /* \"#utility.yul\":4773:4852   */\n      tag_336\n      tag_300\n      jump\t// in\n    tag_336:\n        /* \"#utility.yul\":4735:4737   */\n    tag_335:\n        /* \"#utility.yul\":4893:4894   */\n      0x00\n        /* \"#utility.yul\":4918:4971   */\n      tag_337\n        /* \"#utility.yul\":4963:4970   */\n      dup6\n        /* \"#utility.yul\":4954:4960   */\n      dup3\n        /* \"#utility.yul\":4943:4952   */\n      dup7\n        /* \"#utility.yul\":4939:4961   */\n      add\n        /* \"#utility.yul\":4918:4971   */\n      tag_289\n      jump\t// in\n    tag_337:\n        /* \"#utility.yul\":4908:4971   */\n      swap3\n      pop\n        /* \"#utility.yul\":4864:4981   */\n      pop\n        /* \"#utility.yul\":5020:5022   */\n      0x20\n        /* \"#utility.yul\":5046:5099   */\n      tag_338\n        /* \"#utility.yul\":5091:5098   */\n      dup6\n        /* \"#utility.yul\":5082:5088   */\n      dup3\n        /* \"#utility.yul\":5071:5080   */\n      dup7\n        /* \"#utility.yul\":5067:5089   */\n      add\n        /* \"#utility.yul\":5046:5099   */\n      tag_289\n      jump\t// in\n    tag_338:\n        /* \"#utility.yul\":5036:5099   */\n      swap2\n      pop\n        /* \"#utility.yul\":4991:5109   */\n      pop\n        /* \"#utility.yul\":4725:5116   */\n      swap3\n      pop\n      swap3\n      swap1\n      pop\n      jump\t// out\n        /* \"#utility.yul\":5122:5264   */\n    tag_339:\n        /* \"#utility.yul\":5225:5257   */\n      tag_341\n        /* \"#utility.yul\":5251:5256   */\n      dup2\n        /* \"#utility.yul\":5225:5257   */\n      tag_342\n      jump\t// in\n    tag_341:\n        /* \"#utility.yul\":5220:5223   */\n      dup3\n        /* \"#utility.yul\":5213:5258   */\n      mstore\n        /* \"#utility.yul\":5203:5264   */\n      pop\n      pop\n      jump\t// out\n        /* \"#utility.yul\":5270:5379   */\n    tag_343:\n        /* \"#utility.yul\":5351:5372   */\n      tag_345\n        /* \"#utility.yul\":5366:5371   */\n      dup2\n        /* \"#utility.yul\":5351:5372   */\n      tag_346\n      jump\t// in\n    tag_345:\n        /* \"#utility.yul\":5346:5349   */\n      dup3\n        /* \"#utility.yul\":5339:5373   */\n      mstore\n        /* \"#utility.yul\":5329:5379   */\n      pop\n      pop\n      jump\t// out\n        /* \"#utility.yul\":5385:5749   */\n    tag_347:\n        /* \"#utility.yul\":5473:5476   */\n      0x00\n        /* \"#utility.yul\":5501:5540   */\n      tag_349\n        /* \"#utility.yul\":5534:5539   */\n      dup3\n        /* \"#utility.yul\":5501:5540   */\n      tag_350\n      jump\t// in\n    tag_349:\n        /* \"#utility.yul\":5556:5627   */\n      tag_351\n        /* \"#utility.yul\":5620:5626   */\n      dup2\n        /* \"#utility.yul\":5615:5618   */\n      dup6\n        /* \"#utility.yul\":5556:5627   */\n      tag_352\n      jump\t// in\n    tag_351:\n        /* \"#utility.yul\":5549:5627   */\n      swap4\n      pop\n        /* \"#utility.yul\":5636:5688   */\n      tag_353\n        /* \"#utility.yul\":5681:5687   */\n      dup2\n        /* \"#utility.yul\":5676:5679   */\n      dup6\n        /* \"#utility.yul\":5669:5673   */\n      0x20\n        /* \"#utility.yul\":5662:5667   */\n      dup7\n        /* \"#utility.yul\":5658:5674   */\n      add\n        /* \"#utility.yul\":5636:5688   */\n      tag_354\n      jump\t// in\n    tag_353:\n        /* \"#utility.yul\":5713:5742   */\n      tag_355\n        /* \"#utility.yul\":5735:5741   */\n      dup2\n        /* \"#utility.yul\":5713:5742   */\n      tag_356\n      jump\t// in\n    tag_355:\n        /* \"#utility.yul\":5708:5711   */\n      dup5\n        /* \"#utility.yul\":5704:5743   */\n      add\n        /* \"#utility.yul\":5697:5743   */\n      swap2\n      pop\n        /* \"#utility.yul\":5477:5749   */\n      pop\n      swap3\n      swap2\n      pop\n      pop\n      jump\t// out\n        /* \"#utility.yul\":5755:6121   */\n    tag_357:\n        /* \"#utility.yul\":5897:5900   */\n      0x00\n        /* \"#utility.yul\":5918:5985   */\n      tag_359\n        /* \"#utility.yul\":5982:5984   */\n      0x26\n        /* \"#utility.yul\":5977:5980   */\n      dup4\n        /* \"#utility.yul\":5918:5985   */\n      tag_352\n      jump\t// in\n    tag_359:\n        /* \"#utility.yul\":5911:5985   */\n      swap2\n      pop\n        /* \"#utility.yul\":5994:6087   */\n      tag_360\n        /* \"#utility.yul\":6083:6086   */\n      dup3\n        /* \"#utility.yul\":5994:6087   */\n      tag_361\n      jump\t// in\n    tag_360:\n        /* \"#utility.yul\":6112:6114   */\n      0x40\n        /* \"#utility.yul\":6107:6110   */\n      dup3\n        /* \"#utility.yul\":6103:6115   */\n      add\n        /* \"#utility.yul\":6096:6115   */\n      swap1\n      pop\n        /* \"#utility.yul\":5901:6121   */\n      swap2\n      swap1\n      pop\n      jump\t// out\n        /* \"#utility.yul\":6127:6493   */\n    tag_362:\n        /* \"#utility.yul\":6269:6272   */\n      0x00\n        /* \"#utility.yul\":6290:6357   */\n      tag_364\n        /* \"#utility.yul\":6354:6356   */\n      0x11\n        /* \"#utility.yul\":6349:6352   */\n      dup4\n        /* \"#utility.yul\":6290:6357   */\n      tag_352\n      jump\t// in\n    tag_364:\n        /* \"#utility.yul\":6283:6357   */\n      swap2\n      pop\n        /* \"#utility.yul\":6366:6459   */\n      tag_365\n        /* \"#utility.yul\":6455:6458   */\n      dup3\n        /* \"#utility.yul\":6366:6459   */\n      tag_366\n      jump\t// in\n    tag_365:\n        /* \"#utility.yul\":6484:6486   */\n      0x20\n        /* \"#utility.yul\":6479:6482   */\n      dup3\n        /* \"#utility.yul\":6475:6487   */\n      add\n        /* \"#utility.yul\":6468:6487   */\n      swap1\n      pop\n        /* \"#utility.yul\":6273:6493   */\n      swap2\n      swap1\n      pop\n      jump\t// out\n        /* \"#utility.yul\":6499:6865   */\n    tag_367:\n        /* \"#utility.yul\":6641:6644   */\n      0x00\n        /* \"#utility.yul\":6662:6729   */\n      tag_369\n        /* \"#utility.yul\":6726:6728   */\n      0x25\n        /* \"#utility.yul\":6721:6724   */\n      dup4\n        /* \"#utility.yul\":6662:6729   */\n      tag_352\n      jump\t// in\n    tag_369:\n        /* \"#utility.yul\":6655:6729   */\n      swap2\n      pop\n        /* \"#utility.yul\":6738:6831   */\n      tag_370\n        /* \"#utility.yul\":6827:6830   */\n      dup3\n        /* \"#utility.yul\":6738:6831   */\n      tag_371\n      jump\t// in\n    tag_370:\n        /* \"#utility.yul\":6856:6858   */\n      0x40\n        /* \"#utility.yul\":6851:6854   */\n      dup3\n        /* \"#utility.yul\":6847:6859   */\n      add\n        /* \"#utility.yul\":6840:6859   */\n      swap1\n      pop\n        /* \"#utility.yul\":6645:6865   */\n      swap2\n      swap1\n      pop\n      jump\t// out\n        /* \"#utility.yul\":6871:7237   */\n    tag_372:\n        /* \"#utility.yul\":7013:7016   */\n      0x00\n        /* \"#utility.yul\":7034:7101   */\n      tag_374\n        /* \"#utility.yul\":7098:7100   */\n      0x33\n        /* \"#utility.yul\":7093:7096   */\n      dup4\n        /* \"#utility.yul\":7034:7101   */\n      tag_352\n      jump\t// in\n    tag_374:\n        /* \"#utility.yul\":7027:7101   */\n      swap2\n      pop\n        /* \"#utility.yul\":7110:7203   */\n      tag_375\n        /* \"#utility.yul\":7199:7202   */\n      dup3\n        /* \"#utility.yul\":7110:7203   */\n      tag_376\n      jump\t// in\n    tag_375:\n        /* \"#utility.yul\":7228:7230   */\n      0x40\n        /* \"#utility.yul\":7223:7226   */\n      dup3\n        /* \"#utility.yul\":7219:7231   */\n      add\n        /* \"#utility.yul\":7212:7231   */\n      swap1\n      pop\n        /* \"#utility.yul\":7017:7237   */\n      swap2\n      swap1\n      pop\n      jump\t// out\n        /* \"#utility.yul\":7243:7609   */\n    tag_377:\n        /* \"#utility.yul\":7385:7388   */\n      0x00\n        /* \"#utility.yul\":7406:7473   */\n      tag_379\n        /* \"#utility.yul\":7470:7472   */\n      0x1c\n        /* \"#utility.yul\":7465:7468   */\n      dup4\n        /* \"#utility.yul\":7406:7473   */\n      tag_352\n      jump\t// in\n    tag_379:\n        /* \"#utility.yul\":7399:7473   */\n      swap2\n      pop\n        /* \"#utility.yul\":7482:7575   */\n      tag_380\n        /* \"#utility.yul\":7571:7574   */\n      dup3\n        /* \"#utility.yul\":7482:7575   */\n      tag_381\n      jump\t// in\n    tag_380:\n        /* \"#utility.yul\":7600:7602   */\n      0x20\n        /* \"#utility.yul\":7595:7598   */\n      dup3\n        /* \"#utility.yul\":7591:7603   */\n      add\n        /* \"#utility.yul\":7584:7603   */\n      swap1\n      pop\n        /* \"#utility.yul\":7389:7609   */\n      swap2\n      swap1\n      pop\n      jump\t// out\n        /* \"#utility.yul\":7615:7733   */\n    tag_382:\n        /* \"#utility.yul\":7702:7726   */\n      tag_384\n        /* \"#utility.yul\":7720:7725   */\n      dup2\n        /* \"#utility.yul\":7702:7726   */\n      tag_385\n      jump\t// in\n    tag_384:\n        /* \"#utility.yul\":7697:7700   */\n      dup3\n        /* \"#utility.yul\":7690:7727   */\n      mstore\n        /* \"#utility.yul\":7680:7733   */\n      pop\n      pop\n      jump\t// out\n        /* \"#utility.yul\":7739:7851   */\n    tag_386:\n        /* \"#utility.yul\":7822:7844   */\n      tag_388\n        /* \"#utility.yul\":7838:7843   */\n      dup2\n        /* \"#utility.yul\":7822:7844   */\n      tag_389\n      jump\t// in\n    tag_388:\n        /* \"#utility.yul\":7817:7820   */\n      dup3\n        /* \"#utility.yul\":7810:7845   */\n      mstore\n        /* \"#utility.yul\":7800:7851   */\n      pop\n      pop\n      jump\t// out\n        /* \"#utility.yul\":7857:8675   */\n    tag_57:\n        /* \"#utility.yul\":8090:8094   */\n      0x00\n        /* \"#utility.yul\":8128:8131   */\n      0x80\n        /* \"#utility.yul\":8117:8126   */\n      dup3\n        /* \"#utility.yul\":8113:8132   */\n      add\n        /* \"#utility.yul\":8105:8132   */\n      swap1\n      pop\n        /* \"#utility.yul\":8178:8187   */\n      dup2\n        /* \"#utility.yul\":8172:8176   */\n      dup2\n        /* \"#utility.yul\":8168:8188   */\n      sub\n        /* \"#utility.yul\":8164:8165   */\n      0x00\n        /* \"#utility.yul\":8153:8162   */\n      dup4\n        /* \"#utility.yul\":8149:8166   */\n      add\n        /* \"#utility.yul\":8142:8189   */\n      mstore\n        /* \"#utility.yul\":8206:8284   */\n      tag_391\n        /* \"#utility.yul\":8279:8283   */\n      dup2\n        /* \"#utility.yul\":8270:8276   */\n      dup8\n        /* \"#utility.yul\":8206:8284   */\n      tag_347\n      jump\t// in\n    tag_391:\n        /* \"#utility.yul\":8198:8284   */\n      swap1\n      pop\n        /* \"#utility.yul\":8331:8340   */\n      dup2\n        /* \"#utility.yul\":8325:8329   */\n      dup2\n        /* \"#utility.yul\":8321:8341   */\n      sub\n        /* \"#utility.yul\":8316:8318   */\n      0x20\n        /* \"#utility.yul\":8305:8314   */\n      dup4\n        /* \"#utility.yul\":8301:8319   */\n      add\n        /* \"#utility.yul\":8294:8342   */\n      mstore\n        /* \"#utility.yul\":8359:8437   */\n      tag_392\n        /* \"#utility.yul\":8432:8436   */\n      dup2\n        /* \"#utility.yul\":8423:8429   */\n      dup7\n        /* \"#utility.yul\":8359:8437   */\n      tag_347\n      jump\t// in\n    tag_392:\n        /* \"#utility.yul\":8351:8437   */\n      swap1\n      pop\n        /* \"#utility.yul\":8447:8515   */\n      tag_393\n        /* \"#utility.yul\":8511:8513   */\n      0x40\n        /* \"#utility.yul\":8500:8509   */\n      dup4\n        /* \"#utility.yul\":8496:8514   */\n      add\n        /* \"#utility.yul\":8487:8493   */\n      dup6\n        /* \"#utility.yul\":8447:8515   */\n      tag_386\n      jump\t// in\n    tag_393:\n        /* \"#utility.yul\":8562:8571   */\n      dup2\n        /* \"#utility.yul\":8556:8560   */\n      dup2\n        /* \"#utility.yul\":8552:8572   */\n      sub\n        /* \"#utility.yul\":8547:8549   */\n      0x60\n        /* \"#utility.yul\":8536:8545   */\n      dup4\n        /* \"#utility.yul\":8532:8550   */\n      add\n        /* \"#utility.yul\":8525:8573   */\n      mstore\n        /* \"#utility.yul\":8590:8668   */\n      tag_394\n        /* \"#utility.yul\":8663:8667   */\n      dup2\n        /* \"#utility.yul\":8654:8660   */\n      dup5\n        /* \"#utility.yul\":8590:8668   */\n      tag_347\n      jump\t// in\n    tag_394:\n        /* \"#utility.yul\":8582:8668   */\n      swap1\n      pop\n        /* \"#utility.yul\":8095:8675   */\n      swap6\n      swap5\n      pop\n      pop\n      pop\n      pop\n      pop\n      jump\t// out\n        /* \"#utility.yul\":8681:9100   */\n    tag_247:\n        /* \"#utility.yul\":8847:8851   */\n      0x00\n        /* \"#utility.yul\":8885:8887   */\n      0x20\n        /* \"#utility.yul\":8874:8883   */\n      dup3\n        /* \"#utility.yul\":8870:8888   */\n      add\n        /* \"#utility.yul\":8862:8888   */\n      swap1\n      pop\n        /* \"#utility.yul\":8934:8943   */\n      dup2\n        /* \"#utility.yul\":8928:8932   */\n      dup2\n        /* \"#utility.yul\":8924:8944   */\n      sub\n        /* \"#utility.yul\":8920:8921   */\n      0x00\n        /* \"#utility.yul\":8909:8918   */\n      dup4\n        /* \"#utility.yul\":8905:8922   */\n      add\n        /* \"#utility.yul\":8898:8945   */\n      mstore\n        /* \"#utility.yul\":8962:9093   */\n      tag_396\n        /* \"#utility.yul\":9088:9092   */\n      dup2\n        /* \"#utility.yul\":8962:9093   */\n      tag_357\n      jump\t// in\n    tag_396:\n        /* \"#utility.yul\":8954:9093   */\n      swap1\n      pop\n        /* \"#utility.yul\":8852:9100   */\n      swap2\n      swap1\n      pop\n      jump\t// out\n        /* \"#utility.yul\":9106:9525   */\n    tag_144:\n        /* \"#utility.yul\":9272:9276   */\n      0x00\n        /* \"#utility.yul\":9310:9312   */\n      0x20\n        /* \"#utility.yul\":9299:9308   */\n      dup3\n        /* \"#utility.yul\":9295:9313   */\n      add\n        /* \"#utility.yul\":9287:9313   */\n      swap1\n      pop\n        /* \"#utility.yul\":9359:9368   */\n      dup2\n        /* \"#utility.yul\":9353:9357   */\n      dup2\n        /* \"#utility.yul\":9349:9369   */\n      sub\n        /* \"#utility.yul\":9345:9346   */\n      0x00\n        /* \"#utility.yul\":9334:9343   */\n      dup4\n        /* \"#utility.yul\":9330:9347   */\n      add\n        /* \"#utility.yul\":9323:9370   */\n      mstore\n        /* \"#utility.yul\":9387:9518   */\n      tag_398\n        /* \"#utility.yul\":9513:9517   */\n      dup2\n        /* \"#utility.yul\":9387:9518   */\n      tag_362\n      jump\t// in\n    tag_398:\n        /* \"#utility.yul\":9379:9518   */\n      swap1\n      pop\n        /* \"#utility.yul\":9277:9525   */\n      swap2\n      swap1\n      pop\n      jump\t// out\n        /* \"#utility.yul\":9531:9950   */\n    tag_98:\n        /* \"#utility.yul\":9697:9701   */\n      0x00\n        /* \"#utility.yul\":9735:9737   */\n      0x20\n        /* \"#utility.yul\":9724:9733   */\n      dup3\n        /* \"#utility.yul\":9720:9738   */\n      add\n        /* \"#utility.yul\":9712:9738   */\n      swap1\n      pop\n        /* \"#utility.yul\":9784:9793   */\n      dup2\n        /* \"#utility.yul\":9778:9782   */\n      dup2\n        /* \"#utility.yul\":9774:9794   */\n      sub\n        /* \"#utility.yul\":9770:9771   */\n      0x00\n        /* \"#utility.yul\":9759:9768   */\n      dup4\n        /* \"#utility.yul\":9755:9772   */\n      add\n        /* \"#utility.yul\":9748:9795   */\n      mstore\n        /* \"#utility.yul\":9812:9943   */\n      tag_400\n        /* \"#utility.yul\":9938:9942   */\n      dup2\n        /* \"#utility.yul\":9812:9943   */\n      tag_367\n      jump\t// in\n    tag_400:\n        /* \"#utility.yul\":9804:9943   */\n      swap1\n      pop\n        /* \"#utility.yul\":9702:9950   */\n      swap2\n      swap1\n      pop\n      jump\t// out\n        /* \"#utility.yul\":9956:10375   */\n    tag_138:\n        /* \"#utility.yul\":10122:10126   */\n      0x00\n        /* \"#utility.yul\":10160:10162   */\n      0x20\n        /* \"#utility.yul\":10149:10158   */\n      dup3\n        /* \"#utility.yul\":10145:10163   */\n      add\n        /* \"#utility.yul\":10137:10163   */\n      swap1\n      pop\n        /* \"#utility.yul\":10209:10218   */\n      dup2\n        /* \"#utility.yul\":10203:10207   */\n      dup2\n        /* \"#utility.yul\":10199:10219   */\n      sub\n        /* \"#utility.yul\":10195:10196   */\n      0x00\n        /* \"#utility.yul\":10184:10193   */\n      dup4\n        /* \"#utility.yul\":10180:10197   */\n      add\n        /* \"#utility.yul\":10173:10220   */\n      mstore\n        /* \"#utility.yul\":10237:10368   */\n      tag_402\n        /* \"#utility.yul\":10363:10367   */\n      dup2\n        /* \"#utility.yul\":10237:10368   */\n      tag_372\n      jump\t// in\n    tag_402:\n        /* \"#utility.yul\":10229:10368   */\n      swap1\n      pop\n        /* \"#utility.yul\":10127:10375   */\n      swap2\n      swap1\n      pop\n      jump\t// out\n        /* \"#utility.yul\":10381:10800   */\n    tag_86:\n        /* \"#utility.yul\":10547:10551   */\n      0x00\n        /* \"#utility.yul\":10585:10587   */\n      0x20\n        /* \"#utility.yul\":10574:10583   */\n      dup3\n        /* \"#utility.yul\":10570:10588   */\n      add\n        /* \"#utility.yul\":10562:10588   */\n      swap1\n      pop\n        /* \"#utility.yul\":10634:10643   */\n      dup2\n        /* \"#utility.yul\":10628:10632   */\n      dup2\n        /* \"#utility.yul\":10624:10644   */\n      sub\n        /* \"#utility.yul\":10620:10621   */\n      0x00\n        /* \"#utility.yul\":10609:10618   */\n      dup4\n        /* \"#utility.yul\":10605:10622   */\n      add\n        /* \"#utility.yul\":10598:10645   */\n      mstore\n        /* \"#utility.yul\":10662:10793   */\n      tag_404\n        /* \"#utility.yul\":10788:10792   */\n      dup2\n        /* \"#utility.yul\":10662:10793   */\n      tag_377\n      jump\t// in\n    tag_404:\n        /* \"#utility.yul\":10654:10793   */\n      swap1\n      pop\n        /* \"#utility.yul\":10552:10800   */\n      swap2\n      swap1\n      pop\n      jump\t// out\n        /* \"#utility.yul\":10806:11028   */\n    tag_20:\n        /* \"#utility.yul\":10899:10903   */\n      0x00\n        /* \"#utility.yul\":10937:10939   */\n      0x20\n        /* \"#utility.yul\":10926:10935   */\n      dup3\n        /* \"#utility.yul\":10922:10940   */\n      add\n        /* \"#utility.yul\":10914:10940   */\n      swap1\n      pop\n        /* \"#utility.yul\":10950:11021   */\n      tag_406\n        /* \"#utility.yul\":11018:11019   */\n      0x00\n        /* \"#utility.yul\":11007:11016   */\n      dup4\n        /* \"#utility.yul\":11003:11020   */\n      add\n        /* \"#utility.yul\":10994:11000   */\n      dup5\n        /* \"#utility.yul\":10950:11021   */\n      tag_382\n      jump\t// in\n    tag_406:\n        /* \"#utility.yul\":10904:11028   */\n      swap3\n      swap2\n      pop\n      pop\n      jump\t// out\n        /* \"#utility.yul\":11034:11706   */\n    tag_38:\n        /* \"#utility.yul\":11243:11247   */\n      0x00\n        /* \"#utility.yul\":11281:11284   */\n      0xa0\n        /* \"#utility.yul\":11270:11279   */\n      dup3\n        /* \"#utility.yul\":11266:11285   */\n      add\n        /* \"#utility.yul\":11258:11285   */\n      swap1\n      pop\n        /* \"#utility.yul\":11295:11366   */\n      tag_408\n        /* \"#utility.yul\":11363:11364   */\n      0x00\n        /* \"#utility.yul\":11352:11361   */\n      dup4\n        /* \"#utility.yul\":11348:11365   */\n      add\n        /* \"#utility.yul\":11339:11345   */\n      dup9\n        /* \"#utility.yul\":11295:11366   */\n      tag_382\n      jump\t// in\n    tag_408:\n        /* \"#utility.yul\":11376:11464   */\n      tag_409\n        /* \"#utility.yul\":11460:11462   */\n      0x20\n        /* \"#utility.yul\":11449:11458   */\n      dup4\n        /* \"#utility.yul\":11445:11463   */\n      add\n        /* \"#utility.yul\":11436:11442   */\n      dup8\n        /* \"#utility.yul\":11376:11464   */\n      tag_339\n      jump\t// in\n    tag_409:\n        /* \"#utility.yul\":11474:11540   */\n      tag_410\n        /* \"#utility.yul\":11536:11538   */\n      0x40\n        /* \"#utility.yul\":11525:11534   */\n      dup4\n        /* \"#utility.yul\":11521:11539   */\n      add\n        /* \"#utility.yul\":11512:11518   */\n      dup7\n        /* \"#utility.yul\":11474:11540   */\n      tag_343\n      jump\t// in\n    tag_410:\n        /* \"#utility.yul\":11550:11616   */\n      tag_411\n        /* \"#utility.yul\":11612:11614   */\n      0x60\n        /* \"#utility.yul\":11601:11610   */\n      dup4\n        /* \"#utility.yul\":11597:11615   */\n      add\n        /* \"#utility.yul\":11588:11594   */\n      dup6\n        /* \"#utility.yul\":11550:11616   */\n      tag_343\n      jump\t// in\n    tag_411:\n        /* \"#utility.yul\":11626:11699   */\n      tag_412\n        /* \"#utility.yul\":11694:11697   */\n      0x80\n        /* \"#utility.yul\":11683:11692   */\n      dup4\n        /* \"#utility.yul\":11679:11698   */\n      add\n        /* \"#utility.yul\":11670:11676   */\n      dup5\n        /* \"#utility.yul\":11626:11699   */\n      tag_382\n      jump\t// in\n    tag_412:\n        /* \"#utility.yul\":11248:11706   */\n      swap7\n      swap6\n      pop\n      pop\n      pop\n      pop\n      pop\n      pop\n      jump\t// out\n        /* \"#utility.yul\":11712:13541   */\n    tag_63:\n        /* \"#utility.yul\":12205:12209   */\n      0x00\n        /* \"#utility.yul\":12243:12246   */\n      0x0180\n        /* \"#utility.yul\":12232:12241   */\n      dup3\n        /* \"#utility.yul\":12228:12247   */\n      add\n        /* \"#utility.yul\":12220:12247   */\n      swap1\n      pop\n        /* \"#utility.yul\":12257:12328   */\n      tag_414\n        /* \"#utility.yul\":12325:12326   */\n      0x00\n        /* \"#utility.yul\":12314:12323   */\n      dup4\n        /* \"#utility.yul\":12310:12327   */\n      add\n        /* \"#utility.yul\":12301:12307   */\n      dup16\n        /* \"#utility.yul\":12257:12328   */\n      tag_382\n      jump\t// in\n    tag_414:\n        /* \"#utility.yul\":12338:12426   */\n      tag_415\n        /* \"#utility.yul\":12422:12424   */\n      0x20\n        /* \"#utility.yul\":12411:12420   */\n      dup4\n        /* \"#utility.yul\":12407:12425   */\n      add\n        /* \"#utility.yul\":12398:12404   */\n      dup15\n        /* \"#utility.yul\":12338:12426   */\n      tag_339\n      jump\t// in\n    tag_415:\n        /* \"#utility.yul\":12473:12482   */\n      dup2\n        /* \"#utility.yul\":12467:12471   */\n      dup2\n        /* \"#utility.yul\":12463:12483   */\n      sub\n        /* \"#utility.yul\":12458:12460   */\n      0x40\n        /* \"#utility.yul\":12447:12456   */\n      dup4\n        /* \"#utility.yul\":12443:12461   */\n      add\n        /* \"#utility.yul\":12436:12484   */\n      mstore\n        /* \"#utility.yul\":12501:12579   */\n      tag_416\n        /* \"#utility.yul\":12574:12578   */\n      dup2\n        /* \"#utility.yul\":12565:12571   */\n      dup14\n        /* \"#utility.yul\":12501:12579   */\n      tag_347\n      jump\t// in\n    tag_416:\n        /* \"#utility.yul\":12493:12579   */\n      swap1\n      pop\n        /* \"#utility.yul\":12626:12635   */\n      dup2\n        /* \"#utility.yul\":12620:12624   */\n      dup2\n        /* \"#utility.yul\":12616:12636   */\n      sub\n        /* \"#utility.yul\":12611:12613   */\n      0x60\n        /* \"#utility.yul\":12600:12609   */\n      dup4\n        /* \"#utility.yul\":12596:12614   */\n      add\n        /* \"#utility.yul\":12589:12637   */\n      mstore\n        /* \"#utility.yul\":12654:12732   */\n      tag_417\n        /* \"#utility.yul\":12727:12731   */\n      dup2\n        /* \"#utility.yul\":12718:12724   */\n      dup13\n        /* \"#utility.yul\":12654:12732   */\n      tag_347\n      jump\t// in\n    tag_417:\n        /* \"#utility.yul\":12646:12732   */\n      swap1\n      pop\n        /* \"#utility.yul\":12780:12789   */\n      dup2\n        /* \"#utility.yul\":12774:12778   */\n      dup2\n        /* \"#utility.yul\":12770:12790   */\n      sub\n        /* \"#utility.yul\":12764:12767   */\n      0x80\n        /* \"#utility.yul\":12753:12762   */\n      dup4\n        /* \"#utility.yul\":12749:12768   */\n      add\n        /* \"#utility.yul\":12742:12791   */\n      mstore\n        /* \"#utility.yul\":12808:12886   */\n      tag_418\n        /* \"#utility.yul\":12881:12885   */\n      dup2\n        /* \"#utility.yul\":12872:12878   */\n      dup12\n        /* \"#utility.yul\":12808:12886   */\n      tag_347\n      jump\t// in\n    tag_418:\n        /* \"#utility.yul\":12800:12886   */\n      swap1\n      pop\n        /* \"#utility.yul\":12896:12969   */\n      tag_419\n        /* \"#utility.yul\":12964:12967   */\n      0xa0\n        /* \"#utility.yul\":12953:12962   */\n      dup4\n        /* \"#utility.yul\":12949:12968   */\n      add\n        /* \"#utility.yul\":12940:12946   */\n      dup11\n        /* \"#utility.yul\":12896:12969   */\n      tag_382\n      jump\t// in\n    tag_419:\n        /* \"#utility.yul\":13017:13026   */\n      dup2\n        /* \"#utility.yul\":13011:13015   */\n      dup2\n        /* \"#utility.yul\":13007:13027   */\n      sub\n        /* \"#utility.yul\":13001:13004   */\n      0xc0\n        /* \"#utility.yul\":12990:12999   */\n      dup4\n        /* \"#utility.yul\":12986:13005   */\n      add\n        /* \"#utility.yul\":12979:13028   */\n      mstore\n        /* \"#utility.yul\":13045:13123   */\n      tag_420\n        /* \"#utility.yul\":13118:13122   */\n      dup2\n        /* \"#utility.yul\":13109:13115   */\n      dup10\n        /* \"#utility.yul\":13045:13123   */\n      tag_347\n      jump\t// in\n    tag_420:\n        /* \"#utility.yul\":13037:13123   */\n      swap1\n      pop\n        /* \"#utility.yul\":13133:13206   */\n      tag_421\n        /* \"#utility.yul\":13201:13204   */\n      0xe0\n        /* \"#utility.yul\":13190:13199   */\n      dup4\n        /* \"#utility.yul\":13186:13205   */\n      add\n        /* \"#utility.yul\":13177:13183   */\n      dup9\n        /* \"#utility.yul\":13133:13206   */\n      tag_382\n      jump\t// in\n    tag_421:\n        /* \"#utility.yul\":13216:13283   */\n      tag_422\n        /* \"#utility.yul\":13278:13281   */\n      0x0100\n        /* \"#utility.yul\":13267:13276   */\n      dup4\n        /* \"#utility.yul\":13263:13282   */\n      add\n        /* \"#utility.yul\":13254:13260   */\n      dup8\n        /* \"#utility.yul\":13216:13283   */\n      tag_343\n      jump\t// in\n    tag_422:\n        /* \"#utility.yul\":13293:13366   */\n      tag_423\n        /* \"#utility.yul\":13361:13364   */\n      0x0120\n        /* \"#utility.yul\":13350:13359   */\n      dup4\n        /* \"#utility.yul\":13346:13365   */\n      add\n        /* \"#utility.yul\":13337:13343   */\n      dup7\n        /* \"#utility.yul\":13293:13366   */\n      tag_382\n      jump\t// in\n    tag_423:\n        /* \"#utility.yul\":13376:13450   */\n      tag_424\n        /* \"#utility.yul\":13445:13448   */\n      0x0140\n        /* \"#utility.yul\":13434:13443   */\n      dup4\n        /* \"#utility.yul\":13430:13449   */\n      add\n        /* \"#utility.yul\":13420:13427   */\n      dup6\n        /* \"#utility.yul\":13376:13450   */\n      tag_382\n      jump\t// in\n    tag_424:\n        /* \"#utility.yul\":13460:13534   */\n      tag_425\n        /* \"#utility.yul\":13529:13532   */\n      0x0160\n        /* \"#utility.yul\":13518:13527   */\n      dup4\n        /* \"#utility.yul\":13514:13533   */\n      add\n        /* \"#utility.yul\":13504:13511   */\n      dup5\n        /* \"#utility.yul\":13460:13534   */\n      tag_382\n      jump\t// in\n    tag_425:\n        /* \"#utility.yul\":12210:13541   */\n      swap14\n      swap13\n      pop\n      pop\n      pop\n      pop\n      pop\n      pop\n      pop\n      pop\n      pop\n      pop\n      pop\n      pop\n      pop\n      jump\t// out\n        /* \"#utility.yul\":13547:13676   */\n    tag_277:\n        /* \"#utility.yul\":13581:13587   */\n      0x00\n        /* \"#utility.yul\":13608:13628   */\n      tag_427\n      tag_428\n      jump\t// in\n    tag_427:\n        /* \"#utility.yul\":13598:13628   */\n      swap1\n      pop\n        /* \"#utility.yul\":13637:13670   */\n      tag_429\n        /* \"#utility.yul\":13665:13669   */\n      dup3\n        /* \"#utility.yul\":13657:13663   */\n      dup3\n        /* \"#utility.yul\":13637:13670   */\n      tag_430\n      jump\t// in\n    tag_429:\n        /* \"#utility.yul\":13588:13676   */\n      swap2\n      swap1\n      pop\n      jump\t// out\n        /* \"#utility.yul\":13682:13757   */\n    tag_428:\n        /* \"#utility.yul\":13715:13721   */\n      0x00\n        /* \"#utility.yul\":13748:13750   */\n      0x40\n        /* \"#utility.yul\":13742:13751   */\n      mload\n        /* \"#utility.yul\":13732:13751   */\n      swap1\n      pop\n        /* \"#utility.yul\":13722:13757   */\n      swap1\n      jump\t// out\n        /* \"#utility.yul\":13763:14071   */\n    tag_276:\n        /* \"#utility.yul\":13825:13829   */\n      0x00\n        /* \"#utility.yul\":13915:13933   */\n      0xffffffffffffffff\n        /* \"#utility.yul\":13907:13913   */\n      dup3\n        /* \"#utility.yul\":13904:13934   */\n      gt\n        /* \"#utility.yul\":13901:13903   */\n      iszero\n      tag_433\n      jumpi\n        /* \"#utility.yul\":13937:13955   */\n      tag_434\n      tag_435\n      jump\t// in\n    tag_434:\n        /* \"#utility.yul\":13901:13903   */\n    tag_433:\n        /* \"#utility.yul\":13975:14004   */\n      tag_436\n        /* \"#utility.yul\":13997:14003   */\n      dup3\n        /* \"#utility.yul\":13975:14004   */\n      tag_356\n      jump\t// in\n    tag_436:\n        /* \"#utility.yul\":13967:14004   */\n      swap1\n      pop\n        /* \"#utility.yul\":14059:14063   */\n      0x20\n        /* \"#utility.yul\":14053:14057   */\n      dup2\n        /* \"#utility.yul\":14049:14064   */\n      add\n        /* \"#utility.yul\":14041:14064   */\n      swap1\n      pop\n        /* \"#utility.yul\":13830:14071   */\n      swap2\n      swap1\n      pop\n      jump\t// out\n        /* \"#utility.yul\":14077:14176   */\n    tag_350:\n        /* \"#utility.yul\":14129:14135   */\n      0x00\n        /* \"#utility.yul\":14163:14168   */\n      dup2\n        /* \"#utility.yul\":14157:14169   */\n      mload\n        /* \"#utility.yul\":14147:14169   */\n      swap1\n      pop\n        /* \"#utility.yul\":14136:14176   */\n      swap2\n      swap1\n      pop\n      jump\t// out\n        /* \"#utility.yul\":14182:14351   */\n    tag_352:\n        /* \"#utility.yul\":14266:14277   */\n      0x00\n        /* \"#utility.yul\":14300:14306   */\n      dup3\n        /* \"#utility.yul\":14295:14298   */\n      dup3\n        /* \"#utility.yul\":14288:14307   */\n      mstore\n        /* \"#utility.yul\":14340:14344   */\n      0x20\n        /* \"#utility.yul\":14335:14338   */\n      dup3\n        /* \"#utility.yul\":14331:14345   */\n      add\n        /* \"#utility.yul\":14316:14345   */\n      swap1\n      pop\n        /* \"#utility.yul\":14278:14351   */\n      swap3\n      swap2\n      pop\n      pop\n      jump\t// out\n        /* \"#utility.yul\":14357:14662   */\n    tag_95:\n        /* \"#utility.yul\":14397:14400   */\n      0x00\n        /* \"#utility.yul\":14416:14436   */\n      tag_440\n        /* \"#utility.yul\":14434:14435   */\n      dup3\n        /* \"#utility.yul\":14416:14436   */\n      tag_385\n      jump\t// in\n    tag_440:\n        /* \"#utility.yul\":14411:14436   */\n      swap2\n      pop\n        /* \"#utility.yul\":14450:14470   */\n      tag_441\n        /* \"#utility.yul\":14468:14469   */\n      dup4\n        /* \"#utility.yul\":14450:14470   */\n      tag_385\n      jump\t// in\n    tag_441:\n        /* \"#utility.yul\":14445:14470   */\n      swap3\n      pop\n        /* \"#utility.yul\":14604:14605   */\n      dup3\n        /* \"#utility.yul\":14536:14602   */\n      0xffffffffffffffffffffffffffffffffffffffffffffffffffffffffffffffff\n        /* \"#utility.yul\":14532:14606   */\n      sub\n        /* \"#utility.yul\":14529:14530   */\n      dup3\n        /* \"#utility.yul\":14526:14607   */\n      gt\n        /* \"#utility.yul\":14523:14525   */\n      iszero\n      tag_442\n      jumpi\n        /* \"#utility.yul\":14610:14628   */\n      tag_443\n      tag_444\n      jump\t// in\n    tag_443:\n        /* \"#utility.yul\":14523:14525   */\n    tag_442:\n        /* \"#utility.yul\":14654:14655   */\n      dup3\n        /* \"#utility.yul\":14651:14652   */\n      dup3\n        /* \"#utility.yul\":14647:14656   */\n      add\n        /* \"#utility.yul\":14640:14656   */\n      swap1\n      pop\n        /* \"#utility.yul\":14401:14662   */\n      swap3\n      swap2\n      pop\n      pop\n      jump\t// out\n        /* \"#utility.yul\":14668:14853   */\n    tag_75:\n        /* \"#utility.yul\":14708:14709   */\n      0x00\n        /* \"#utility.yul\":14725:14745   */\n      tag_446\n        /* \"#utility.yul\":14743:14744   */\n      dup3\n        /* \"#utility.yul\":14725:14745   */\n      tag_385\n      jump\t// in\n    tag_446:\n        /* \"#utility.yul\":14720:14745   */\n      swap2\n      pop\n        /* \"#utility.yul\":14759:14779   */\n      tag_447\n        /* \"#utility.yul\":14777:14778   */\n      dup4\n        /* \"#utility.yul\":14759:14779   */\n      tag_385\n      jump\t// in\n    tag_447:\n        /* \"#utility.yul\":14754:14779   */\n      swap3\n      pop\n        /* \"#utility.yul\":14798:14799   */\n      dup3\n        /* \"#utility.yul\":14788:14790   */\n      tag_448\n      jumpi\n        /* \"#utility.yul\":14803:14821   */\n      tag_449\n      tag_450\n      jump\t// in\n    tag_449:\n        /* \"#utility.yul\":14788:14790   */\n    tag_448:\n        /* \"#utility.yul\":14845:14846   */\n      dup3\n        /* \"#utility.yul\":14842:14843   */\n      dup3\n        /* \"#utility.yul\":14838:14847   */\n      div\n        /* \"#utility.yul\":14833:14847   */\n      swap1\n      pop\n        /* \"#utility.yul\":14710:14853   */\n      swap3\n      swap2\n      pop\n      pop\n      jump\t// out\n        /* \"#utility.yul\":14859:15050   */\n    tag_175:\n        /* \"#utility.yul\":14899:14903   */\n      0x00\n        /* \"#utility.yul\":14919:14939   */\n      tag_452\n        /* \"#utility.yul\":14937:14938   */\n      dup3\n        /* \"#utility.yul\":14919:14939   */\n      tag_385\n      jump\t// in\n    tag_452:\n        /* \"#utility.yul\":14914:14939   */\n      swap2\n      pop\n        /* \"#utility.yul\":14953:14973   */\n      tag_453\n        /* \"#utility.yul\":14971:14972   */\n      dup4\n        /* \"#utility.yul\":14953:14973   */\n      tag_385\n      jump\t// in\n    tag_453:\n        /* \"#utility.yul\":14948:14973   */\n      swap3\n      pop\n        /* \"#utility.yul\":14992:14993   */\n      dup3\n        /* \"#utility.yul\":14989:14990   */\n      dup3\n        /* \"#utility.yul\":14986:14994   */\n      lt\n        /* \"#utility.yul\":14983:14985   */\n      iszero\n      tag_454\n      jumpi\n        /* \"#utility.yul\":14997:15015   */\n      tag_455\n      tag_444\n      jump\t// in\n    tag_455:\n        /* \"#utility.yul\":14983:14985   */\n    tag_454:\n        /* \"#utility.yul\":15042:15043   */\n      dup3\n        /* \"#utility.yul\":15039:15040   */\n      dup3\n        /* \"#utility.yul\":15035:15044   */\n      sub\n        /* \"#utility.yul\":15027:15044   */\n      swap1\n      pop\n        /* \"#utility.yul\":14904:15050   */\n      swap3\n      swap2\n      pop\n      pop\n      jump\t// out\n        /* \"#utility.yul\":15056:15160   */\n    tag_342:\n        /* \"#utility.yul\":15101:15108   */\n      0x00\n        /* \"#utility.yul\":15130:15154   */\n      tag_457\n        /* \"#utility.yul\":15148:15153   */\n      dup3\n        /* \"#utility.yul\":15130:15154   */\n      tag_458\n      jump\t// in\n    tag_457:\n        /* \"#utility.yul\":15119:15154   */\n      swap1\n      pop\n        /* \"#utility.yul\":15109:15160   */\n      swap2\n      swap1\n      pop\n      jump\t// out\n        /* \"#utility.yul\":15166:15256   */\n    tag_346:\n        /* \"#utility.yul\":15200:15207   */\n      0x00\n        /* \"#utility.yul\":15243:15248   */\n      dup2\n        /* \"#utility.yul\":15236:15249   */\n      iszero\n        /* \"#utility.yul\":15229:15250   */\n      iszero\n        /* \"#utility.yul\":15218:15250   */\n      swap1\n      pop\n        /* \"#utility.yul\":15208:15256   */\n      swap2\n      swap1\n      pop\n      jump\t// out\n        /* \"#utility.yul\":15262:15388   */\n    tag_458:\n        /* \"#utility.yul\":15299:15306   */\n      0x00\n        /* \"#utility.yul\":15339:15381   */\n      0xffffffffffffffffffffffffffffffffffffffff\n        /* \"#utility.yul\":15332:15337   */\n      dup3\n        /* \"#utility.yul\":15328:15382   */\n      and\n        /* \"#utility.yul\":15317:15382   */\n      swap1\n      pop\n        /* \"#utility.yul\":15307:15388   */\n      swap2\n      swap1\n      pop\n      jump\t// out\n        /* \"#utility.yul\":15394:15471   */\n    tag_385:\n        /* \"#utility.yul\":15431:15438   */\n      0x00\n        /* \"#utility.yul\":15460:15465   */\n      dup2\n        /* \"#utility.yul\":15449:15465   */\n      swap1\n      pop\n        /* \"#utility.yul\":15439:15471   */\n      swap2\n      swap1\n      pop\n      jump\t// out\n        /* \"#utility.yul\":15477:15563   */\n    tag_389:\n        /* \"#utility.yul\":15512:15519   */\n      0x00\n        /* \"#utility.yul\":15552:15556   */\n      0xff\n        /* \"#utility.yul\":15545:15550   */\n      dup3\n        /* \"#utility.yul\":15541:15557   */\n      and\n        /* \"#utility.yul\":15530:15557   */\n      swap1\n      pop\n        /* \"#utility.yul\":15520:15563   */\n      swap2\n      swap1\n      pop\n      jump\t// out\n        /* \"#utility.yul\":15569:15723   */\n    tag_282:\n        /* \"#utility.yul\":15653:15659   */\n      dup3\n        /* \"#utility.yul\":15648:15651   */\n      dup2\n        /* \"#utility.yul\":15643:15646   */\n      dup4\n        /* \"#utility.yul\":15630:15660   */\n      calldatacopy\n        /* \"#utility.yul\":15715:15716   */\n      0x00\n        /* \"#utility.yul\":15706:15712   */\n      dup4\n        /* \"#utility.yul\":15701:15704   */\n      dup4\n        /* \"#utility.yul\":15697:15713   */\n      add\n        /* \"#utility.yul\":15690:15717   */\n      mstore\n        /* \"#utility.yul\":15620:15723   */\n      pop\n      pop\n      pop\n      jump\t// out\n        /* \"#utility.yul\":15729:16036   */\n    tag_354:\n        /* \"#utility.yul\":15797:15798   */\n      0x00\n        /* \"#utility.yul\":15807:15920   */\n    tag_465:\n        /* \"#utility.yul\":15821:15827   */\n      dup4\n        /* \"#utility.yul\":15818:15819   */\n      dup2\n        /* \"#utility.yul\":15815:15828   */\n      lt\n        /* \"#utility.yul\":15807:15920   */\n      iszero\n      tag_467\n      jumpi\n        /* \"#utility.yul\":15906:15907   */\n      dup1\n        /* \"#utility.yul\":15901:15904   */\n      dup3\n        /* \"#utility.yul\":15897:15908   */\n      add\n        /* \"#utility.yul\":15891:15909   */\n      mload\n        /* \"#utility.yul\":15887:15888   */\n      dup2\n        /* \"#utility.yul\":15882:15885   */\n      dup5\n        /* \"#utility.yul\":15878:15889   */\n      add\n        /* \"#utility.yul\":15871:15910   */\n      mstore\n        /* \"#utility.yul\":15843:15845   */\n      0x20\n        /* \"#utility.yul\":15840:15841   */\n      dup2\n        /* \"#utility.yul\":15836:15846   */\n      add\n        /* \"#utility.yul\":15831:15846   */\n      swap1\n      pop\n        /* \"#utility.yul\":15807:15920   */\n      jump(tag_465)\n    tag_467:\n        /* \"#utility.yul\":15938:15944   */\n      dup4\n        /* \"#utility.yul\":15935:15936   */\n      dup2\n        /* \"#utility.yul\":15932:15945   */\n      gt\n        /* \"#utility.yul\":15929:15931   */\n      iszero\n      tag_468\n      jumpi\n        /* \"#utility.yul\":16018:16019   */\n      0x00\n        /* \"#utility.yul\":16009:16015   */\n      dup5\n        /* \"#utility.yul\":16004:16007   */\n      dup5\n        /* \"#utility.yul\":16000:16016   */\n      add\n        /* \"#utility.yul\":15993:16020   */\n      mstore\n        /* \"#utility.yul\":15929:15931   */\n    tag_468:\n        /* \"#utility.yul\":15778:16036   */\n      pop\n      pop\n      pop\n      pop\n      jump\t// out\n        /* \"#utility.yul\":16042:16213   */\n    tag_155:\n        /* \"#utility.yul\":16081:16084   */\n      0x00\n        /* \"#utility.yul\":16104:16128   */\n      tag_470\n        /* \"#utility.yul\":16122:16127   */\n      dup3\n        /* \"#utility.yul\":16104:16128   */\n      tag_385\n      jump\t// in\n    tag_470:\n        /* \"#utility.yul\":16095:16128   */\n      swap2\n      pop\n        /* \"#utility.yul\":16150:16154   */\n      0x00\n        /* \"#utility.yul\":16143:16148   */\n      dup3\n        /* \"#utility.yul\":16140:16155   */\n      eq\n        /* \"#utility.yul\":16137:16139   */\n      iszero\n      tag_471\n      jumpi\n        /* \"#utility.yul\":16158:16176   */\n      tag_472\n      tag_444\n      jump\t// in\n    tag_472:\n        /* \"#utility.yul\":16137:16139   */\n    tag_471:\n        /* \"#utility.yul\":16205:16206   */\n      0x01\n        /* \"#utility.yul\":16198:16203   */\n      dup3\n        /* \"#utility.yul\":16194:16207   */\n      sub\n        /* \"#utility.yul\":16187:16207   */\n      swap1\n      pop\n        /* \"#utility.yul\":16085:16213   */\n      swap2\n      swap1\n      pop\n      jump\t// out\n        /* \"#utility.yul\":16219:16539   */\n    tag_207:\n        /* \"#utility.yul\":16263:16269   */\n      0x00\n        /* \"#utility.yul\":16300:16301   */\n      0x02\n        /* \"#utility.yul\":16294:16298   */\n      dup3\n        /* \"#utility.yul\":16290:16302   */\n      div\n        /* \"#utility.yul\":16280:16302   */\n      swap1\n      pop\n        /* \"#utility.yul\":16347:16348   */\n      0x01\n        /* \"#utility.yul\":16341:16345   */\n      dup3\n        /* \"#utility.yul\":16337:16349   */\n      and\n        /* \"#utility.yul\":16368:16386   */\n      dup1\n        /* \"#utility.yul\":16358:16360   */\n      tag_474\n      jumpi\n        /* \"#utility.yul\":16424:16428   */\n      0x7f\n        /* \"#utility.yul\":16416:16422   */\n      dup3\n        /* \"#utility.yul\":16412:16429   */\n      and\n        /* \"#utility.yul\":16402:16429   */\n      swap2\n      pop\n        /* \"#utility.yul\":16358:16360   */\n    tag_474:\n        /* \"#utility.yul\":16486:16488   */\n      0x20\n        /* \"#utility.yul\":16478:16484   */\n      dup3\n        /* \"#utility.yul\":16475:16489   */\n      lt\n        /* \"#utility.yul\":16455:16473   */\n      dup2\n        /* \"#utility.yul\":16452:16490   */\n      eq\n        /* \"#utility.yul\":16449:16451   */\n      iszero\n      tag_475\n      jumpi\n        /* \"#utility.yul\":16505:16523   */\n      tag_476\n      tag_477\n      jump\t// in\n    tag_476:\n        /* \"#utility.yul\":16449:16451   */\n    tag_475:\n        /* \"#utility.yul\":16270:16539   */\n      pop\n      swap2\n      swap1\n      pop\n      jump\t// out\n        /* \"#utility.yul\":16545:16826   */\n    tag_430:\n        /* \"#utility.yul\":16628:16655   */\n      tag_479\n        /* \"#utility.yul\":16650:16654   */\n      dup3\n        /* \"#utility.yul\":16628:16655   */\n      tag_356\n      jump\t// in\n    tag_479:\n        /* \"#utility.yul\":16620:16626   */\n      dup2\n        /* \"#utility.yul\":16616:16656   */\n      add\n        /* \"#utility.yul\":16758:16764   */\n      dup2\n        /* \"#utility.yul\":16746:16756   */\n      dup2\n        /* \"#utility.yul\":16743:16765   */\n      lt\n        /* \"#utility.yul\":16722:16740   */\n      0xffffffffffffffff\n        /* \"#utility.yul\":16710:16720   */\n      dup3\n        /* \"#utility.yul\":16707:16741   */\n      gt\n        /* \"#utility.yul\":16704:16766   */\n      or\n        /* \"#utility.yul\":16701:16703   */\n      iszero\n      tag_480\n      jumpi\n        /* \"#utility.yul\":16769:16787   */\n      tag_481\n      tag_435\n      jump\t// in\n    tag_481:\n        /* \"#utility.yul\":16701:16703   */\n    tag_480:\n        /* \"#utility.yul\":16809:16819   */\n      dup1\n        /* \"#utility.yul\":16805:16807   */\n      0x40\n        /* \"#utility.yul\":16798:16820   */\n      mstore\n        /* \"#utility.yul\":16588:16826   */\n      pop\n      pop\n      pop\n      jump\t// out\n        /* \"#utility.yul\":16832:17065   */\n    tag_130:\n        /* \"#utility.yul\":16871:16874   */\n      0x00\n        /* \"#utility.yul\":16894:16918   */\n      tag_483\n        /* \"#utility.yul\":16912:16917   */\n      dup3\n        /* \"#utility.yul\":16894:16918   */\n      tag_385\n      jump\t// in\n    tag_483:\n        /* \"#utility.yul\":16885:16918   */\n      swap2\n      pop\n        /* \"#utility.yul\":16940:17006   */\n      0xffffffffffffffffffffffffffffffffffffffffffffffffffffffffffffffff\n        /* \"#utility.yul\":16933:16938   */\n      dup3\n        /* \"#utility.yul\":16930:17007   */\n      eq\n        /* \"#utility.yul\":16927:16929   */\n      iszero\n      tag_484\n      jumpi\n        /* \"#utility.yul\":17010:17028   */\n      tag_485\n      tag_444\n      jump\t// in\n    tag_485:\n        /* \"#utility.yul\":16927:16929   */\n    tag_484:\n        /* \"#utility.yul\":17057:17058   */\n      0x01\n        /* \"#utility.yul\":17050:17055   */\n      dup3\n        /* \"#utility.yul\":17046:17059   */\n      add\n        /* \"#utility.yul\":17039:17059   */\n      swap1\n      pop\n        /* \"#utility.yul\":16875:17065   */\n      swap2\n      swap1\n      pop\n      jump\t// out\n        /* \"#utility.yul\":17071:17251   */\n    tag_444:\n        /* \"#utility.yul\":17119:17196   */\n      0x4e487b7100000000000000000000000000000000000000000000000000000000\n        /* \"#utility.yul\":17116:17117   */\n      0x00\n        /* \"#utility.yul\":17109:17197   */\n      mstore\n        /* \"#utility.yul\":17216:17220   */\n      0x11\n        /* \"#utility.yul\":17213:17214   */\n      0x04\n        /* \"#utility.yul\":17206:17221   */\n      mstore\n        /* \"#utility.yul\":17240:17244   */\n      0x24\n        /* \"#utility.yul\":17237:17238   */\n      0x00\n        /* \"#utility.yul\":17230:17245   */\n      revert\n        /* \"#utility.yul\":17257:17437   */\n    tag_450:\n        /* \"#utility.yul\":17305:17382   */\n      0x4e487b7100000000000000000000000000000000000000000000000000000000\n        /* \"#utility.yul\":17302:17303   */\n      0x00\n        /* \"#utility.yul\":17295:17383   */\n      mstore\n        /* \"#utility.yul\":17402:17406   */\n      0x12\n        /* \"#utility.yul\":17399:17400   */\n      0x04\n        /* \"#utility.yul\":17392:17407   */\n      mstore\n        /* \"#utility.yul\":17426:17430   */\n      0x24\n        /* \"#utility.yul\":17423:17424   */\n      0x00\n        /* \"#utility.yul\":17416:17431   */\n      revert\n        /* \"#utility.yul\":17443:17623   */\n    tag_477:\n        /* \"#utility.yul\":17491:17568   */\n      0x4e487b7100000000000000000000000000000000000000000000000000000000\n        /* \"#utility.yul\":17488:17489   */\n      0x00\n        /* \"#utility.yul\":17481:17569   */\n      mstore\n        /* \"#utility.yul\":17588:17592   */\n      0x22\n        /* \"#utility.yul\":17585:17586   */\n      0x04\n        /* \"#utility.yul\":17578:17593   */\n      mstore\n        /* \"#utility.yul\":17612:17616   */\n      0x24\n        /* \"#utility.yul\":17609:17610   */\n      0x00\n        /* \"#utility.yul\":17602:17617   */\n      revert\n        /* \"#utility.yul\":17629:17809   */\n    tag_71:\n        /* \"#utility.yul\":17677:17754   */\n      0x4e487b7100000000000000000000000000000000000000000000000000000000\n        /* \"#utility.yul\":17674:17675   */\n      0x00\n        /* \"#utility.yul\":17667:17755   */\n      mstore\n        /* \"#utility.yul\":17774:17778   */\n      0x32\n        /* \"#utility.yul\":17771:17772   */\n      0x04\n        /* \"#utility.yul\":17764:17779   */\n      mstore\n        /* \"#utility.yul\":17798:17802   */\n      0x24\n        /* \"#utility.yul\":17795:17796   */\n      0x00\n        /* \"#utility.yul\":17788:17803   */\n      revert\n        /* \"#utility.yul\":17815:17995   */\n    tag_435:\n        /* \"#utility.yul\":17863:17940   */\n      0x4e487b7100000000000000000000000000000000000000000000000000000000\n        /* \"#utility.yul\":17860:17861   */\n      0x00\n        /* \"#utility.yul\":17853:17941   */\n      mstore\n        /* \"#utility.yul\":17960:17964   */\n      0x41\n        /* \"#utility.yul\":17957:17958   */\n      0x04\n        /* \"#utility.yul\":17950:17965   */\n      mstore\n        /* \"#utility.yul\":17984:17988   */\n      0x24\n        /* \"#utility.yul\":17981:17982   */\n      0x00\n        /* \"#utility.yul\":17974:17989   */\n      revert\n        /* \"#utility.yul\":18001:18118   */\n    tag_287:\n        /* \"#utility.yul\":18110:18111   */\n      0x00\n        /* \"#utility.yul\":18107:18108   */\n      dup1\n        /* \"#utility.yul\":18100:18112   */\n      revert\n        /* \"#utility.yul\":18124:18241   */\n    tag_280:\n        /* \"#utility.yul\":18233:18234   */\n      0x00\n        /* \"#utility.yul\":18230:18231   */\n      dup1\n        /* \"#utility.yul\":18223:18235   */\n      revert\n        /* \"#utility.yul\":18247:18364   */\n    tag_303:\n        /* \"#utility.yul\":18356:18357   */\n      0x00\n        /* \"#utility.yul\":18353:18354   */\n      dup1\n        /* \"#utility.yul\":18346:18358   */\n      revert\n        /* \"#utility.yul\":18370:18487   */\n    tag_300:\n        /* \"#utility.yul\":18479:18480   */\n      0x00\n        /* \"#utility.yul\":18476:18477   */\n      dup1\n        /* \"#utility.yul\":18469:18481   */\n      revert\n        /* \"#utility.yul\":18493:18595   */\n    tag_356:\n        /* \"#utility.yul\":18534:18540   */\n      0x00\n        /* \"#utility.yul\":18585:18587   */\n      0x1f\n        /* \"#utility.yul\":18581:18588   */\n      not\n        /* \"#utility.yul\":18576:18578   */\n      0x1f\n        /* \"#utility.yul\":18569:18574   */\n      dup4\n        /* \"#utility.yul\":18565:18579   */\n      add\n        /* \"#utility.yul\":18561:18589   */\n      and\n        /* \"#utility.yul\":18551:18589   */\n      swap1\n      pop\n        /* \"#utility.yul\":18541:18595   */\n      swap2\n      swap1\n      pop\n      jump\t// out\n        /* \"#utility.yul\":18601:18826   */\n    tag_361:\n        /* \"#utility.yul\":18741:18775   */\n      0x4f6e6c7920746865206d616e616765722063616e20636f6e6669726d2064656c\n        /* \"#utility.yul\":18737:18738   */\n      0x00\n        /* \"#utility.yul\":18729:18735   */\n      dup3\n        /* \"#utility.yul\":18725:18739   */\n      add\n        /* \"#utility.yul\":18718:18776   */\n      mstore\n        /* \"#utility.yul\":18810:18818   */\n      0x6976697265730000000000000000000000000000000000000000000000000000\n        /* \"#utility.yul\":18805:18807   */\n      0x20\n        /* \"#utility.yul\":18797:18803   */\n      dup3\n        /* \"#utility.yul\":18793:18808   */\n      add\n        /* \"#utility.yul\":18786:18819   */\n      mstore\n        /* \"#utility.yul\":18707:18826   */\n      pop\n      jump\t// out\n        /* \"#utility.yul\":18832:18999   */\n    tag_366:\n        /* \"#utility.yul\":18972:18991   */\n      0x49742773206f7574206f662073746f636b000000000000000000000000000000\n        /* \"#utility.yul\":18968:18969   */\n      0x00\n        /* \"#utility.yul\":18960:18966   */\n      dup3\n        /* \"#utility.yul\":18956:18970   */\n      add\n        /* \"#utility.yul\":18949:18992   */\n      mstore\n        /* \"#utility.yul\":18938:18999   */\n      pop\n      jump\t// out\n        /* \"#utility.yul\":19005:19229   */\n    tag_371:\n        /* \"#utility.yul\":19145:19179   */\n      0x596f752063616e27742072657475726e20746869732070726f6475637420616e\n        /* \"#utility.yul\":19141:19142   */\n      0x00\n        /* \"#utility.yul\":19133:19139   */\n      dup3\n        /* \"#utility.yul\":19129:19143   */\n      add\n        /* \"#utility.yul\":19122:19180   */\n      mstore\n        /* \"#utility.yul\":19214:19221   */\n      0x796d6f7265000000000000000000000000000000000000000000000000000000\n        /* \"#utility.yul\":19209:19211   */\n      0x20\n        /* \"#utility.yul\":19201:19207   */\n      dup3\n        /* \"#utility.yul\":19197:19212   */\n      add\n        /* \"#utility.yul\":19190:19222   */\n      mstore\n        /* \"#utility.yul\":19111:19229   */\n      pop\n      jump\t// out\n        /* \"#utility.yul\":19235:19473   */\n    tag_376:\n        /* \"#utility.yul\":19375:19409   */\n      0x546865206d6f6e657920796f752073656e74206973206e6f7420657175616c20\n        /* \"#utility.yul\":19371:19372   */\n      0x00\n        /* \"#utility.yul\":19363:19369   */\n      dup3\n        /* \"#utility.yul\":19359:19373   */\n      add\n        /* \"#utility.yul\":19352:19410   */\n      mstore\n        /* \"#utility.yul\":19444:19465   */\n      0x746f20746865207072696365206c697374656400000000000000000000000000\n        /* \"#utility.yul\":19439:19441   */\n      0x20\n        /* \"#utility.yul\":19431:19437   */\n      dup3\n        /* \"#utility.yul\":19427:19442   */\n      add\n        /* \"#utility.yul\":19420:19466   */\n      mstore\n        /* \"#utility.yul\":19341:19473   */\n      pop\n      jump\t// out\n        /* \"#utility.yul\":19479:19657   */\n    tag_381:\n        /* \"#utility.yul\":19619:19649   */\n      0x596f7520646964206e6f742062757920746869732070726f6475637400000000\n        /* \"#utility.yul\":19615:19616   */\n      0x00\n        /* \"#utility.yul\":19607:19613   */\n      dup3\n        /* \"#utility.yul\":19603:19617   */\n      add\n        /* \"#utility.yul\":19596:19650   */\n      mstore\n        /* \"#utility.yul\":19585:19657   */\n      pop\n      jump\t// out\n        /* \"#utility.yul\":19663:19785   */\n    tag_292:\n        /* \"#utility.yul\":19736:19760   */\n      tag_502\n        /* \"#utility.yul\":19754:19759   */\n      dup2\n        /* \"#utility.yul\":19736:19760   */\n      tag_385\n      jump\t// in\n    tag_502:\n        /* \"#utility.yul\":19729:19734   */\n      dup2\n        /* \"#utility.yul\":19726:19761   */\n      eq\n        /* \"#utility.yul\":19716:19718   */\n      tag_503\n      jumpi\n        /* \"#utility.yul\":19775:19776   */\n      0x00\n        /* \"#utility.yul\":19772:19773   */\n      dup1\n        /* \"#utility.yul\":19765:19777   */\n      revert\n        /* \"#utility.yul\":19716:19718   */\n    tag_503:\n        /* \"#utility.yul\":19706:19785   */\n      pop\n      jump\t// out\n        /* \"#utility.yul\":19791:19909   */\n    tag_296:\n        /* \"#utility.yul\":19862:19884   */\n      tag_505\n        /* \"#utility.yul\":19878:19883   */\n      dup2\n        /* \"#utility.yul\":19862:19884   */\n      tag_389\n      jump\t// in\n    tag_505:\n        /* \"#utility.yul\":19855:19860   */\n      dup2\n        /* \"#utility.yul\":19852:19885   */\n      eq\n        /* \"#utility.yul\":19842:19844   */\n      tag_506\n      jumpi\n        /* \"#utility.yul\":19899:19900   */\n      0x00\n        /* \"#utility.yul\":19896:19897   */\n      dup1\n        /* \"#utility.yul\":19889:19901   */\n      revert\n        /* \"#utility.yul\":19842:19844   */\n    tag_506:\n        /* \"#utility.yul\":19832:19909   */\n      pop\n      jump\t// out\n\n    auxdata: 0xa264697066735822122092e4f5a1c3ea49112e970b1865f80dbd462349fa5b666d8d8c8d83fb95ab645664736f6c63430008060033\n}\n","bytecode":{"linkReferences":{},"object":"608060405234801561001057600080fd5b5033600260006101000a81548173ffffffffffffffffffffffffffffffffffffffff021916908373ffffffffffffffffffffffffffffffffffffffff16021790555061213b806100616000396000f3fe60806040526004361061009c5760003560e01c8063bb914c6a11610064578063bb914c6a1461018d578063be90c752146101b6578063ca5fc72d146101d2578063dfa505ed146101fd578063e36fe8301461023d578063f5aa0231146102855761009c565b8063085c8ac3146100a1578063131e407d146100de5780634f27bda6146101075780638642269e14610130578063ac6c93d71461014c575b600080fd5b3480156100ad57600080fd5b506100c860048036038101906100c39190611750565b6102ae565b6040516100d59190611aaa565b60405180910390f35b3480156100ea57600080fd5b5061010560048036038101906101009190611750565b610313565b005b34801561011357600080fd5b5061012e6004803603810190610129919061177d565b6105bf565b005b61014a60048036038101906101459190611750565b6107c8565b005b34801561015857600080fd5b50610173600480360381019061016e9190611750565b610a41565b604051610184959493929190611ac5565b60405180910390f35b34801561019957600080fd5b506101b460048036038101906101af9190611653565b610ac1565b005b6101d060048036038101906101cb9190611750565b610bca565b005b3480156101de57600080fd5b506101e7610dc2565b6040516101f49190611aaa565b60405180910390f35b34801561020957600080fd5b50610224600480360381019061021f919061184c565b610dce565b60405161023494939291906119b0565b60405180910390f35b34801561024957600080fd5b50610264600480360381019061025f9190611750565b61101e565b60405161027c9c9b9a99989796959493929190611b18565b60405180910390f35b34801561029157600080fd5b506102ac60048036038101906102a79190611750565b6112db565b005b600080600083815481106102c5576102c4611f15565b5b90600052602060002090600f02019050600081600701549050600082600e0154905060008111156103065780826102fc9190611cb6565b935050505061030e565b600093505050505b919050565b8060006001828154811061032a57610329611f15565b5b90600052602060002090600302016000015490506000818154811061035257610351611f15565b5b90600052602060002090600f0201600c0160003373ffffffffffffffffffffffffffffffffffffffff1673ffffffffffffffffffffffffffffffffffffffff16815260200190815260200160002060009054906101000a900460ff166103ed576040517f08c379a00000000000000000000000000000000000000000000000000000000081526004016103e490611a8a565b60405180910390fd5b60006001848154811061040357610402611f15565b5b9060005260206000209060030201600001549050620151806001858154811061042f5761042e611f15565b5b90600052602060002090600302016002015461044b9190611c60565b421061048c576040517f08c379a000000000000000000000000000000000000000000000000000000000815260040161048390611a4a565b60405180910390fd5b60008082815481106104a1576104a0611f15565b5b90600052602060002090600f0201600c0160003373ffffffffffffffffffffffffffffffffffffffff1673ffffffffffffffffffffffffffffffffffffffff16815260200190815260200160002060006101000a81548160ff0219169083151502179055506000818154811061051a57610519611f15565b5b90600052602060002090600f020160080160009054906101000a900460ff161561057c57600080828154811061055357610552611f15565b5b90600052602060002090600f020160080160006101000a81548160ff0219169083151502179055505b600180858154811061059157610590611f15565b5b906000526020600020906003020160010160156101000a81548160ff02191690831515021790555050505050565b846000600182815481106105d6576105d5611f15565b5b9060005260206000209060030201600001549050600081815481106105fe576105fd611f15565b5b90600052602060002090600f0201600c0160003373ffffffffffffffffffffffffffffffffffffffff1673ffffffffffffffffffffffffffffffffffffffff16815260200190815260200160002060009054906101000a900460ff16610699576040517f08c379a000000000000000000000000000000000000000000000000000000000815260040161069090611a8a565b60405180910390fd5b60008088815481106106ae576106ad611f15565b5b90600052602060002090600f020190508681600d01600083600e0154815260200190815260200160002060000190805190602001906106ee929190611516565b508581600d01600083600e01548152602001908152602001600020600101908051906020019061071f929190611516565b508381600d01600083600e0154815260200190815260200160002060020160006101000a81548160ff021916908360ff1602179055508481600d01600083600e015481526020019081526020016000206003019080519060200190610785929190611516565b5080600e01600081548092919061079b90611e3f565b91905055508360ff168160070160008282546107b79190611c60565b925050819055505050505050505050565b600081815481106107dc576107db611f15565b5b90600052602060002090600f020160050154341461082f576040517f08c379a000000000000000000000000000000000000000000000000000000000815260040161082690611a6a565b60405180910390fd5b6000818154811061084357610842611f15565b5b90600052602060002090600f020160080160009054906101000a900460ff16156108a2576040517f08c379a000000000000000000000000000000000000000000000000000000000815260040161089990611a2a565b60405180910390fd5b33600082815481106108b7576108b6611f15565b5b90600052602060002090600f0201600a0160008084815481106108dd576108dc611f15565b5b90600052602060002090600f0201600b0154815260200190815260200160002060006101000a81548173ffffffffffffffffffffffffffffffffffffffff021916908373ffffffffffffffffffffffffffffffffffffffff1602179055506000818154811061094f5761094e611f15565b5b90600052602060002090600f0201600901600081548092919061097190611db2565b919050555060016000828154811061098c5761098b611f15565b5b90600052602060002090600f0201600c0160003373ffffffffffffffffffffffffffffffffffffffff1673ffffffffffffffffffffffffffffffffffffffff16815260200190815260200160002060006101000a81548160ff02191690831515021790555060008181548110610a0557610a04611f15565b5b90600052602060002090600f0201600b016000815480929190610a2790611e3f565b9190505550610a3581611398565b610a3e81611407565b50565b60018181548110610a5157600080fd5b90600052602060002090600302016000915090508060000154908060010160009054906101000a900473ffffffffffffffffffffffffffffffffffffffff16908060010160149054906101000a900460ff16908060010160159054906101000a900460ff16908060020154905085565b6000806001816001815401808255809150500390600052602060002090600f02019050338160010160006101000a81548173ffffffffffffffffffffffffffffffffffffffff021916908373ffffffffffffffffffffffffffffffffffffffff16021790555086816002019080519060200190610b3f929190611516565b5085816003019080519060200190610b58929190611516565b5084816004019080519060200190610b71929190611516565b508381600501819055506001600080549050610b8d9190611ce7565b816000018190555082816009018190555081816006019080519060200190610bb6929190611516565b506000816007018190555050505050505050565b80600060018281548110610be157610be0611f15565b5b906000526020600020906003020160000154905060008181548110610c0957610c08611f15565b5b90600052602060002090600f0201600c0160003373ffffffffffffffffffffffffffffffffffffffff1673ffffffffffffffffffffffffffffffffffffffff16815260200190815260200160002060009054906101000a900460ff16610ca4576040517f08c379a0000000000000000000000000000000000000000000000000000000008152600401610c9b90611a8a565b60405180910390fd5b600060018481548110610cba57610cb9611f15565b5b906000526020600020906003020160000154905060008181548110610ce257610ce1611f15565b5b90600052602060002090600f020160010160009054906101000a900473ffffffffffffffffffffffffffffffffffffffff1673ffffffffffffffffffffffffffffffffffffffff166108fc60008381548110610d4157610d40611f15565b5b90600052602060002090600f0201600501549081150290604051600060405180830381858888f19350505050158015610d7e573d6000803e3d6000fd5b506001808581548110610d9457610d93611f15565b5b906000526020600020906003020160010160146101000a81548160ff02191690831515021790555050505050565b60008080549050905090565b606080600060606000808781548110610dea57610de9611f15565b5b90600052602060002090600f0201905080600d01600087815260200190815260200160002060000181600d01600088815260200190815260200160002060010182600d01600089815260200190815260200160002060020160009054906101000a900460ff1683600d0160008a8152602001908152602001600020600301838054610e7490611ddc565b80601f0160208091040260200160405190810160405280929190818152602001828054610ea090611ddc565b8015610eed5780601f10610ec257610100808354040283529160200191610eed565b820191906000526020600020905b815481529060010190602001808311610ed057829003601f168201915b50505050509350828054610f0090611ddc565b80601f0160208091040260200160405190810160405280929190818152602001828054610f2c90611ddc565b8015610f795780601f10610f4e57610100808354040283529160200191610f79565b820191906000526020600020905b815481529060010190602001808311610f5c57829003601f168201915b50505050509250808054610f8c90611ddc565b80601f0160208091040260200160405190810160405280929190818152602001828054610fb890611ddc565b80156110055780601f10610fda57610100808354040283529160200191611005565b820191906000526020600020905b815481529060010190602001808311610fe857829003601f168201915b5050505050905094509450945094505092959194509250565b6000818154811061102e57600080fd5b90600052602060002090600f02016000915090508060000154908060010160009054906101000a900473ffffffffffffffffffffffffffffffffffffffff169080600201805461107d90611ddc565b80601f01602080910402602001604051908101604052809291908181526020018280546110a990611ddc565b80156110f65780601f106110cb576101008083540402835291602001916110f6565b820191906000526020600020905b8154815290600101906020018083116110d957829003601f168201915b50505050509080600301805461110b90611ddc565b80601f016020809104026020016040519081016040528092919081815260200182805461113790611ddc565b80156111845780601f1061115957610100808354040283529160200191611184565b820191906000526020600020905b81548152906001019060200180831161116757829003601f168201915b50505050509080600401805461119990611ddc565b80601f01602080910402602001604051908101604052809291908181526020018280546111c590611ddc565b80156112125780601f106111e757610100808354040283529160200191611212565b820191906000526020600020905b8154815290600101906020018083116111f557829003601f168201915b50505050509080600501549080600601805461122d90611ddc565b80601f016020809104026020016040519081016040528092919081815260200182805461125990611ddc565b80156112a65780601f1061127b576101008083540402835291602001916112a6565b820191906000526020600020905b81548152906001019060200180831161128957829003601f168201915b5050505050908060070154908060080160009054906101000a900460ff169080600901549080600b01549080600e015490508c565b600260009054906101000a900473ffffffffffffffffffffffffffffffffffffffff1673ffffffffffffffffffffffffffffffffffffffff163373ffffffffffffffffffffffffffffffffffffffff161461136b576040517f08c379a000000000000000000000000000000000000000000000000000000000815260040161136290611a0a565b60405180910390fd5b42600182815481106113805761137f611f15565b5b90600052602060002090600302016002018190555050565b60008082815481106113ad576113ac611f15565b5b90600052602060002090600f0201600901541415611404576001600082815481106113db576113da611f15565b5b90600052602060002090600f020160080160006101000a81548160ff0219169083151502179055505b50565b60016040518060a001604052808381526020013373ffffffffffffffffffffffffffffffffffffffff168152602001600015158152602001600015158152602001600081525090806001815401808255809150506001900390600052602060002090600302016000909190919091506000820151816000015560208201518160010160006101000a81548173ffffffffffffffffffffffffffffffffffffffff021916908373ffffffffffffffffffffffffffffffffffffffff16021790555060408201518160010160146101000a81548160ff02191690831515021790555060608201518160010160156101000a81548160ff02191690831515021790555060808201518160020155505050565b82805461152290611ddc565b90600052602060002090601f016020900481019282611544576000855561158b565b82601f1061155d57805160ff191683800117855561158b565b8280016001018555821561158b579182015b8281111561158a57825182559160200191906001019061156f565b5b509050611598919061159c565b5090565b5b808211156115b557600081600090555060010161159d565b5090565b60006115cc6115c784611c13565b611bee565b9050828152602081018484840111156115e8576115e7611f78565b5b6115f3848285611d70565b509392505050565b600082601f8301126116105761160f611f73565b5b81356116208482602086016115b9565b91505092915050565b600081359050611638816120d7565b92915050565b60008135905061164d816120ee565b92915050565b60008060008060008060c087890312156116705761166f611f82565b5b600087013567ffffffffffffffff81111561168e5761168d611f7d565b5b61169a89828a016115fb565b965050602087013567ffffffffffffffff8111156116bb576116ba611f7d565b5b6116c789828a016115fb565b955050604087013567ffffffffffffffff8111156116e8576116e7611f7d565b5b6116f489828a016115fb565b945050606061170589828a01611629565b935050608061171689828a01611629565b92505060a087013567ffffffffffffffff81111561173757611736611f7d565b5b61174389828a016115fb565b9150509295509295509295565b60006020828403121561176657611765611f82565b5b600061177484828501611629565b91505092915050565b600080600080600060a0868803121561179957611798611f82565b5b60006117a788828901611629565b955050602086013567ffffffffffffffff8111156117c8576117c7611f7d565b5b6117d4888289016115fb565b945050604086013567ffffffffffffffff8111156117f5576117f4611f7d565b5b611801888289016115fb565b935050606086013567ffffffffffffffff81111561182257611821611f7d565b5b61182e888289016115fb565b925050608061183f8882890161163e565b9150509295509295909350565b6000806040838503121561186357611862611f82565b5b600061187185828601611629565b925050602061188285828601611629565b9150509250929050565b61189581611d1b565b82525050565b6118a481611d2d565b82525050565b60006118b582611c44565b6118bf8185611c4f565b93506118cf818560208601611d7f565b6118d881611f87565b840191505092915050565b60006118f0602683611c4f565b91506118fb82611f98565b604082019050919050565b6000611913601183611c4f565b915061191e82611fe7565b602082019050919050565b6000611936602583611c4f565b915061194182612010565b604082019050919050565b6000611959603383611c4f565b91506119648261205f565b604082019050919050565b600061197c601c83611c4f565b9150611987826120ae565b602082019050919050565b61199b81611d59565b82525050565b6119aa81611d63565b82525050565b600060808201905081810360008301526119ca81876118aa565b905081810360208301526119de81866118aa565b90506119ed60408301856119a1565b81810360608301526119ff81846118aa565b905095945050505050565b60006020820190508181036000830152611a23816118e3565b9050919050565b60006020820190508181036000830152611a4381611906565b9050919050565b60006020820190508181036000830152611a6381611929565b9050919050565b60006020820190508181036000830152611a838161194c565b9050919050565b60006020820190508181036000830152611aa38161196f565b9050919050565b6000602082019050611abf6000830184611992565b92915050565b600060a082019050611ada6000830188611992565b611ae7602083018761188c565b611af4604083018661189b565b611b01606083018561189b565b611b0e6080830184611992565b9695505050505050565b600061018082019050611b2e600083018f611992565b611b3b602083018e61188c565b8181036040830152611b4d818d6118aa565b90508181036060830152611b61818c6118aa565b90508181036080830152611b75818b6118aa565b9050611b8460a083018a611992565b81810360c0830152611b9681896118aa565b9050611ba560e0830188611992565b611bb361010083018761189b565b611bc1610120830186611992565b611bcf610140830185611992565b611bdd610160830184611992565b9d9c50505050505050505050505050565b6000611bf8611c09565b9050611c048282611e0e565b919050565b6000604051905090565b600067ffffffffffffffff821115611c2e57611c2d611f44565b5b611c3782611f87565b9050602081019050919050565b600081519050919050565b600082825260208201905092915050565b6000611c6b82611d59565b9150611c7683611d59565b9250827fffffffffffffffffffffffffffffffffffffffffffffffffffffffffffffffff03821115611cab57611caa611e88565b5b828201905092915050565b6000611cc182611d59565b9150611ccc83611d59565b925082611cdc57611cdb611eb7565b5b828204905092915050565b6000611cf282611d59565b9150611cfd83611d59565b925082821015611d1057611d0f611e88565b5b828203905092915050565b6000611d2682611d39565b9050919050565b60008115159050919050565b600073ffffffffffffffffffffffffffffffffffffffff82169050919050565b6000819050919050565b600060ff82169050919050565b82818337600083830152505050565b60005b83811015611d9d578082015181840152602081019050611d82565b83811115611dac576000848401525b50505050565b6000611dbd82611d59565b91506000821415611dd157611dd0611e88565b5b600182039050919050565b60006002820490506001821680611df457607f821691505b60208210811415611e0857611e07611ee6565b5b50919050565b611e1782611f87565b810181811067ffffffffffffffff82111715611e3657611e35611f44565b5b80604052505050565b6000611e4a82611d59565b91507fffffffffffffffffffffffffffffffffffffffffffffffffffffffffffffffff821415611e7d57611e7c611e88565b5b600182019050919050565b7f4e487b7100000000000000000000000000000000000000000000000000000000600052601160045260246000fd5b7f4e487b7100000000000000000000000000000000000000000000000000000000600052601260045260246000fd5b7f4e487b7100000000000000000000000000000000000000000000000000000000600052602260045260246000fd5b7f4e487b7100000000000000000000000000000000000000000000000000000000600052603260045260246000fd5b7f4e487b7100000000000000000000000000000000000000000000000000000000600052604160045260246000fd5b600080fd5b600080fd5b600080fd5b600080fd5b6000601f19601f8301169050919050565b7f4f6e6c7920746865206d616e616765722063616e20636f6e6669726d2064656c60008201527f6976697265730000000000000000000000000000000000000000000000000000602082015250565b7f49742773206f7574206f662073746f636b000000000000000000000000000000600082015250565b7f596f752063616e27742072657475726e20746869732070726f6475637420616e60008201527f796d6f7265000000000000000000000000000000000000000000000000000000602082015250565b7f546865206d6f6e657920796f752073656e74206973206e6f7420657175616c2060008201527f746f20746865207072696365206c697374656400000000000000000000000000602082015250565b7f596f7520646964206e6f742062757920746869732070726f6475637400000000600082015250565b6120e081611d59565b81146120eb57600080fd5b50565b6120f781611d63565b811461210257600080fd5b5056fea264697066735822122092e4f5a1c3ea49112e970b1865f80dbd462349fa5b666d8d8c8d83fb95ab645664736f6c63430008060033","opcodes":"PUSH1 0x80 PUSH1 0x40 MSTORE CALLVALUE DUP1 ISZERO PUSH2 0x10 JUMPI PUSH1 0x0 DUP1 REVERT JUMPDEST POP CALLER PUSH1 0x2 PUSH1 0x0 PUSH2 0x100 EXP DUP2 SLOAD DUP2 PUSH20 0xFFFFFFFFFFFFFFFFFFFFFFFFFFFFFFFFFFFFFFFF MUL NOT AND SWAP1 DUP4 PUSH20 0xFFFFFFFFFFFFFFFFFFFFFFFFFFFFFFFFFFFFFFFF AND MUL OR SWAP1 SSTORE POP PUSH2 0x213B DUP1 PUSH2 0x61 PUSH1 0x0 CODECOPY PUSH1 0x0 RETURN INVALID PUSH1 0x80 PUSH1 0x40 MSTORE PUSH1 0x4 CALLDATASIZE LT PUSH2 0x9C JUMPI PUSH1 0x0 CALLDATALOAD PUSH1 0xE0 SHR DUP1 PUSH4 0xBB914C6A GT PUSH2 0x64 JUMPI DUP1 PUSH4 0xBB914C6A EQ PUSH2 0x18D JUMPI DUP1 PUSH4 0xBE90C752 EQ PUSH2 0x1B6 JUMPI DUP1 PUSH4 0xCA5FC72D EQ PUSH2 0x1D2 JUMPI DUP1 PUSH4 0xDFA505ED EQ PUSH2 0x1FD JUMPI DUP1 PUSH4 0xE36FE830 EQ PUSH2 0x23D JUMPI DUP1 PUSH4 0xF5AA0231 EQ PUSH2 0x285 JUMPI PUSH2 0x9C JUMP JUMPDEST DUP1 PUSH4 0x85C8AC3 EQ PUSH2 0xA1 JUMPI DUP1 PUSH4 0x131E407D EQ PUSH2 0xDE JUMPI DUP1 PUSH4 0x4F27BDA6 EQ PUSH2 0x107 JUMPI DUP1 PUSH4 0x8642269E EQ PUSH2 0x130 JUMPI DUP1 PUSH4 0xAC6C93D7 EQ PUSH2 0x14C JUMPI JUMPDEST PUSH1 0x0 DUP1 REVERT JUMPDEST CALLVALUE DUP1 ISZERO PUSH2 0xAD JUMPI PUSH1 0x0 DUP1 REVERT JUMPDEST POP PUSH2 0xC8 PUSH1 0x4 DUP1 CALLDATASIZE SUB DUP2 ADD SWAP1 PUSH2 0xC3 SWAP2 SWAP1 PUSH2 0x1750 JUMP JUMPDEST PUSH2 0x2AE JUMP JUMPDEST PUSH1 0x40 MLOAD PUSH2 0xD5 SWAP2 SWAP1 PUSH2 0x1AAA JUMP JUMPDEST PUSH1 0x40 MLOAD DUP1 SWAP2 SUB SWAP1 RETURN JUMPDEST CALLVALUE DUP1 ISZERO PUSH2 0xEA JUMPI PUSH1 0x0 DUP1 REVERT JUMPDEST POP PUSH2 0x105 PUSH1 0x4 DUP1 CALLDATASIZE SUB DUP2 ADD SWAP1 PUSH2 0x100 SWAP2 SWAP1 PUSH2 0x1750 JUMP JUMPDEST PUSH2 0x313 JUMP JUMPDEST STOP JUMPDEST CALLVALUE DUP1 ISZERO PUSH2 0x113 JUMPI PUSH1 0x0 DUP1 REVERT JUMPDEST POP PUSH2 0x12E PUSH1 0x4 DUP1 CALLDATASIZE SUB DUP2 ADD SWAP1 PUSH2 0x129 SWAP2 SWAP1 PUSH2 0x177D JUMP JUMPDEST PUSH2 0x5BF JUMP JUMPDEST STOP JUMPDEST PUSH2 0x14A PUSH1 0x4 DUP1 CALLDATASIZE SUB DUP2 ADD SWAP1 PUSH2 0x145 SWAP2 SWAP1 PUSH2 0x1750 JUMP JUMPDEST PUSH2 0x7C8 JUMP JUMPDEST STOP JUMPDEST CALLVALUE DUP1 ISZERO PUSH2 0x158 JUMPI PUSH1 0x0 DUP1 REVERT JUMPDEST POP PUSH2 0x173 PUSH1 0x4 DUP1 CALLDATASIZE SUB DUP2 ADD SWAP1 PUSH2 0x16E SWAP2 SWAP1 PUSH2 0x1750 JUMP JUMPDEST PUSH2 0xA41 JUMP JUMPDEST PUSH1 0x40 MLOAD PUSH2 0x184 SWAP6 SWAP5 SWAP4 SWAP3 SWAP2 SWAP1 PUSH2 0x1AC5 JUMP JUMPDEST PUSH1 0x40 MLOAD DUP1 SWAP2 SUB SWAP1 RETURN JUMPDEST CALLVALUE DUP1 ISZERO PUSH2 0x199 JUMPI PUSH1 0x0 DUP1 REVERT JUMPDEST POP PUSH2 0x1B4 PUSH1 0x4 DUP1 CALLDATASIZE SUB DUP2 ADD SWAP1 PUSH2 0x1AF SWAP2 SWAP1 PUSH2 0x1653 JUMP JUMPDEST PUSH2 0xAC1 JUMP JUMPDEST STOP JUMPDEST PUSH2 0x1D0 PUSH1 0x4 DUP1 CALLDATASIZE SUB DUP2 ADD SWAP1 PUSH2 0x1CB SWAP2 SWAP1 PUSH2 0x1750 JUMP JUMPDEST PUSH2 0xBCA JUMP JUMPDEST STOP JUMPDEST CALLVALUE DUP1 ISZERO PUSH2 0x1DE JUMPI PUSH1 0x0 DUP1 REVERT JUMPDEST POP PUSH2 0x1E7 PUSH2 0xDC2 JUMP JUMPDEST PUSH1 0x40 MLOAD PUSH2 0x1F4 SWAP2 SWAP1 PUSH2 0x1AAA JUMP JUMPDEST PUSH1 0x40 MLOAD DUP1 SWAP2 SUB SWAP1 RETURN JUMPDEST CALLVALUE DUP1 ISZERO PUSH2 0x209 JUMPI PUSH1 0x0 DUP1 REVERT JUMPDEST POP PUSH2 0x224 PUSH1 0x4 DUP1 CALLDATASIZE SUB DUP2 ADD SWAP1 PUSH2 0x21F SWAP2 SWAP1 PUSH2 0x184C JUMP JUMPDEST PUSH2 0xDCE JUMP JUMPDEST PUSH1 0x40 MLOAD PUSH2 0x234 SWAP5 SWAP4 SWAP3 SWAP2 SWAP1 PUSH2 0x19B0 JUMP JUMPDEST PUSH1 0x40 MLOAD DUP1 SWAP2 SUB SWAP1 RETURN JUMPDEST CALLVALUE DUP1 ISZERO PUSH2 0x249 JUMPI PUSH1 0x0 DUP1 REVERT JUMPDEST POP PUSH2 0x264 PUSH1 0x4 DUP1 CALLDATASIZE SUB DUP2 ADD SWAP1 PUSH2 0x25F SWAP2 SWAP1 PUSH2 0x1750 JUMP JUMPDEST PUSH2 0x101E JUMP JUMPDEST PUSH1 0x40 MLOAD PUSH2 0x27C SWAP13 SWAP12 SWAP11 SWAP10 SWAP9 SWAP8 SWAP7 SWAP6 SWAP5 SWAP4 SWAP3 SWAP2 SWAP1 PUSH2 0x1B18 JUMP JUMPDEST PUSH1 0x40 MLOAD DUP1 SWAP2 SUB SWAP1 RETURN JUMPDEST CALLVALUE DUP1 ISZERO PUSH2 0x291 JUMPI PUSH1 0x0 DUP1 REVERT JUMPDEST POP PUSH2 0x2AC PUSH1 0x4 DUP1 CALLDATASIZE SUB DUP2 ADD SWAP1 PUSH2 0x2A7 SWAP2 SWAP1 PUSH2 0x1750 JUMP JUMPDEST PUSH2 0x12DB JUMP JUMPDEST STOP JUMPDEST PUSH1 0x0 DUP1 PUSH1 0x0 DUP4 DUP2 SLOAD DUP2 LT PUSH2 0x2C5 JUMPI PUSH2 0x2C4 PUSH2 0x1F15 JUMP JUMPDEST JUMPDEST SWAP1 PUSH1 0x0 MSTORE PUSH1 0x20 PUSH1 0x0 KECCAK256 SWAP1 PUSH1 0xF MUL ADD SWAP1 POP PUSH1 0x0 DUP2 PUSH1 0x7 ADD SLOAD SWAP1 POP PUSH1 0x0 DUP3 PUSH1 0xE ADD SLOAD SWAP1 POP PUSH1 0x0 DUP2 GT ISZERO PUSH2 0x306 JUMPI DUP1 DUP3 PUSH2 0x2FC SWAP2 SWAP1 PUSH2 0x1CB6 JUMP JUMPDEST SWAP4 POP POP POP POP PUSH2 0x30E JUMP JUMPDEST PUSH1 0x0 SWAP4 POP POP POP POP JUMPDEST SWAP2 SWAP1 POP JUMP JUMPDEST DUP1 PUSH1 0x0 PUSH1 0x1 DUP3 DUP2 SLOAD DUP2 LT PUSH2 0x32A JUMPI PUSH2 0x329 PUSH2 0x1F15 JUMP JUMPDEST JUMPDEST SWAP1 PUSH1 0x0 MSTORE PUSH1 0x20 PUSH1 0x0 KECCAK256 SWAP1 PUSH1 0x3 MUL ADD PUSH1 0x0 ADD SLOAD SWAP1 POP PUSH1 0x0 DUP2 DUP2 SLOAD DUP2 LT PUSH2 0x352 JUMPI PUSH2 0x351 PUSH2 0x1F15 JUMP JUMPDEST JUMPDEST SWAP1 PUSH1 0x0 MSTORE PUSH1 0x20 PUSH1 0x0 KECCAK256 SWAP1 PUSH1 0xF MUL ADD PUSH1 0xC ADD PUSH1 0x0 CALLER PUSH20 0xFFFFFFFFFFFFFFFFFFFFFFFFFFFFFFFFFFFFFFFF AND PUSH20 0xFFFFFFFFFFFFFFFFFFFFFFFFFFFFFFFFFFFFFFFF AND DUP2 MSTORE PUSH1 0x20 ADD SWAP1 DUP2 MSTORE PUSH1 0x20 ADD PUSH1 0x0 KECCAK256 PUSH1 0x0 SWAP1 SLOAD SWAP1 PUSH2 0x100 EXP SWAP1 DIV PUSH1 0xFF AND PUSH2 0x3ED JUMPI PUSH1 0x40 MLOAD PUSH32 0x8C379A000000000000000000000000000000000000000000000000000000000 DUP2 MSTORE PUSH1 0x4 ADD PUSH2 0x3E4 SWAP1 PUSH2 0x1A8A JUMP JUMPDEST PUSH1 0x40 MLOAD DUP1 SWAP2 SUB SWAP1 REVERT JUMPDEST PUSH1 0x0 PUSH1 0x1 DUP5 DUP2 SLOAD DUP2 LT PUSH2 0x403 JUMPI PUSH2 0x402 PUSH2 0x1F15 JUMP JUMPDEST JUMPDEST SWAP1 PUSH1 0x0 MSTORE PUSH1 0x20 PUSH1 0x0 KECCAK256 SWAP1 PUSH1 0x3 MUL ADD PUSH1 0x0 ADD SLOAD SWAP1 POP PUSH3 0x15180 PUSH1 0x1 DUP6 DUP2 SLOAD DUP2 LT PUSH2 0x42F JUMPI PUSH2 0x42E PUSH2 0x1F15 JUMP JUMPDEST JUMPDEST SWAP1 PUSH1 0x0 MSTORE PUSH1 0x20 PUSH1 0x0 KECCAK256 SWAP1 PUSH1 0x3 MUL ADD PUSH1 0x2 ADD SLOAD PUSH2 0x44B SWAP2 SWAP1 PUSH2 0x1C60 JUMP JUMPDEST TIMESTAMP LT PUSH2 0x48C JUMPI PUSH1 0x40 MLOAD PUSH32 0x8C379A000000000000000000000000000000000000000000000000000000000 DUP2 MSTORE PUSH1 0x4 ADD PUSH2 0x483 SWAP1 PUSH2 0x1A4A JUMP JUMPDEST PUSH1 0x40 MLOAD DUP1 SWAP2 SUB SWAP1 REVERT JUMPDEST PUSH1 0x0 DUP1 DUP3 DUP2 SLOAD DUP2 LT PUSH2 0x4A1 JUMPI PUSH2 0x4A0 PUSH2 0x1F15 JUMP JUMPDEST JUMPDEST SWAP1 PUSH1 0x0 MSTORE PUSH1 0x20 PUSH1 0x0 KECCAK256 SWAP1 PUSH1 0xF MUL ADD PUSH1 0xC ADD PUSH1 0x0 CALLER PUSH20 0xFFFFFFFFFFFFFFFFFFFFFFFFFFFFFFFFFFFFFFFF AND PUSH20 0xFFFFFFFFFFFFFFFFFFFFFFFFFFFFFFFFFFFFFFFF AND DUP2 MSTORE PUSH1 0x20 ADD SWAP1 DUP2 MSTORE PUSH1 0x20 ADD PUSH1 0x0 KECCAK256 PUSH1 0x0 PUSH2 0x100 EXP DUP2 SLOAD DUP2 PUSH1 0xFF MUL NOT AND SWAP1 DUP4 ISZERO ISZERO MUL OR SWAP1 SSTORE POP PUSH1 0x0 DUP2 DUP2 SLOAD DUP2 LT PUSH2 0x51A JUMPI PUSH2 0x519 PUSH2 0x1F15 JUMP JUMPDEST JUMPDEST SWAP1 PUSH1 0x0 MSTORE PUSH1 0x20 PUSH1 0x0 KECCAK256 SWAP1 PUSH1 0xF MUL ADD PUSH1 0x8 ADD PUSH1 0x0 SWAP1 SLOAD SWAP1 PUSH2 0x100 EXP SWAP1 DIV PUSH1 0xFF AND ISZERO PUSH2 0x57C JUMPI PUSH1 0x0 DUP1 DUP3 DUP2 SLOAD DUP2 LT PUSH2 0x553 JUMPI PUSH2 0x552 PUSH2 0x1F15 JUMP JUMPDEST JUMPDEST SWAP1 PUSH1 0x0 MSTORE PUSH1 0x20 PUSH1 0x0 KECCAK256 SWAP1 PUSH1 0xF MUL ADD PUSH1 0x8 ADD PUSH1 0x0 PUSH2 0x100 EXP DUP2 SLOAD DUP2 PUSH1 0xFF MUL NOT AND SWAP1 DUP4 ISZERO ISZERO MUL OR SWAP1 SSTORE POP JUMPDEST PUSH1 0x1 DUP1 DUP6 DUP2 SLOAD DUP2 LT PUSH2 0x591 JUMPI PUSH2 0x590 PUSH2 0x1F15 JUMP JUMPDEST JUMPDEST SWAP1 PUSH1 0x0 MSTORE PUSH1 0x20 PUSH1 0x0 KECCAK256 SWAP1 PUSH1 0x3 MUL ADD PUSH1 0x1 ADD PUSH1 0x15 PUSH2 0x100 EXP DUP2 SLOAD DUP2 PUSH1 0xFF MUL NOT AND SWAP1 DUP4 ISZERO ISZERO MUL OR SWAP1 SSTORE POP POP POP POP POP JUMP JUMPDEST DUP5 PUSH1 0x0 PUSH1 0x1 DUP3 DUP2 SLOAD DUP2 LT PUSH2 0x5D6 JUMPI PUSH2 0x5D5 PUSH2 0x1F15 JUMP JUMPDEST JUMPDEST SWAP1 PUSH1 0x0 MSTORE PUSH1 0x20 PUSH1 0x0 KECCAK256 SWAP1 PUSH1 0x3 MUL ADD PUSH1 0x0 ADD SLOAD SWAP1 POP PUSH1 0x0 DUP2 DUP2 SLOAD DUP2 LT PUSH2 0x5FE JUMPI PUSH2 0x5FD PUSH2 0x1F15 JUMP JUMPDEST JUMPDEST SWAP1 PUSH1 0x0 MSTORE PUSH1 0x20 PUSH1 0x0 KECCAK256 SWAP1 PUSH1 0xF MUL ADD PUSH1 0xC ADD PUSH1 0x0 CALLER PUSH20 0xFFFFFFFFFFFFFFFFFFFFFFFFFFFFFFFFFFFFFFFF AND PUSH20 0xFFFFFFFFFFFFFFFFFFFFFFFFFFFFFFFFFFFFFFFF AND DUP2 MSTORE PUSH1 0x20 ADD SWAP1 DUP2 MSTORE PUSH1 0x20 ADD PUSH1 0x0 KECCAK256 PUSH1 0x0 SWAP1 SLOAD SWAP1 PUSH2 0x100 EXP SWAP1 DIV PUSH1 0xFF AND PUSH2 0x699 JUMPI PUSH1 0x40 MLOAD PUSH32 0x8C379A000000000000000000000000000000000000000000000000000000000 DUP2 MSTORE PUSH1 0x4 ADD PUSH2 0x690 SWAP1 PUSH2 0x1A8A JUMP JUMPDEST PUSH1 0x40 MLOAD DUP1 SWAP2 SUB SWAP1 REVERT JUMPDEST PUSH1 0x0 DUP1 DUP9 DUP2 SLOAD DUP2 LT PUSH2 0x6AE JUMPI PUSH2 0x6AD PUSH2 0x1F15 JUMP JUMPDEST JUMPDEST SWAP1 PUSH1 0x0 MSTORE PUSH1 0x20 PUSH1 0x0 KECCAK256 SWAP1 PUSH1 0xF MUL ADD SWAP1 POP DUP7 DUP2 PUSH1 0xD ADD PUSH1 0x0 DUP4 PUSH1 0xE ADD SLOAD DUP2 MSTORE PUSH1 0x20 ADD SWAP1 DUP2 MSTORE PUSH1 0x20 ADD PUSH1 0x0 KECCAK256 PUSH1 0x0 ADD SWAP1 DUP1 MLOAD SWAP1 PUSH1 0x20 ADD SWAP1 PUSH2 0x6EE SWAP3 SWAP2 SWAP1 PUSH2 0x1516 JUMP JUMPDEST POP DUP6 DUP2 PUSH1 0xD ADD PUSH1 0x0 DUP4 PUSH1 0xE ADD SLOAD DUP2 MSTORE PUSH1 0x20 ADD SWAP1 DUP2 MSTORE PUSH1 0x20 ADD PUSH1 0x0 KECCAK256 PUSH1 0x1 ADD SWAP1 DUP1 MLOAD SWAP1 PUSH1 0x20 ADD SWAP1 PUSH2 0x71F SWAP3 SWAP2 SWAP1 PUSH2 0x1516 JUMP JUMPDEST POP DUP4 DUP2 PUSH1 0xD ADD PUSH1 0x0 DUP4 PUSH1 0xE ADD SLOAD DUP2 MSTORE PUSH1 0x20 ADD SWAP1 DUP2 MSTORE PUSH1 0x20 ADD PUSH1 0x0 KECCAK256 PUSH1 0x2 ADD PUSH1 0x0 PUSH2 0x100 EXP DUP2 SLOAD DUP2 PUSH1 0xFF MUL NOT AND SWAP1 DUP4 PUSH1 0xFF AND MUL OR SWAP1 SSTORE POP DUP5 DUP2 PUSH1 0xD ADD PUSH1 0x0 DUP4 PUSH1 0xE ADD SLOAD DUP2 MSTORE PUSH1 0x20 ADD SWAP1 DUP2 MSTORE PUSH1 0x20 ADD PUSH1 0x0 KECCAK256 PUSH1 0x3 ADD SWAP1 DUP1 MLOAD SWAP1 PUSH1 0x20 ADD SWAP1 PUSH2 0x785 SWAP3 SWAP2 SWAP1 PUSH2 0x1516 JUMP JUMPDEST POP DUP1 PUSH1 0xE ADD PUSH1 0x0 DUP2 SLOAD DUP1 SWAP3 SWAP2 SWAP1 PUSH2 0x79B SWAP1 PUSH2 0x1E3F JUMP JUMPDEST SWAP2 SWAP1 POP SSTORE POP DUP4 PUSH1 0xFF AND DUP2 PUSH1 0x7 ADD PUSH1 0x0 DUP3 DUP3 SLOAD PUSH2 0x7B7 SWAP2 SWAP1 PUSH2 0x1C60 JUMP JUMPDEST SWAP3 POP POP DUP2 SWAP1 SSTORE POP POP POP POP POP POP POP POP POP JUMP JUMPDEST PUSH1 0x0 DUP2 DUP2 SLOAD DUP2 LT PUSH2 0x7DC JUMPI PUSH2 0x7DB PUSH2 0x1F15 JUMP JUMPDEST JUMPDEST SWAP1 PUSH1 0x0 MSTORE PUSH1 0x20 PUSH1 0x0 KECCAK256 SWAP1 PUSH1 0xF MUL ADD PUSH1 0x5 ADD SLOAD CALLVALUE EQ PUSH2 0x82F JUMPI PUSH1 0x40 MLOAD PUSH32 0x8C379A000000000000000000000000000000000000000000000000000000000 DUP2 MSTORE PUSH1 0x4 ADD PUSH2 0x826 SWAP1 PUSH2 0x1A6A JUMP JUMPDEST PUSH1 0x40 MLOAD DUP1 SWAP2 SUB SWAP1 REVERT JUMPDEST PUSH1 0x0 DUP2 DUP2 SLOAD DUP2 LT PUSH2 0x843 JUMPI PUSH2 0x842 PUSH2 0x1F15 JUMP JUMPDEST JUMPDEST SWAP1 PUSH1 0x0 MSTORE PUSH1 0x20 PUSH1 0x0 KECCAK256 SWAP1 PUSH1 0xF MUL ADD PUSH1 0x8 ADD PUSH1 0x0 SWAP1 SLOAD SWAP1 PUSH2 0x100 EXP SWAP1 DIV PUSH1 0xFF AND ISZERO PUSH2 0x8A2 JUMPI PUSH1 0x40 MLOAD PUSH32 0x8C379A000000000000000000000000000000000000000000000000000000000 DUP2 MSTORE PUSH1 0x4 ADD PUSH2 0x899 SWAP1 PUSH2 0x1A2A JUMP JUMPDEST PUSH1 0x40 MLOAD DUP1 SWAP2 SUB SWAP1 REVERT JUMPDEST CALLER PUSH1 0x0 DUP3 DUP2 SLOAD DUP2 LT PUSH2 0x8B7 JUMPI PUSH2 0x8B6 PUSH2 0x1F15 JUMP JUMPDEST JUMPDEST SWAP1 PUSH1 0x0 MSTORE PUSH1 0x20 PUSH1 0x0 KECCAK256 SWAP1 PUSH1 0xF MUL ADD PUSH1 0xA ADD PUSH1 0x0 DUP1 DUP5 DUP2 SLOAD DUP2 LT PUSH2 0x8DD JUMPI PUSH2 0x8DC PUSH2 0x1F15 JUMP JUMPDEST JUMPDEST SWAP1 PUSH1 0x0 MSTORE PUSH1 0x20 PUSH1 0x0 KECCAK256 SWAP1 PUSH1 0xF MUL ADD PUSH1 0xB ADD SLOAD DUP2 MSTORE PUSH1 0x20 ADD SWAP1 DUP2 MSTORE PUSH1 0x20 ADD PUSH1 0x0 KECCAK256 PUSH1 0x0 PUSH2 0x100 EXP DUP2 SLOAD DUP2 PUSH20 0xFFFFFFFFFFFFFFFFFFFFFFFFFFFFFFFFFFFFFFFF MUL NOT AND SWAP1 DUP4 PUSH20 0xFFFFFFFFFFFFFFFFFFFFFFFFFFFFFFFFFFFFFFFF AND MUL OR SWAP1 SSTORE POP PUSH1 0x0 DUP2 DUP2 SLOAD DUP2 LT PUSH2 0x94F JUMPI PUSH2 0x94E PUSH2 0x1F15 JUMP JUMPDEST JUMPDEST SWAP1 PUSH1 0x0 MSTORE PUSH1 0x20 PUSH1 0x0 KECCAK256 SWAP1 PUSH1 0xF MUL ADD PUSH1 0x9 ADD PUSH1 0x0 DUP2 SLOAD DUP1 SWAP3 SWAP2 SWAP1 PUSH2 0x971 SWAP1 PUSH2 0x1DB2 JUMP JUMPDEST SWAP2 SWAP1 POP SSTORE POP PUSH1 0x1 PUSH1 0x0 DUP3 DUP2 SLOAD DUP2 LT PUSH2 0x98C JUMPI PUSH2 0x98B PUSH2 0x1F15 JUMP JUMPDEST JUMPDEST SWAP1 PUSH1 0x0 MSTORE PUSH1 0x20 PUSH1 0x0 KECCAK256 SWAP1 PUSH1 0xF MUL ADD PUSH1 0xC ADD PUSH1 0x0 CALLER PUSH20 0xFFFFFFFFFFFFFFFFFFFFFFFFFFFFFFFFFFFFFFFF AND PUSH20 0xFFFFFFFFFFFFFFFFFFFFFFFFFFFFFFFFFFFFFFFF AND DUP2 MSTORE PUSH1 0x20 ADD SWAP1 DUP2 MSTORE PUSH1 0x20 ADD PUSH1 0x0 KECCAK256 PUSH1 0x0 PUSH2 0x100 EXP DUP2 SLOAD DUP2 PUSH1 0xFF MUL NOT AND SWAP1 DUP4 ISZERO ISZERO MUL OR SWAP1 SSTORE POP PUSH1 0x0 DUP2 DUP2 SLOAD DUP2 LT PUSH2 0xA05 JUMPI PUSH2 0xA04 PUSH2 0x1F15 JUMP JUMPDEST JUMPDEST SWAP1 PUSH1 0x0 MSTORE PUSH1 0x20 PUSH1 0x0 KECCAK256 SWAP1 PUSH1 0xF MUL ADD PUSH1 0xB ADD PUSH1 0x0 DUP2 SLOAD DUP1 SWAP3 SWAP2 SWAP1 PUSH2 0xA27 SWAP1 PUSH2 0x1E3F JUMP JUMPDEST SWAP2 SWAP1 POP SSTORE POP PUSH2 0xA35 DUP2 PUSH2 0x1398 JUMP JUMPDEST PUSH2 0xA3E DUP2 PUSH2 0x1407 JUMP JUMPDEST POP JUMP JUMPDEST PUSH1 0x1 DUP2 DUP2 SLOAD DUP2 LT PUSH2 0xA51 JUMPI PUSH1 0x0 DUP1 REVERT JUMPDEST SWAP1 PUSH1 0x0 MSTORE PUSH1 0x20 PUSH1 0x0 KECCAK256 SWAP1 PUSH1 0x3 MUL ADD PUSH1 0x0 SWAP2 POP SWAP1 POP DUP1 PUSH1 0x0 ADD SLOAD SWAP1 DUP1 PUSH1 0x1 ADD PUSH1 0x0 SWAP1 SLOAD SWAP1 PUSH2 0x100 EXP SWAP1 DIV PUSH20 0xFFFFFFFFFFFFFFFFFFFFFFFFFFFFFFFFFFFFFFFF AND SWAP1 DUP1 PUSH1 0x1 ADD PUSH1 0x14 SWAP1 SLOAD SWAP1 PUSH2 0x100 EXP SWAP1 DIV PUSH1 0xFF AND SWAP1 DUP1 PUSH1 0x1 ADD PUSH1 0x15 SWAP1 SLOAD SWAP1 PUSH2 0x100 EXP SWAP1 DIV PUSH1 0xFF AND SWAP1 DUP1 PUSH1 0x2 ADD SLOAD SWAP1 POP DUP6 JUMP JUMPDEST PUSH1 0x0 DUP1 PUSH1 0x1 DUP2 PUSH1 0x1 DUP2 SLOAD ADD DUP1 DUP3 SSTORE DUP1 SWAP2 POP POP SUB SWAP1 PUSH1 0x0 MSTORE PUSH1 0x20 PUSH1 0x0 KECCAK256 SWAP1 PUSH1 0xF MUL ADD SWAP1 POP CALLER DUP2 PUSH1 0x1 ADD PUSH1 0x0 PUSH2 0x100 EXP DUP2 SLOAD DUP2 PUSH20 0xFFFFFFFFFFFFFFFFFFFFFFFFFFFFFFFFFFFFFFFF MUL NOT AND SWAP1 DUP4 PUSH20 0xFFFFFFFFFFFFFFFFFFFFFFFFFFFFFFFFFFFFFFFF AND MUL OR SWAP1 SSTORE POP DUP7 DUP2 PUSH1 0x2 ADD SWAP1 DUP1 MLOAD SWAP1 PUSH1 0x20 ADD SWAP1 PUSH2 0xB3F SWAP3 SWAP2 SWAP1 PUSH2 0x1516 JUMP JUMPDEST POP DUP6 DUP2 PUSH1 0x3 ADD SWAP1 DUP1 MLOAD SWAP1 PUSH1 0x20 ADD SWAP1 PUSH2 0xB58 SWAP3 SWAP2 SWAP1 PUSH2 0x1516 JUMP JUMPDEST POP DUP5 DUP2 PUSH1 0x4 ADD SWAP1 DUP1 MLOAD SWAP1 PUSH1 0x20 ADD SWAP1 PUSH2 0xB71 SWAP3 SWAP2 SWAP1 PUSH2 0x1516 JUMP JUMPDEST POP DUP4 DUP2 PUSH1 0x5 ADD DUP2 SWAP1 SSTORE POP PUSH1 0x1 PUSH1 0x0 DUP1 SLOAD SWAP1 POP PUSH2 0xB8D SWAP2 SWAP1 PUSH2 0x1CE7 JUMP JUMPDEST DUP2 PUSH1 0x0 ADD DUP2 SWAP1 SSTORE POP DUP3 DUP2 PUSH1 0x9 ADD DUP2 SWAP1 SSTORE POP DUP2 DUP2 PUSH1 0x6 ADD SWAP1 DUP1 MLOAD SWAP1 PUSH1 0x20 ADD SWAP1 PUSH2 0xBB6 SWAP3 SWAP2 SWAP1 PUSH2 0x1516 JUMP JUMPDEST POP PUSH1 0x0 DUP2 PUSH1 0x7 ADD DUP2 SWAP1 SSTORE POP POP POP POP POP POP POP POP JUMP JUMPDEST DUP1 PUSH1 0x0 PUSH1 0x1 DUP3 DUP2 SLOAD DUP2 LT PUSH2 0xBE1 JUMPI PUSH2 0xBE0 PUSH2 0x1F15 JUMP JUMPDEST JUMPDEST SWAP1 PUSH1 0x0 MSTORE PUSH1 0x20 PUSH1 0x0 KECCAK256 SWAP1 PUSH1 0x3 MUL ADD PUSH1 0x0 ADD SLOAD SWAP1 POP PUSH1 0x0 DUP2 DUP2 SLOAD DUP2 LT PUSH2 0xC09 JUMPI PUSH2 0xC08 PUSH2 0x1F15 JUMP JUMPDEST JUMPDEST SWAP1 PUSH1 0x0 MSTORE PUSH1 0x20 PUSH1 0x0 KECCAK256 SWAP1 PUSH1 0xF MUL ADD PUSH1 0xC ADD PUSH1 0x0 CALLER PUSH20 0xFFFFFFFFFFFFFFFFFFFFFFFFFFFFFFFFFFFFFFFF AND PUSH20 0xFFFFFFFFFFFFFFFFFFFFFFFFFFFFFFFFFFFFFFFF AND DUP2 MSTORE PUSH1 0x20 ADD SWAP1 DUP2 MSTORE PUSH1 0x20 ADD PUSH1 0x0 KECCAK256 PUSH1 0x0 SWAP1 SLOAD SWAP1 PUSH2 0x100 EXP SWAP1 DIV PUSH1 0xFF AND PUSH2 0xCA4 JUMPI PUSH1 0x40 MLOAD PUSH32 0x8C379A000000000000000000000000000000000000000000000000000000000 DUP2 MSTORE PUSH1 0x4 ADD PUSH2 0xC9B SWAP1 PUSH2 0x1A8A JUMP JUMPDEST PUSH1 0x40 MLOAD DUP1 SWAP2 SUB SWAP1 REVERT JUMPDEST PUSH1 0x0 PUSH1 0x1 DUP5 DUP2 SLOAD DUP2 LT PUSH2 0xCBA JUMPI PUSH2 0xCB9 PUSH2 0x1F15 JUMP JUMPDEST JUMPDEST SWAP1 PUSH1 0x0 MSTORE PUSH1 0x20 PUSH1 0x0 KECCAK256 SWAP1 PUSH1 0x3 MUL ADD PUSH1 0x0 ADD SLOAD SWAP1 POP PUSH1 0x0 DUP2 DUP2 SLOAD DUP2 LT PUSH2 0xCE2 JUMPI PUSH2 0xCE1 PUSH2 0x1F15 JUMP JUMPDEST JUMPDEST SWAP1 PUSH1 0x0 MSTORE PUSH1 0x20 PUSH1 0x0 KECCAK256 SWAP1 PUSH1 0xF MUL ADD PUSH1 0x1 ADD PUSH1 0x0 SWAP1 SLOAD SWAP1 PUSH2 0x100 EXP SWAP1 DIV PUSH20 0xFFFFFFFFFFFFFFFFFFFFFFFFFFFFFFFFFFFFFFFF AND PUSH20 0xFFFFFFFFFFFFFFFFFFFFFFFFFFFFFFFFFFFFFFFF AND PUSH2 0x8FC PUSH1 0x0 DUP4 DUP2 SLOAD DUP2 LT PUSH2 0xD41 JUMPI PUSH2 0xD40 PUSH2 0x1F15 JUMP JUMPDEST JUMPDEST SWAP1 PUSH1 0x0 MSTORE PUSH1 0x20 PUSH1 0x0 KECCAK256 SWAP1 PUSH1 0xF MUL ADD PUSH1 0x5 ADD SLOAD SWAP1 DUP2 ISZERO MUL SWAP1 PUSH1 0x40 MLOAD PUSH1 0x0 PUSH1 0x40 MLOAD DUP1 DUP4 SUB DUP2 DUP6 DUP9 DUP9 CALL SWAP4 POP POP POP POP ISZERO DUP1 ISZERO PUSH2 0xD7E JUMPI RETURNDATASIZE PUSH1 0x0 DUP1 RETURNDATACOPY RETURNDATASIZE PUSH1 0x0 REVERT JUMPDEST POP PUSH1 0x1 DUP1 DUP6 DUP2 SLOAD DUP2 LT PUSH2 0xD94 JUMPI PUSH2 0xD93 PUSH2 0x1F15 JUMP JUMPDEST JUMPDEST SWAP1 PUSH1 0x0 MSTORE PUSH1 0x20 PUSH1 0x0 KECCAK256 SWAP1 PUSH1 0x3 MUL ADD PUSH1 0x1 ADD PUSH1 0x14 PUSH2 0x100 EXP DUP2 SLOAD DUP2 PUSH1 0xFF MUL NOT AND SWAP1 DUP4 ISZERO ISZERO MUL OR SWAP1 SSTORE POP POP POP POP POP JUMP JUMPDEST PUSH1 0x0 DUP1 DUP1 SLOAD SWAP1 POP SWAP1 POP SWAP1 JUMP JUMPDEST PUSH1 0x60 DUP1 PUSH1 0x0 PUSH1 0x60 PUSH1 0x0 DUP1 DUP8 DUP2 SLOAD DUP2 LT PUSH2 0xDEA JUMPI PUSH2 0xDE9 PUSH2 0x1F15 JUMP JUMPDEST JUMPDEST SWAP1 PUSH1 0x0 MSTORE PUSH1 0x20 PUSH1 0x0 KECCAK256 SWAP1 PUSH1 0xF MUL ADD SWAP1 POP DUP1 PUSH1 0xD ADD PUSH1 0x0 DUP8 DUP2 MSTORE PUSH1 0x20 ADD SWAP1 DUP2 MSTORE PUSH1 0x20 ADD PUSH1 0x0 KECCAK256 PUSH1 0x0 ADD DUP2 PUSH1 0xD ADD PUSH1 0x0 DUP9 DUP2 MSTORE PUSH1 0x20 ADD SWAP1 DUP2 MSTORE PUSH1 0x20 ADD PUSH1 0x0 KECCAK256 PUSH1 0x1 ADD DUP3 PUSH1 0xD ADD PUSH1 0x0 DUP10 DUP2 MSTORE PUSH1 0x20 ADD SWAP1 DUP2 MSTORE PUSH1 0x20 ADD PUSH1 0x0 KECCAK256 PUSH1 0x2 ADD PUSH1 0x0 SWAP1 SLOAD SWAP1 PUSH2 0x100 EXP SWAP1 DIV PUSH1 0xFF AND DUP4 PUSH1 0xD ADD PUSH1 0x0 DUP11 DUP2 MSTORE PUSH1 0x20 ADD SWAP1 DUP2 MSTORE PUSH1 0x20 ADD PUSH1 0x0 KECCAK256 PUSH1 0x3 ADD DUP4 DUP1 SLOAD PUSH2 0xE74 SWAP1 PUSH2 0x1DDC JUMP JUMPDEST DUP1 PUSH1 0x1F ADD PUSH1 0x20 DUP1 SWAP2 DIV MUL PUSH1 0x20 ADD PUSH1 0x40 MLOAD SWAP1 DUP2 ADD PUSH1 0x40 MSTORE DUP1 SWAP3 SWAP2 SWAP1 DUP2 DUP2 MSTORE PUSH1 0x20 ADD DUP3 DUP1 SLOAD PUSH2 0xEA0 SWAP1 PUSH2 0x1DDC JUMP JUMPDEST DUP1 ISZERO PUSH2 0xEED JUMPI DUP1 PUSH1 0x1F LT PUSH2 0xEC2 JUMPI PUSH2 0x100 DUP1 DUP4 SLOAD DIV MUL DUP4 MSTORE SWAP2 PUSH1 0x20 ADD SWAP2 PUSH2 0xEED JUMP JUMPDEST DUP3 ADD SWAP2 SWAP1 PUSH1 0x0 MSTORE PUSH1 0x20 PUSH1 0x0 KECCAK256 SWAP1 JUMPDEST DUP2 SLOAD DUP2 MSTORE SWAP1 PUSH1 0x1 ADD SWAP1 PUSH1 0x20 ADD DUP1 DUP4 GT PUSH2 0xED0 JUMPI DUP3 SWAP1 SUB PUSH1 0x1F AND DUP3 ADD SWAP2 JUMPDEST POP POP POP POP POP SWAP4 POP DUP3 DUP1 SLOAD PUSH2 0xF00 SWAP1 PUSH2 0x1DDC JUMP JUMPDEST DUP1 PUSH1 0x1F ADD PUSH1 0x20 DUP1 SWAP2 DIV MUL PUSH1 0x20 ADD PUSH1 0x40 MLOAD SWAP1 DUP2 ADD PUSH1 0x40 MSTORE DUP1 SWAP3 SWAP2 SWAP1 DUP2 DUP2 MSTORE PUSH1 0x20 ADD DUP3 DUP1 SLOAD PUSH2 0xF2C SWAP1 PUSH2 0x1DDC JUMP JUMPDEST DUP1 ISZERO PUSH2 0xF79 JUMPI DUP1 PUSH1 0x1F LT PUSH2 0xF4E JUMPI PUSH2 0x100 DUP1 DUP4 SLOAD DIV MUL DUP4 MSTORE SWAP2 PUSH1 0x20 ADD SWAP2 PUSH2 0xF79 JUMP JUMPDEST DUP3 ADD SWAP2 SWAP1 PUSH1 0x0 MSTORE PUSH1 0x20 PUSH1 0x0 KECCAK256 SWAP1 JUMPDEST DUP2 SLOAD DUP2 MSTORE SWAP1 PUSH1 0x1 ADD SWAP1 PUSH1 0x20 ADD DUP1 DUP4 GT PUSH2 0xF5C JUMPI DUP3 SWAP1 SUB PUSH1 0x1F AND DUP3 ADD SWAP2 JUMPDEST POP POP POP POP POP SWAP3 POP DUP1 DUP1 SLOAD PUSH2 0xF8C SWAP1 PUSH2 0x1DDC JUMP JUMPDEST DUP1 PUSH1 0x1F ADD PUSH1 0x20 DUP1 SWAP2 DIV MUL PUSH1 0x20 ADD PUSH1 0x40 MLOAD SWAP1 DUP2 ADD PUSH1 0x40 MSTORE DUP1 SWAP3 SWAP2 SWAP1 DUP2 DUP2 MSTORE PUSH1 0x20 ADD DUP3 DUP1 SLOAD PUSH2 0xFB8 SWAP1 PUSH2 0x1DDC JUMP JUMPDEST DUP1 ISZERO PUSH2 0x1005 JUMPI DUP1 PUSH1 0x1F LT PUSH2 0xFDA JUMPI PUSH2 0x100 DUP1 DUP4 SLOAD DIV MUL DUP4 MSTORE SWAP2 PUSH1 0x20 ADD SWAP2 PUSH2 0x1005 JUMP JUMPDEST DUP3 ADD SWAP2 SWAP1 PUSH1 0x0 MSTORE PUSH1 0x20 PUSH1 0x0 KECCAK256 SWAP1 JUMPDEST DUP2 SLOAD DUP2 MSTORE SWAP1 PUSH1 0x1 ADD SWAP1 PUSH1 0x20 ADD DUP1 DUP4 GT PUSH2 0xFE8 JUMPI DUP3 SWAP1 SUB PUSH1 0x1F AND DUP3 ADD SWAP2 JUMPDEST POP POP POP POP POP SWAP1 POP SWAP5 POP SWAP5 POP SWAP5 POP SWAP5 POP POP SWAP3 SWAP6 SWAP2 SWAP5 POP SWAP3 POP JUMP JUMPDEST PUSH1 0x0 DUP2 DUP2 SLOAD DUP2 LT PUSH2 0x102E JUMPI PUSH1 0x0 DUP1 REVERT JUMPDEST SWAP1 PUSH1 0x0 MSTORE PUSH1 0x20 PUSH1 0x0 KECCAK256 SWAP1 PUSH1 0xF MUL ADD PUSH1 0x0 SWAP2 POP SWAP1 POP DUP1 PUSH1 0x0 ADD SLOAD SWAP1 DUP1 PUSH1 0x1 ADD PUSH1 0x0 SWAP1 SLOAD SWAP1 PUSH2 0x100 EXP SWAP1 DIV PUSH20 0xFFFFFFFFFFFFFFFFFFFFFFFFFFFFFFFFFFFFFFFF AND SWAP1 DUP1 PUSH1 0x2 ADD DUP1 SLOAD PUSH2 0x107D SWAP1 PUSH2 0x1DDC JUMP JUMPDEST DUP1 PUSH1 0x1F ADD PUSH1 0x20 DUP1 SWAP2 DIV MUL PUSH1 0x20 ADD PUSH1 0x40 MLOAD SWAP1 DUP2 ADD PUSH1 0x40 MSTORE DUP1 SWAP3 SWAP2 SWAP1 DUP2 DUP2 MSTORE PUSH1 0x20 ADD DUP3 DUP1 SLOAD PUSH2 0x10A9 SWAP1 PUSH2 0x1DDC JUMP JUMPDEST DUP1 ISZERO PUSH2 0x10F6 JUMPI DUP1 PUSH1 0x1F LT PUSH2 0x10CB JUMPI PUSH2 0x100 DUP1 DUP4 SLOAD DIV MUL DUP4 MSTORE SWAP2 PUSH1 0x20 ADD SWAP2 PUSH2 0x10F6 JUMP JUMPDEST DUP3 ADD SWAP2 SWAP1 PUSH1 0x0 MSTORE PUSH1 0x20 PUSH1 0x0 KECCAK256 SWAP1 JUMPDEST DUP2 SLOAD DUP2 MSTORE SWAP1 PUSH1 0x1 ADD SWAP1 PUSH1 0x20 ADD DUP1 DUP4 GT PUSH2 0x10D9 JUMPI DUP3 SWAP1 SUB PUSH1 0x1F AND DUP3 ADD SWAP2 JUMPDEST POP POP POP POP POP SWAP1 DUP1 PUSH1 0x3 ADD DUP1 SLOAD PUSH2 0x110B SWAP1 PUSH2 0x1DDC JUMP JUMPDEST DUP1 PUSH1 0x1F ADD PUSH1 0x20 DUP1 SWAP2 DIV MUL PUSH1 0x20 ADD PUSH1 0x40 MLOAD SWAP1 DUP2 ADD PUSH1 0x40 MSTORE DUP1 SWAP3 SWAP2 SWAP1 DUP2 DUP2 MSTORE PUSH1 0x20 ADD DUP3 DUP1 SLOAD PUSH2 0x1137 SWAP1 PUSH2 0x1DDC JUMP JUMPDEST DUP1 ISZERO PUSH2 0x1184 JUMPI DUP1 PUSH1 0x1F LT PUSH2 0x1159 JUMPI PUSH2 0x100 DUP1 DUP4 SLOAD DIV MUL DUP4 MSTORE SWAP2 PUSH1 0x20 ADD SWAP2 PUSH2 0x1184 JUMP JUMPDEST DUP3 ADD SWAP2 SWAP1 PUSH1 0x0 MSTORE PUSH1 0x20 PUSH1 0x0 KECCAK256 SWAP1 JUMPDEST DUP2 SLOAD DUP2 MSTORE SWAP1 PUSH1 0x1 ADD SWAP1 PUSH1 0x20 ADD DUP1 DUP4 GT PUSH2 0x1167 JUMPI DUP3 SWAP1 SUB PUSH1 0x1F AND DUP3 ADD SWAP2 JUMPDEST POP POP POP POP POP SWAP1 DUP1 PUSH1 0x4 ADD DUP1 SLOAD PUSH2 0x1199 SWAP1 PUSH2 0x1DDC JUMP JUMPDEST DUP1 PUSH1 0x1F ADD PUSH1 0x20 DUP1 SWAP2 DIV MUL PUSH1 0x20 ADD PUSH1 0x40 MLOAD SWAP1 DUP2 ADD PUSH1 0x40 MSTORE DUP1 SWAP3 SWAP2 SWAP1 DUP2 DUP2 MSTORE PUSH1 0x20 ADD DUP3 DUP1 SLOAD PUSH2 0x11C5 SWAP1 PUSH2 0x1DDC JUMP JUMPDEST DUP1 ISZERO PUSH2 0x1212 JUMPI DUP1 PUSH1 0x1F LT PUSH2 0x11E7 JUMPI PUSH2 0x100 DUP1 DUP4 SLOAD DIV MUL DUP4 MSTORE SWAP2 PUSH1 0x20 ADD SWAP2 PUSH2 0x1212 JUMP JUMPDEST DUP3 ADD SWAP2 SWAP1 PUSH1 0x0 MSTORE PUSH1 0x20 PUSH1 0x0 KECCAK256 SWAP1 JUMPDEST DUP2 SLOAD DUP2 MSTORE SWAP1 PUSH1 0x1 ADD SWAP1 PUSH1 0x20 ADD DUP1 DUP4 GT PUSH2 0x11F5 JUMPI DUP3 SWAP1 SUB PUSH1 0x1F AND DUP3 ADD SWAP2 JUMPDEST POP POP POP POP POP SWAP1 DUP1 PUSH1 0x5 ADD SLOAD SWAP1 DUP1 PUSH1 0x6 ADD DUP1 SLOAD PUSH2 0x122D SWAP1 PUSH2 0x1DDC JUMP JUMPDEST DUP1 PUSH1 0x1F ADD PUSH1 0x20 DUP1 SWAP2 DIV MUL PUSH1 0x20 ADD PUSH1 0x40 MLOAD SWAP1 DUP2 ADD PUSH1 0x40 MSTORE DUP1 SWAP3 SWAP2 SWAP1 DUP2 DUP2 MSTORE PUSH1 0x20 ADD DUP3 DUP1 SLOAD PUSH2 0x1259 SWAP1 PUSH2 0x1DDC JUMP JUMPDEST DUP1 ISZERO PUSH2 0x12A6 JUMPI DUP1 PUSH1 0x1F LT PUSH2 0x127B JUMPI PUSH2 0x100 DUP1 DUP4 SLOAD DIV MUL DUP4 MSTORE SWAP2 PUSH1 0x20 ADD SWAP2 PUSH2 0x12A6 JUMP JUMPDEST DUP3 ADD SWAP2 SWAP1 PUSH1 0x0 MSTORE PUSH1 0x20 PUSH1 0x0 KECCAK256 SWAP1 JUMPDEST DUP2 SLOAD DUP2 MSTORE SWAP1 PUSH1 0x1 ADD SWAP1 PUSH1 0x20 ADD DUP1 DUP4 GT PUSH2 0x1289 JUMPI DUP3 SWAP1 SUB PUSH1 0x1F AND DUP3 ADD SWAP2 JUMPDEST POP POP POP POP POP SWAP1 DUP1 PUSH1 0x7 ADD SLOAD SWAP1 DUP1 PUSH1 0x8 ADD PUSH1 0x0 SWAP1 SLOAD SWAP1 PUSH2 0x100 EXP SWAP1 DIV PUSH1 0xFF AND SWAP1 DUP1 PUSH1 0x9 ADD SLOAD SWAP1 DUP1 PUSH1 0xB ADD SLOAD SWAP1 DUP1 PUSH1 0xE ADD SLOAD SWAP1 POP DUP13 JUMP JUMPDEST PUSH1 0x2 PUSH1 0x0 SWAP1 SLOAD SWAP1 PUSH2 0x100 EXP SWAP1 DIV PUSH20 0xFFFFFFFFFFFFFFFFFFFFFFFFFFFFFFFFFFFFFFFF AND PUSH20 0xFFFFFFFFFFFFFFFFFFFFFFFFFFFFFFFFFFFFFFFF AND CALLER PUSH20 0xFFFFFFFFFFFFFFFFFFFFFFFFFFFFFFFFFFFFFFFF AND EQ PUSH2 0x136B JUMPI PUSH1 0x40 MLOAD PUSH32 0x8C379A000000000000000000000000000000000000000000000000000000000 DUP2 MSTORE PUSH1 0x4 ADD PUSH2 0x1362 SWAP1 PUSH2 0x1A0A JUMP JUMPDEST PUSH1 0x40 MLOAD DUP1 SWAP2 SUB SWAP1 REVERT JUMPDEST TIMESTAMP PUSH1 0x1 DUP3 DUP2 SLOAD DUP2 LT PUSH2 0x1380 JUMPI PUSH2 0x137F PUSH2 0x1F15 JUMP JUMPDEST JUMPDEST SWAP1 PUSH1 0x0 MSTORE PUSH1 0x20 PUSH1 0x0 KECCAK256 SWAP1 PUSH1 0x3 MUL ADD PUSH1 0x2 ADD DUP2 SWAP1 SSTORE POP POP JUMP JUMPDEST PUSH1 0x0 DUP1 DUP3 DUP2 SLOAD DUP2 LT PUSH2 0x13AD JUMPI PUSH2 0x13AC PUSH2 0x1F15 JUMP JUMPDEST JUMPDEST SWAP1 PUSH1 0x0 MSTORE PUSH1 0x20 PUSH1 0x0 KECCAK256 SWAP1 PUSH1 0xF MUL ADD PUSH1 0x9 ADD SLOAD EQ ISZERO PUSH2 0x1404 JUMPI PUSH1 0x1 PUSH1 0x0 DUP3 DUP2 SLOAD DUP2 LT PUSH2 0x13DB JUMPI PUSH2 0x13DA PUSH2 0x1F15 JUMP JUMPDEST JUMPDEST SWAP1 PUSH1 0x0 MSTORE PUSH1 0x20 PUSH1 0x0 KECCAK256 SWAP1 PUSH1 0xF MUL ADD PUSH1 0x8 ADD PUSH1 0x0 PUSH2 0x100 EXP DUP2 SLOAD DUP2 PUSH1 0xFF MUL NOT AND SWAP1 DUP4 ISZERO ISZERO MUL OR SWAP1 SSTORE POP JUMPDEST POP JUMP JUMPDEST PUSH1 0x1 PUSH1 0x40 MLOAD DUP1 PUSH1 0xA0 ADD PUSH1 0x40 MSTORE DUP1 DUP4 DUP2 MSTORE PUSH1 0x20 ADD CALLER PUSH20 0xFFFFFFFFFFFFFFFFFFFFFFFFFFFFFFFFFFFFFFFF AND DUP2 MSTORE PUSH1 0x20 ADD PUSH1 0x0 ISZERO ISZERO DUP2 MSTORE PUSH1 0x20 ADD PUSH1 0x0 ISZERO ISZERO DUP2 MSTORE PUSH1 0x20 ADD PUSH1 0x0 DUP2 MSTORE POP SWAP1 DUP1 PUSH1 0x1 DUP2 SLOAD ADD DUP1 DUP3 SSTORE DUP1 SWAP2 POP POP PUSH1 0x1 SWAP1 SUB SWAP1 PUSH1 0x0 MSTORE PUSH1 0x20 PUSH1 0x0 KECCAK256 SWAP1 PUSH1 0x3 MUL ADD PUSH1 0x0 SWAP1 SWAP2 SWAP1 SWAP2 SWAP1 SWAP2 POP PUSH1 0x0 DUP3 ADD MLOAD DUP2 PUSH1 0x0 ADD SSTORE PUSH1 0x20 DUP3 ADD MLOAD DUP2 PUSH1 0x1 ADD PUSH1 0x0 PUSH2 0x100 EXP DUP2 SLOAD DUP2 PUSH20 0xFFFFFFFFFFFFFFFFFFFFFFFFFFFFFFFFFFFFFFFF MUL NOT AND SWAP1 DUP4 PUSH20 0xFFFFFFFFFFFFFFFFFFFFFFFFFFFFFFFFFFFFFFFF AND MUL OR SWAP1 SSTORE POP PUSH1 0x40 DUP3 ADD MLOAD DUP2 PUSH1 0x1 ADD PUSH1 0x14 PUSH2 0x100 EXP DUP2 SLOAD DUP2 PUSH1 0xFF MUL NOT AND SWAP1 DUP4 ISZERO ISZERO MUL OR SWAP1 SSTORE POP PUSH1 0x60 DUP3 ADD MLOAD DUP2 PUSH1 0x1 ADD PUSH1 0x15 PUSH2 0x100 EXP DUP2 SLOAD DUP2 PUSH1 0xFF MUL NOT AND SWAP1 DUP4 ISZERO ISZERO MUL OR SWAP1 SSTORE POP PUSH1 0x80 DUP3 ADD MLOAD DUP2 PUSH1 0x2 ADD SSTORE POP POP POP JUMP JUMPDEST DUP3 DUP1 SLOAD PUSH2 0x1522 SWAP1 PUSH2 0x1DDC JUMP JUMPDEST SWAP1 PUSH1 0x0 MSTORE PUSH1 0x20 PUSH1 0x0 KECCAK256 SWAP1 PUSH1 0x1F ADD PUSH1 0x20 SWAP1 DIV DUP2 ADD SWAP3 DUP3 PUSH2 0x1544 JUMPI PUSH1 0x0 DUP6 SSTORE PUSH2 0x158B JUMP JUMPDEST DUP3 PUSH1 0x1F LT PUSH2 0x155D JUMPI DUP1 MLOAD PUSH1 0xFF NOT AND DUP4 DUP1 ADD OR DUP6 SSTORE PUSH2 0x158B JUMP JUMPDEST DUP3 DUP1 ADD PUSH1 0x1 ADD DUP6 SSTORE DUP3 ISZERO PUSH2 0x158B JUMPI SWAP2 DUP3 ADD JUMPDEST DUP3 DUP2 GT ISZERO PUSH2 0x158A JUMPI DUP3 MLOAD DUP3 SSTORE SWAP2 PUSH1 0x20 ADD SWAP2 SWAP1 PUSH1 0x1 ADD SWAP1 PUSH2 0x156F JUMP JUMPDEST JUMPDEST POP SWAP1 POP PUSH2 0x1598 SWAP2 SWAP1 PUSH2 0x159C JUMP JUMPDEST POP SWAP1 JUMP JUMPDEST JUMPDEST DUP1 DUP3 GT ISZERO PUSH2 0x15B5 JUMPI PUSH1 0x0 DUP2 PUSH1 0x0 SWAP1 SSTORE POP PUSH1 0x1 ADD PUSH2 0x159D JUMP JUMPDEST POP SWAP1 JUMP JUMPDEST PUSH1 0x0 PUSH2 0x15CC PUSH2 0x15C7 DUP5 PUSH2 0x1C13 JUMP JUMPDEST PUSH2 0x1BEE JUMP JUMPDEST SWAP1 POP DUP3 DUP2 MSTORE PUSH1 0x20 DUP2 ADD DUP5 DUP5 DUP5 ADD GT ISZERO PUSH2 0x15E8 JUMPI PUSH2 0x15E7 PUSH2 0x1F78 JUMP JUMPDEST JUMPDEST PUSH2 0x15F3 DUP5 DUP3 DUP6 PUSH2 0x1D70 JUMP JUMPDEST POP SWAP4 SWAP3 POP POP POP JUMP JUMPDEST PUSH1 0x0 DUP3 PUSH1 0x1F DUP4 ADD SLT PUSH2 0x1610 JUMPI PUSH2 0x160F PUSH2 0x1F73 JUMP JUMPDEST JUMPDEST DUP2 CALLDATALOAD PUSH2 0x1620 DUP5 DUP3 PUSH1 0x20 DUP7 ADD PUSH2 0x15B9 JUMP JUMPDEST SWAP2 POP POP SWAP3 SWAP2 POP POP JUMP JUMPDEST PUSH1 0x0 DUP2 CALLDATALOAD SWAP1 POP PUSH2 0x1638 DUP2 PUSH2 0x20D7 JUMP JUMPDEST SWAP3 SWAP2 POP POP JUMP JUMPDEST PUSH1 0x0 DUP2 CALLDATALOAD SWAP1 POP PUSH2 0x164D DUP2 PUSH2 0x20EE JUMP JUMPDEST SWAP3 SWAP2 POP POP JUMP JUMPDEST PUSH1 0x0 DUP1 PUSH1 0x0 DUP1 PUSH1 0x0 DUP1 PUSH1 0xC0 DUP8 DUP10 SUB SLT ISZERO PUSH2 0x1670 JUMPI PUSH2 0x166F PUSH2 0x1F82 JUMP JUMPDEST JUMPDEST PUSH1 0x0 DUP8 ADD CALLDATALOAD PUSH8 0xFFFFFFFFFFFFFFFF DUP2 GT ISZERO PUSH2 0x168E JUMPI PUSH2 0x168D PUSH2 0x1F7D JUMP JUMPDEST JUMPDEST PUSH2 0x169A DUP10 DUP3 DUP11 ADD PUSH2 0x15FB JUMP JUMPDEST SWAP7 POP POP PUSH1 0x20 DUP8 ADD CALLDATALOAD PUSH8 0xFFFFFFFFFFFFFFFF DUP2 GT ISZERO PUSH2 0x16BB JUMPI PUSH2 0x16BA PUSH2 0x1F7D JUMP JUMPDEST JUMPDEST PUSH2 0x16C7 DUP10 DUP3 DUP11 ADD PUSH2 0x15FB JUMP JUMPDEST SWAP6 POP POP PUSH1 0x40 DUP8 ADD CALLDATALOAD PUSH8 0xFFFFFFFFFFFFFFFF DUP2 GT ISZERO PUSH2 0x16E8 JUMPI PUSH2 0x16E7 PUSH2 0x1F7D JUMP JUMPDEST JUMPDEST PUSH2 0x16F4 DUP10 DUP3 DUP11 ADD PUSH2 0x15FB JUMP JUMPDEST SWAP5 POP POP PUSH1 0x60 PUSH2 0x1705 DUP10 DUP3 DUP11 ADD PUSH2 0x1629 JUMP JUMPDEST SWAP4 POP POP PUSH1 0x80 PUSH2 0x1716 DUP10 DUP3 DUP11 ADD PUSH2 0x1629 JUMP JUMPDEST SWAP3 POP POP PUSH1 0xA0 DUP8 ADD CALLDATALOAD PUSH8 0xFFFFFFFFFFFFFFFF DUP2 GT ISZERO PUSH2 0x1737 JUMPI PUSH2 0x1736 PUSH2 0x1F7D JUMP JUMPDEST JUMPDEST PUSH2 0x1743 DUP10 DUP3 DUP11 ADD PUSH2 0x15FB JUMP JUMPDEST SWAP2 POP POP SWAP3 SWAP6 POP SWAP3 SWAP6 POP SWAP3 SWAP6 JUMP JUMPDEST PUSH1 0x0 PUSH1 0x20 DUP3 DUP5 SUB SLT ISZERO PUSH2 0x1766 JUMPI PUSH2 0x1765 PUSH2 0x1F82 JUMP JUMPDEST JUMPDEST PUSH1 0x0 PUSH2 0x1774 DUP5 DUP3 DUP6 ADD PUSH2 0x1629 JUMP JUMPDEST SWAP2 POP POP SWAP3 SWAP2 POP POP JUMP JUMPDEST PUSH1 0x0 DUP1 PUSH1 0x0 DUP1 PUSH1 0x0 PUSH1 0xA0 DUP7 DUP9 SUB SLT ISZERO PUSH2 0x1799 JUMPI PUSH2 0x1798 PUSH2 0x1F82 JUMP JUMPDEST JUMPDEST PUSH1 0x0 PUSH2 0x17A7 DUP9 DUP3 DUP10 ADD PUSH2 0x1629 JUMP JUMPDEST SWAP6 POP POP PUSH1 0x20 DUP7 ADD CALLDATALOAD PUSH8 0xFFFFFFFFFFFFFFFF DUP2 GT ISZERO PUSH2 0x17C8 JUMPI PUSH2 0x17C7 PUSH2 0x1F7D JUMP JUMPDEST JUMPDEST PUSH2 0x17D4 DUP9 DUP3 DUP10 ADD PUSH2 0x15FB JUMP JUMPDEST SWAP5 POP POP PUSH1 0x40 DUP7 ADD CALLDATALOAD PUSH8 0xFFFFFFFFFFFFFFFF DUP2 GT ISZERO PUSH2 0x17F5 JUMPI PUSH2 0x17F4 PUSH2 0x1F7D JUMP JUMPDEST JUMPDEST PUSH2 0x1801 DUP9 DUP3 DUP10 ADD PUSH2 0x15FB JUMP JUMPDEST SWAP4 POP POP PUSH1 0x60 DUP7 ADD CALLDATALOAD PUSH8 0xFFFFFFFFFFFFFFFF DUP2 GT ISZERO PUSH2 0x1822 JUMPI PUSH2 0x1821 PUSH2 0x1F7D JUMP JUMPDEST JUMPDEST PUSH2 0x182E DUP9 DUP3 DUP10 ADD PUSH2 0x15FB JUMP JUMPDEST SWAP3 POP POP PUSH1 0x80 PUSH2 0x183F DUP9 DUP3 DUP10 ADD PUSH2 0x163E JUMP JUMPDEST SWAP2 POP POP SWAP3 SWAP6 POP SWAP3 SWAP6 SWAP1 SWAP4 POP JUMP JUMPDEST PUSH1 0x0 DUP1 PUSH1 0x40 DUP4 DUP6 SUB SLT ISZERO PUSH2 0x1863 JUMPI PUSH2 0x1862 PUSH2 0x1F82 JUMP JUMPDEST JUMPDEST PUSH1 0x0 PUSH2 0x1871 DUP6 DUP3 DUP7 ADD PUSH2 0x1629 JUMP JUMPDEST SWAP3 POP POP PUSH1 0x20 PUSH2 0x1882 DUP6 DUP3 DUP7 ADD PUSH2 0x1629 JUMP JUMPDEST SWAP2 POP POP SWAP3 POP SWAP3 SWAP1 POP JUMP JUMPDEST PUSH2 0x1895 DUP2 PUSH2 0x1D1B JUMP JUMPDEST DUP3 MSTORE POP POP JUMP JUMPDEST PUSH2 0x18A4 DUP2 PUSH2 0x1D2D JUMP JUMPDEST DUP3 MSTORE POP POP JUMP JUMPDEST PUSH1 0x0 PUSH2 0x18B5 DUP3 PUSH2 0x1C44 JUMP JUMPDEST PUSH2 0x18BF DUP2 DUP6 PUSH2 0x1C4F JUMP JUMPDEST SWAP4 POP PUSH2 0x18CF DUP2 DUP6 PUSH1 0x20 DUP7 ADD PUSH2 0x1D7F JUMP JUMPDEST PUSH2 0x18D8 DUP2 PUSH2 0x1F87 JUMP JUMPDEST DUP5 ADD SWAP2 POP POP SWAP3 SWAP2 POP POP JUMP JUMPDEST PUSH1 0x0 PUSH2 0x18F0 PUSH1 0x26 DUP4 PUSH2 0x1C4F JUMP JUMPDEST SWAP2 POP PUSH2 0x18FB DUP3 PUSH2 0x1F98 JUMP JUMPDEST PUSH1 0x40 DUP3 ADD SWAP1 POP SWAP2 SWAP1 POP JUMP JUMPDEST PUSH1 0x0 PUSH2 0x1913 PUSH1 0x11 DUP4 PUSH2 0x1C4F JUMP JUMPDEST SWAP2 POP PUSH2 0x191E DUP3 PUSH2 0x1FE7 JUMP JUMPDEST PUSH1 0x20 DUP3 ADD SWAP1 POP SWAP2 SWAP1 POP JUMP JUMPDEST PUSH1 0x0 PUSH2 0x1936 PUSH1 0x25 DUP4 PUSH2 0x1C4F JUMP JUMPDEST SWAP2 POP PUSH2 0x1941 DUP3 PUSH2 0x2010 JUMP JUMPDEST PUSH1 0x40 DUP3 ADD SWAP1 POP SWAP2 SWAP1 POP JUMP JUMPDEST PUSH1 0x0 PUSH2 0x1959 PUSH1 0x33 DUP4 PUSH2 0x1C4F JUMP JUMPDEST SWAP2 POP PUSH2 0x1964 DUP3 PUSH2 0x205F JUMP JUMPDEST PUSH1 0x40 DUP3 ADD SWAP1 POP SWAP2 SWAP1 POP JUMP JUMPDEST PUSH1 0x0 PUSH2 0x197C PUSH1 0x1C DUP4 PUSH2 0x1C4F JUMP JUMPDEST SWAP2 POP PUSH2 0x1987 DUP3 PUSH2 0x20AE JUMP JUMPDEST PUSH1 0x20 DUP3 ADD SWAP1 POP SWAP2 SWAP1 POP JUMP JUMPDEST PUSH2 0x199B DUP2 PUSH2 0x1D59 JUMP JUMPDEST DUP3 MSTORE POP POP JUMP JUMPDEST PUSH2 0x19AA DUP2 PUSH2 0x1D63 JUMP JUMPDEST DUP3 MSTORE POP POP JUMP JUMPDEST PUSH1 0x0 PUSH1 0x80 DUP3 ADD SWAP1 POP DUP2 DUP2 SUB PUSH1 0x0 DUP4 ADD MSTORE PUSH2 0x19CA DUP2 DUP8 PUSH2 0x18AA JUMP JUMPDEST SWAP1 POP DUP2 DUP2 SUB PUSH1 0x20 DUP4 ADD MSTORE PUSH2 0x19DE DUP2 DUP7 PUSH2 0x18AA JUMP JUMPDEST SWAP1 POP PUSH2 0x19ED PUSH1 0x40 DUP4 ADD DUP6 PUSH2 0x19A1 JUMP JUMPDEST DUP2 DUP2 SUB PUSH1 0x60 DUP4 ADD MSTORE PUSH2 0x19FF DUP2 DUP5 PUSH2 0x18AA JUMP JUMPDEST SWAP1 POP SWAP6 SWAP5 POP POP POP POP POP JUMP JUMPDEST PUSH1 0x0 PUSH1 0x20 DUP3 ADD SWAP1 POP DUP2 DUP2 SUB PUSH1 0x0 DUP4 ADD MSTORE PUSH2 0x1A23 DUP2 PUSH2 0x18E3 JUMP JUMPDEST SWAP1 POP SWAP2 SWAP1 POP JUMP JUMPDEST PUSH1 0x0 PUSH1 0x20 DUP3 ADD SWAP1 POP DUP2 DUP2 SUB PUSH1 0x0 DUP4 ADD MSTORE PUSH2 0x1A43 DUP2 PUSH2 0x1906 JUMP JUMPDEST SWAP1 POP SWAP2 SWAP1 POP JUMP JUMPDEST PUSH1 0x0 PUSH1 0x20 DUP3 ADD SWAP1 POP DUP2 DUP2 SUB PUSH1 0x0 DUP4 ADD MSTORE PUSH2 0x1A63 DUP2 PUSH2 0x1929 JUMP JUMPDEST SWAP1 POP SWAP2 SWAP1 POP JUMP JUMPDEST PUSH1 0x0 PUSH1 0x20 DUP3 ADD SWAP1 POP DUP2 DUP2 SUB PUSH1 0x0 DUP4 ADD MSTORE PUSH2 0x1A83 DUP2 PUSH2 0x194C JUMP JUMPDEST SWAP1 POP SWAP2 SWAP1 POP JUMP JUMPDEST PUSH1 0x0 PUSH1 0x20 DUP3 ADD SWAP1 POP DUP2 DUP2 SUB PUSH1 0x0 DUP4 ADD MSTORE PUSH2 0x1AA3 DUP2 PUSH2 0x196F JUMP JUMPDEST SWAP1 POP SWAP2 SWAP1 POP JUMP JUMPDEST PUSH1 0x0 PUSH1 0x20 DUP3 ADD SWAP1 POP PUSH2 0x1ABF PUSH1 0x0 DUP4 ADD DUP5 PUSH2 0x1992 JUMP JUMPDEST SWAP3 SWAP2 POP POP JUMP JUMPDEST PUSH1 0x0 PUSH1 0xA0 DUP3 ADD SWAP1 POP PUSH2 0x1ADA PUSH1 0x0 DUP4 ADD DUP9 PUSH2 0x1992 JUMP JUMPDEST PUSH2 0x1AE7 PUSH1 0x20 DUP4 ADD DUP8 PUSH2 0x188C JUMP JUMPDEST PUSH2 0x1AF4 PUSH1 0x40 DUP4 ADD DUP7 PUSH2 0x189B JUMP JUMPDEST PUSH2 0x1B01 PUSH1 0x60 DUP4 ADD DUP6 PUSH2 0x189B JUMP JUMPDEST PUSH2 0x1B0E PUSH1 0x80 DUP4 ADD DUP5 PUSH2 0x1992 JUMP JUMPDEST SWAP7 SWAP6 POP POP POP POP POP POP JUMP JUMPDEST PUSH1 0x0 PUSH2 0x180 DUP3 ADD SWAP1 POP PUSH2 0x1B2E PUSH1 0x0 DUP4 ADD DUP16 PUSH2 0x1992 JUMP JUMPDEST PUSH2 0x1B3B PUSH1 0x20 DUP4 ADD DUP15 PUSH2 0x188C JUMP JUMPDEST DUP2 DUP2 SUB PUSH1 0x40 DUP4 ADD MSTORE PUSH2 0x1B4D DUP2 DUP14 PUSH2 0x18AA JUMP JUMPDEST SWAP1 POP DUP2 DUP2 SUB PUSH1 0x60 DUP4 ADD MSTORE PUSH2 0x1B61 DUP2 DUP13 PUSH2 0x18AA JUMP JUMPDEST SWAP1 POP DUP2 DUP2 SUB PUSH1 0x80 DUP4 ADD MSTORE PUSH2 0x1B75 DUP2 DUP12 PUSH2 0x18AA JUMP JUMPDEST SWAP1 POP PUSH2 0x1B84 PUSH1 0xA0 DUP4 ADD DUP11 PUSH2 0x1992 JUMP JUMPDEST DUP2 DUP2 SUB PUSH1 0xC0 DUP4 ADD MSTORE PUSH2 0x1B96 DUP2 DUP10 PUSH2 0x18AA JUMP JUMPDEST SWAP1 POP PUSH2 0x1BA5 PUSH1 0xE0 DUP4 ADD DUP9 PUSH2 0x1992 JUMP JUMPDEST PUSH2 0x1BB3 PUSH2 0x100 DUP4 ADD DUP8 PUSH2 0x189B JUMP JUMPDEST PUSH2 0x1BC1 PUSH2 0x120 DUP4 ADD DUP7 PUSH2 0x1992 JUMP JUMPDEST PUSH2 0x1BCF PUSH2 0x140 DUP4 ADD DUP6 PUSH2 0x1992 JUMP JUMPDEST PUSH2 0x1BDD PUSH2 0x160 DUP4 ADD DUP5 PUSH2 0x1992 JUMP JUMPDEST SWAP14 SWAP13 POP POP POP POP POP POP POP POP POP POP POP POP POP JUMP JUMPDEST PUSH1 0x0 PUSH2 0x1BF8 PUSH2 0x1C09 JUMP JUMPDEST SWAP1 POP PUSH2 0x1C04 DUP3 DUP3 PUSH2 0x1E0E JUMP JUMPDEST SWAP2 SWAP1 POP JUMP JUMPDEST PUSH1 0x0 PUSH1 0x40 MLOAD SWAP1 POP SWAP1 JUMP JUMPDEST PUSH1 0x0 PUSH8 0xFFFFFFFFFFFFFFFF DUP3 GT ISZERO PUSH2 0x1C2E JUMPI PUSH2 0x1C2D PUSH2 0x1F44 JUMP JUMPDEST JUMPDEST PUSH2 0x1C37 DUP3 PUSH2 0x1F87 JUMP JUMPDEST SWAP1 POP PUSH1 0x20 DUP2 ADD SWAP1 POP SWAP2 SWAP1 POP JUMP JUMPDEST PUSH1 0x0 DUP2 MLOAD SWAP1 POP SWAP2 SWAP1 POP JUMP JUMPDEST PUSH1 0x0 DUP3 DUP3 MSTORE PUSH1 0x20 DUP3 ADD SWAP1 POP SWAP3 SWAP2 POP POP JUMP JUMPDEST PUSH1 0x0 PUSH2 0x1C6B DUP3 PUSH2 0x1D59 JUMP JUMPDEST SWAP2 POP PUSH2 0x1C76 DUP4 PUSH2 0x1D59 JUMP JUMPDEST SWAP3 POP DUP3 PUSH32 0xFFFFFFFFFFFFFFFFFFFFFFFFFFFFFFFFFFFFFFFFFFFFFFFFFFFFFFFFFFFFFFFF SUB DUP3 GT ISZERO PUSH2 0x1CAB JUMPI PUSH2 0x1CAA PUSH2 0x1E88 JUMP JUMPDEST JUMPDEST DUP3 DUP3 ADD SWAP1 POP SWAP3 SWAP2 POP POP JUMP JUMPDEST PUSH1 0x0 PUSH2 0x1CC1 DUP3 PUSH2 0x1D59 JUMP JUMPDEST SWAP2 POP PUSH2 0x1CCC DUP4 PUSH2 0x1D59 JUMP JUMPDEST SWAP3 POP DUP3 PUSH2 0x1CDC JUMPI PUSH2 0x1CDB PUSH2 0x1EB7 JUMP JUMPDEST JUMPDEST DUP3 DUP3 DIV SWAP1 POP SWAP3 SWAP2 POP POP JUMP JUMPDEST PUSH1 0x0 PUSH2 0x1CF2 DUP3 PUSH2 0x1D59 JUMP JUMPDEST SWAP2 POP PUSH2 0x1CFD DUP4 PUSH2 0x1D59 JUMP JUMPDEST SWAP3 POP DUP3 DUP3 LT ISZERO PUSH2 0x1D10 JUMPI PUSH2 0x1D0F PUSH2 0x1E88 JUMP JUMPDEST JUMPDEST DUP3 DUP3 SUB SWAP1 POP SWAP3 SWAP2 POP POP JUMP JUMPDEST PUSH1 0x0 PUSH2 0x1D26 DUP3 PUSH2 0x1D39 JUMP JUMPDEST SWAP1 POP SWAP2 SWAP1 POP JUMP JUMPDEST PUSH1 0x0 DUP2 ISZERO ISZERO SWAP1 POP SWAP2 SWAP1 POP JUMP JUMPDEST PUSH1 0x0 PUSH20 0xFFFFFFFFFFFFFFFFFFFFFFFFFFFFFFFFFFFFFFFF DUP3 AND SWAP1 POP SWAP2 SWAP1 POP JUMP JUMPDEST PUSH1 0x0 DUP2 SWAP1 POP SWAP2 SWAP1 POP JUMP JUMPDEST PUSH1 0x0 PUSH1 0xFF DUP3 AND SWAP1 POP SWAP2 SWAP1 POP JUMP JUMPDEST DUP3 DUP2 DUP4 CALLDATACOPY PUSH1 0x0 DUP4 DUP4 ADD MSTORE POP POP POP JUMP JUMPDEST PUSH1 0x0 JUMPDEST DUP4 DUP2 LT ISZERO PUSH2 0x1D9D JUMPI DUP1 DUP3 ADD MLOAD DUP2 DUP5 ADD MSTORE PUSH1 0x20 DUP2 ADD SWAP1 POP PUSH2 0x1D82 JUMP JUMPDEST DUP4 DUP2 GT ISZERO PUSH2 0x1DAC JUMPI PUSH1 0x0 DUP5 DUP5 ADD MSTORE JUMPDEST POP POP POP POP JUMP JUMPDEST PUSH1 0x0 PUSH2 0x1DBD DUP3 PUSH2 0x1D59 JUMP JUMPDEST SWAP2 POP PUSH1 0x0 DUP3 EQ ISZERO PUSH2 0x1DD1 JUMPI PUSH2 0x1DD0 PUSH2 0x1E88 JUMP JUMPDEST JUMPDEST PUSH1 0x1 DUP3 SUB SWAP1 POP SWAP2 SWAP1 POP JUMP JUMPDEST PUSH1 0x0 PUSH1 0x2 DUP3 DIV SWAP1 POP PUSH1 0x1 DUP3 AND DUP1 PUSH2 0x1DF4 JUMPI PUSH1 0x7F DUP3 AND SWAP2 POP JUMPDEST PUSH1 0x20 DUP3 LT DUP2 EQ ISZERO PUSH2 0x1E08 JUMPI PUSH2 0x1E07 PUSH2 0x1EE6 JUMP JUMPDEST JUMPDEST POP SWAP2 SWAP1 POP JUMP JUMPDEST PUSH2 0x1E17 DUP3 PUSH2 0x1F87 JUMP JUMPDEST DUP2 ADD DUP2 DUP2 LT PUSH8 0xFFFFFFFFFFFFFFFF DUP3 GT OR ISZERO PUSH2 0x1E36 JUMPI PUSH2 0x1E35 PUSH2 0x1F44 JUMP JUMPDEST JUMPDEST DUP1 PUSH1 0x40 MSTORE POP POP POP JUMP JUMPDEST PUSH1 0x0 PUSH2 0x1E4A DUP3 PUSH2 0x1D59 JUMP JUMPDEST SWAP2 POP PUSH32 0xFFFFFFFFFFFFFFFFFFFFFFFFFFFFFFFFFFFFFFFFFFFFFFFFFFFFFFFFFFFFFFFF DUP3 EQ ISZERO PUSH2 0x1E7D JUMPI PUSH2 0x1E7C PUSH2 0x1E88 JUMP JUMPDEST JUMPDEST PUSH1 0x1 DUP3 ADD SWAP1 POP SWAP2 SWAP1 POP JUMP JUMPDEST PUSH32 0x4E487B7100000000000000000000000000000000000000000000000000000000 PUSH1 0x0 MSTORE PUSH1 0x11 PUSH1 0x4 MSTORE PUSH1 0x24 PUSH1 0x0 REVERT JUMPDEST PUSH32 0x4E487B7100000000000000000000000000000000000000000000000000000000 PUSH1 0x0 MSTORE PUSH1 0x12 PUSH1 0x4 MSTORE PUSH1 0x24 PUSH1 0x0 REVERT JUMPDEST PUSH32 0x4E487B7100000000000000000000000000000000000000000000000000000000 PUSH1 0x0 MSTORE PUSH1 0x22 PUSH1 0x4 MSTORE PUSH1 0x24 PUSH1 0x0 REVERT JUMPDEST PUSH32 0x4E487B7100000000000000000000000000000000000000000000000000000000 PUSH1 0x0 MSTORE PUSH1 0x32 PUSH1 0x4 MSTORE PUSH1 0x24 PUSH1 0x0 REVERT JUMPDEST PUSH32 0x4E487B7100000000000000000000000000000000000000000000000000000000 PUSH1 0x0 MSTORE PUSH1 0x41 PUSH1 0x4 MSTORE PUSH1 0x24 PUSH1 0x0 REVERT JUMPDEST PUSH1 0x0 DUP1 REVERT JUMPDEST PUSH1 0x0 DUP1 REVERT JUMPDEST PUSH1 0x0 DUP1 REVERT JUMPDEST PUSH1 0x0 DUP1 REVERT JUMPDEST PUSH1 0x0 PUSH1 0x1F NOT PUSH1 0x1F DUP4 ADD AND SWAP1 POP SWAP2 SWAP1 POP JUMP JUMPDEST PUSH32 0x4F6E6C7920746865206D616E616765722063616E20636F6E6669726D2064656C PUSH1 0x0 DUP3 ADD MSTORE PUSH32 0x6976697265730000000000000000000000000000000000000000000000000000 PUSH1 0x20 DUP3 ADD MSTORE POP JUMP JUMPDEST PUSH32 0x49742773206F7574206F662073746F636B000000000000000000000000000000 PUSH1 0x0 DUP3 ADD MSTORE POP JUMP JUMPDEST PUSH32 0x596F752063616E27742072657475726E20746869732070726F6475637420616E PUSH1 0x0 DUP3 ADD MSTORE PUSH32 0x796D6F7265000000000000000000000000000000000000000000000000000000 PUSH1 0x20 DUP3 ADD MSTORE POP JUMP JUMPDEST PUSH32 0x546865206D6F6E657920796F752073656E74206973206E6F7420657175616C20 PUSH1 0x0 DUP3 ADD MSTORE PUSH32 0x746F20746865207072696365206C697374656400000000000000000000000000 PUSH1 0x20 DUP3 ADD MSTORE POP JUMP JUMPDEST PUSH32 0x596F7520646964206E6F742062757920746869732070726F6475637400000000 PUSH1 0x0 DUP3 ADD MSTORE POP JUMP JUMPDEST PUSH2 0x20E0 DUP2 PUSH2 0x1D59 JUMP JUMPDEST DUP2 EQ PUSH2 0x20EB JUMPI PUSH1 0x0 DUP1 REVERT JUMPDEST POP JUMP JUMPDEST PUSH2 0x20F7 DUP2 PUSH2 0x1D63 JUMP JUMPDEST DUP2 EQ PUSH2 0x2102 JUMPI PUSH1 0x0 DUP1 REVERT JUMPDEST POP JUMP INVALID LOG2 PUSH5 0x6970667358 0x22 SLT KECCAK256 SWAP3 0xE4 CREATE2 LOG1 0xC3 0xEA 0x49 GT 0x2E SWAP8 SIGNEXTEND XOR PUSH6 0xF80DBD462349 STATICCALL JUMPDEST PUSH7 0x6D8D8C8D83FB95 0xAB PUSH5 0x5664736F6C PUSH4 0x43000806 STOP CALLER "},"gasEstimates":{"creation":{"codeDepositCost":"1701400","executionCost":"26051","totalCost":"1727451"},"external":{"addReview(uint256,string,string,string,uint8)":"infinite","allPurchases(uint256)":"infinite","buyProduct(uint256)":"infinite","confirmOwnerShip(uint256)":"infinite","createProduct(string,string,string,uint256,uint256,string)":"infinite","getAvgReview(uint256)":"infinite","getReview(uint256,uint256)":"infinite","productHasArrived(uint256)":"26996","returnProduct(uint256)":"infinite","storeProducts(uint256)":"infinite","storeProductsLength()":"2489"},"internal":{"addPurchase(uint256)":"infinite","checkIfSoldOut(uint256)":"30801"}},"methodIdentifiers":{"addReview(uint256,string,string,string,uint8)":"4f27bda6","allPurchases(uint256)":"ac6c93d7","buyProduct(uint256)":"8642269e","confirmOwnerShip(uint256)":"be90c752","createProduct(string,string,string,uint256,uint256,string)":"bb914c6a","getAvgReview(uint256)":"085c8ac3","getReview(uint256,uint256)":"dfa505ed","productHasArrived(uint256)":"f5aa0231","returnProduct(uint256)":"131e407d","storeProducts(uint256)":"e36fe830","storeProductsLength()":"ca5fc72d"}},"storageLayout":{"storage":[{"astId":68,"contract":"Product.sol:OnlineStore","label":"storeProducts","offset":0,"slot":"0","type":"t_array(t_struct(Product)64_storage)dyn_storage"},{"astId":72,"contract":"Product.sol:OnlineStore","label":"allPurchases","offset":0,"slot":"1","type":"t_array(t_struct(Purchasement)26_storage)dyn_storage"},{"astId":74,"contract":"Product.sol:OnlineStore","label":"manager","offset":0,"slot":"2","type":"t_address_payable"}],"types":{"t_address":{"encoding":"inplace","label":"address","numberOfBytes":"20"},"t_address_payable":{"encoding":"inplace","label":"address payable","numberOfBytes":"20"},"t_array(t_struct(Product)64_storage)dyn_storage":{"base":"t_struct(Product)64_storage","encoding":"dynamic_array","label":"struct OnlineStore.Product[]","numberOfBytes":"32"},"t_array(t_struct(Purchasement)26_storage)dyn_storage":{"base":"t_struct(Purchasement)26_storage","encoding":"dynamic_array","label":"struct OnlineStore.Purchasement[]","numberOfBytes":"32"},"t_bool":{"encoding":"inplace","label":"bool","numberOfBytes":"1"},"t_mapping(t_address,t_bool)":{"encoding":"mapping","key":"t_address","label":"mapping(address => bool)","numberOfBytes":"32","value":"t_bool"},"t_mapping(t_uint256,t_address)":{"encoding":"mapping","key":"t_uint256","label":"mapping(uint256 => address)","numberOfBytes":"32","value":"t_address"},"t_mapping(t_uint256,t_struct(Reviews)10_storage)":{"encoding":"mapping","key":"t_uint256","label":"mapping(uint256 => struct OnlineStore.Reviews)","numberOfBytes":"32","value":"t_struct(Reviews)10_storage"},"t_string_storage":{"encoding":"bytes","label":"string","numberOfBytes":"32"},"t_struct(Product)64_storage":{"encoding":"inplace","label":"struct OnlineStore.Product","members":[{"astId":28,"contract":"Product.sol:OnlineStore","label":"productID","offset":0,"slot":"0","type":"t_uint256"},{"astId":30,"contract":"Product.sol:OnlineStore","label":"publisher","offset":0,"slot":"1","type":"t_address_payable"},{"astId":32,"contract":"Product.sol:OnlineStore","label":"name","offset":0,"slot":"2","type":"t_string_storage"},{"astId":34,"contract":"Product.sol:OnlineStore","label":"descripion","offset":0,"slot":"3","type":"t_string_storage"},{"astId":36,"contract":"Product.sol:OnlineStore","label":"category","offset":0,"slot":"4","type":"t_string_storage"},{"astId":38,"contract":"Product.sol:OnlineStore","label":"price","offset":0,"slot":"5","type":"t_uint256"},{"astId":40,"contract":"Product.sol:OnlineStore","label":"photo","offset":0,"slot":"6","type":"t_string_storage"},{"astId":42,"contract":"Product.sol:OnlineStore","label":"starCount","offset":0,"slot":"7","type":"t_uint256"},{"astId":44,"contract":"Product.sol:OnlineStore","label":"isSold","offset":0,"slot":"8","type":"t_bool"},{"astId":46,"contract":"Product.sol:OnlineStore","label":"quantity","offset":0,"slot":"9","type":"t_uint256"},{"astId":50,"contract":"Product.sol:OnlineStore","label":"Buyers","offset":0,"slot":"10","type":"t_mapping(t_uint256,t_address)"},{"astId":52,"contract":"Product.sol:OnlineStore","label":"buyerCount","offset":0,"slot":"11","type":"t_uint256"},{"astId":56,"contract":"Product.sol:OnlineStore","label":"isBuyer","offset":0,"slot":"12","type":"t_mapping(t_address,t_bool)"},{"astId":61,"contract":"Product.sol:OnlineStore","label":"allReviews","offset":0,"slot":"13","type":"t_mapping(t_uint256,t_struct(Reviews)10_storage)"},{"astId":63,"contract":"Product.sol:OnlineStore","label":"reviewCount","offset":0,"slot":"14","type":"t_uint256"}],"numberOfBytes":"480"},"t_struct(Purchasement)26_storage":{"encoding":"inplace","label":"struct OnlineStore.Purchasement","members":[{"astId":17,"contract":"Product.sol:OnlineStore","label":"productID","offset":0,"slot":"0","type":"t_uint256"},{"astId":19,"contract":"Product.sol:OnlineStore","label":"buyer","offset":0,"slot":"1","type":"t_address_payable"},{"astId":21,"contract":"Product.sol:OnlineStore","label":"isCompleted","offset":20,"slot":"1","type":"t_bool"},{"astId":23,"contract":"Product.sol:OnlineStore","label":"hasReturned","offset":21,"slot":"1","type":"t_bool"},{"astId":25,"contract":"Product.sol:OnlineStore","label":"timeArrived","offset":0,"slot":"2","type":"t_uint256"}],"numberOfBytes":"96"},"t_struct(Reviews)10_storage":{"encoding":"inplace","label":"struct OnlineStore.Reviews","members":[{"astId":3,"contract":"Product.sol:OnlineStore","label":"reviewerFirstName","offset":0,"slot":"0","type":"t_string_storage"},{"astId":5,"contract":"Product.sol:OnlineStore","label":"reviewerLastName","offset":0,"slot":"1","type":"t_string_storage"},{"astId":7,"contract":"Product.sol:OnlineStore","label":"stars","offset":0,"slot":"2","type":"t_uint8"},{"astId":9,"contract":"Product.sol:OnlineStore","label":"opinion","offset":0,"slot":"3","type":"t_string_storage"}],"numberOfBytes":"128"},"t_uint256":{"encoding":"inplace","label":"uint256","numberOfBytes":"32"},"t_uint8":{"encoding":"inplace","label":"uint8","numberOfBytes":"1"}}},"userdoc":{"kind":"user","methods":{},"version":1}}